{
  "contractName": "CloudSLA",
  "abi": [
    {
      "inputs": [
        {
          "internalType": "address",
          "name": "_cloud",
          "type": "address"
        },
        {
          "internalType": "address",
          "name": "_user",
          "type": "address"
        },
        {
          "internalType": "uint256",
          "name": "_price",
          "type": "uint256"
        },
        {
          "internalType": "uint256",
          "name": "_validityDuration",
          "type": "uint256"
        },
        {
          "internalType": "uint256",
          "name": "lostFileCredits",
          "type": "uint256"
        },
        {
          "internalType": "uint256",
          "name": "undeletedFileCredits",
          "type": "uint256"
        }
      ],
      "stateMutability": "nonpayable",
      "type": "constructor"
    },
    {
      "anonymous": false,
      "inputs": [
        {
          "indexed": true,
          "internalType": "address",
          "name": "_user",
          "type": "address"
        },
        {
          "indexed": false,
          "internalType": "uint256",
          "name": "value",
          "type": "uint256"
        }
      ],
      "name": "CompensatedUser",
      "type": "event"
    },
    {
      "anonymous": false,
      "inputs": [
        {
          "indexed": true,
          "internalType": "address",
          "name": "_from",
          "type": "address"
        },
        {
          "indexed": false,
          "internalType": "string",
          "name": "filepath",
          "type": "string"
        }
      ],
      "name": "DeleteRequested",
      "type": "event"
    },
    {
      "anonymous": false,
      "inputs": [
        {
          "indexed": true,
          "internalType": "address",
          "name": "_from",
          "type": "address"
        },
        {
          "indexed": false,
          "internalType": "string",
          "name": "filepath",
          "type": "string"
        }
      ],
      "name": "Deleted",
      "type": "event"
    },
    {
      "anonymous": false,
      "inputs": [
        {
          "indexed": true,
          "internalType": "address",
          "name": "_from",
          "type": "address"
        },
        {
          "indexed": false,
          "internalType": "string",
          "name": "filepath",
          "type": "string"
        },
        {
          "indexed": false,
          "internalType": "string",
          "name": "msg",
          "type": "string"
        }
      ],
      "name": "FileChecked",
      "type": "event"
    },
    {
      "anonymous": false,
      "inputs": [
        {
          "indexed": true,
          "internalType": "address",
          "name": "_from",
          "type": "address"
        },
        {
          "indexed": false,
          "internalType": "uint256",
          "name": "endTime",
          "type": "uint256"
        },
        {
          "indexed": false,
          "internalType": "uint256",
          "name": "depositedValue",
          "type": "uint256"
        }
      ],
      "name": "Paid",
      "type": "event"
    },
    {
      "anonymous": false,
      "inputs": [
        {
          "indexed": true,
          "internalType": "address",
          "name": "_cloud",
          "type": "address"
        },
        {
          "indexed": false,
          "internalType": "uint256",
          "name": "value",
          "type": "uint256"
        }
      ],
      "name": "PaidCloudProvider",
      "type": "event"
    },
    {
      "anonymous": false,
      "inputs": [
        {
          "indexed": true,
          "internalType": "address",
          "name": "_from",
          "type": "address"
        },
        {
          "indexed": false,
          "internalType": "string",
          "name": "filepath",
          "type": "string"
        },
        {
          "indexed": false,
          "internalType": "string",
          "name": "url",
          "type": "string"
        }
      ],
      "name": "ReadRequestAcked",
      "type": "event"
    },
    {
      "anonymous": false,
      "inputs": [
        {
          "indexed": true,
          "internalType": "address",
          "name": "_from",
          "type": "address"
        },
        {
          "indexed": false,
          "internalType": "string",
          "name": "filepath",
          "type": "string"
        },
        {
          "indexed": false,
          "internalType": "bool",
          "name": "lostFile",
          "type": "bool"
        }
      ],
      "name": "ReadRequestDenied",
      "type": "event"
    },
    {
      "anonymous": false,
      "inputs": [
        {
          "indexed": true,
          "internalType": "address",
          "name": "_from",
          "type": "address"
        },
        {
          "indexed": false,
          "internalType": "string",
          "name": "filepath",
          "type": "string"
        }
      ],
      "name": "ReadRequested",
      "type": "event"
    },
    {
      "anonymous": false,
      "inputs": [
        {
          "indexed": true,
          "internalType": "address",
          "name": "_from",
          "type": "address"
        },
        {
          "indexed": false,
          "internalType": "string",
          "name": "filepath",
          "type": "string"
        }
      ],
      "name": "UploadRequestAcked",
      "type": "event"
    },
    {
      "anonymous": false,
      "inputs": [
        {
          "indexed": true,
          "internalType": "address",
          "name": "_from",
          "type": "address"
        },
        {
          "indexed": false,
          "internalType": "string",
          "name": "filepath",
          "type": "string"
        }
      ],
      "name": "UploadRequested",
      "type": "event"
    },
    {
      "anonymous": false,
      "inputs": [
        {
          "indexed": true,
          "internalType": "address",
          "name": "_from",
          "type": "address"
        },
        {
          "indexed": false,
          "internalType": "string",
          "name": "filepath",
          "type": "string"
        },
        {
          "indexed": false,
          "internalType": "bytes32",
          "name": "digest",
          "type": "bytes32"
        }
      ],
      "name": "UploadTransferAcked",
      "type": "event"
    },
    {
      "inputs": [],
      "name": "Deposit",
      "outputs": [],
      "stateMutability": "payable",
      "type": "function"
    },
    {
      "inputs": [],
      "name": "EndSla",
      "outputs": [],
      "stateMutability": "nonpayable",
      "type": "function"
    },
    {
      "inputs": [
        {
          "internalType": "string",
          "name": "filepath",
          "type": "string"
        }
      ],
      "name": "UploadRequest",
      "outputs": [],
      "stateMutability": "nonpayable",
      "type": "function"
    },
    {
      "inputs": [
        {
          "internalType": "string",
          "name": "filepath",
          "type": "string"
        }
      ],
      "name": "UploadRequestAck",
      "outputs": [],
      "stateMutability": "nonpayable",
      "type": "function"
    },
    {
      "inputs": [
        {
          "internalType": "string",
          "name": "filepath",
          "type": "string"
        },
        {
          "internalType": "bytes32",
          "name": "digest",
          "type": "bytes32"
        }
      ],
      "name": "UploadTransferAck",
      "outputs": [],
      "stateMutability": "nonpayable",
      "type": "function"
    },
    {
      "inputs": [
        {
          "internalType": "string",
          "name": "filepath",
          "type": "string"
        },
        {
          "internalType": "bool",
          "name": "ack",
          "type": "bool"
        }
      ],
      "name": "UploadConfirm",
      "outputs": [],
      "stateMutability": "nonpayable",
      "type": "function"
    },
    {
      "inputs": [
        {
          "internalType": "string",
          "name": "filepath",
          "type": "string"
        }
      ],
      "name": "DeleteRequest",
      "outputs": [],
      "stateMutability": "nonpayable",
      "type": "function"
    },
    {
      "inputs": [
        {
          "internalType": "string",
          "name": "filepath",
          "type": "string"
        }
      ],
      "name": "Delete",
      "outputs": [],
      "stateMutability": "nonpayable",
      "type": "function"
    },
    {
      "inputs": [
        {
          "internalType": "string",
          "name": "filepath",
          "type": "string"
        }
      ],
      "name": "ReadRequest",
      "outputs": [],
      "stateMutability": "nonpayable",
      "type": "function"
    },
    {
      "inputs": [
        {
          "internalType": "string",
          "name": "filepath",
          "type": "string"
        },
        {
          "internalType": "string",
          "name": "url",
          "type": "string"
        }
      ],
      "name": "ReadRequestAck",
      "outputs": [],
      "stateMutability": "nonpayable",
      "type": "function"
    },
    {
      "inputs": [
        {
          "internalType": "string",
          "name": "filepath",
          "type": "string"
        }
      ],
      "name": "ReadRequestDeny",
      "outputs": [],
      "stateMutability": "nonpayable",
      "type": "function"
    },
    {
      "inputs": [
        {
          "internalType": "string",
          "name": "filepath",
          "type": "string"
        }
      ],
      "name": "FileHashRequest",
      "outputs": [],
      "stateMutability": "nonpayable",
      "type": "function"
    },
    {
      "inputs": [
        {
          "internalType": "string",
          "name": "filepath",
          "type": "string"
        }
      ],
      "name": "FileCheck",
      "outputs": [],
      "stateMutability": "nonpayable",
      "type": "function"
    },
    {
      "inputs": [
        {
          "internalType": "string",
          "name": "filepath",
          "type": "string"
        }
      ],
      "name": "GetFile",
      "outputs": [
        {
          "internalType": "bytes32",
          "name": "",
          "type": "bytes32"
        },
        {
          "internalType": "enum CloudSLA.State[]",
          "name": "",
          "type": "uint8[]"
        },
        {
          "internalType": "bool",
          "name": "",
          "type": "bool"
        },
        {
          "internalType": "bytes32[]",
          "name": "",
          "type": "bytes32[]"
        },
        {
          "internalType": "string",
          "name": "",
          "type": "string"
        }
      ],
      "stateMutability": "view",
      "type": "function"
    },
    {
      "inputs": [],
      "name": "GetSLAInfo",
      "outputs": [
        {
          "internalType": "bool",
          "name": "",
          "type": "bool"
        },
        {
          "internalType": "uint256",
          "name": "",
          "type": "uint256"
        },
        {
          "internalType": "uint256",
          "name": "",
          "type": "uint256"
        },
        {
          "internalType": "uint256",
          "name": "",
          "type": "uint256"
        }
      ],
      "stateMutability": "view",
      "type": "function"
    }
  ],
  "bytecode": "0x6080604052739e699d6c7ccf183f0b09675a9e867d1486eef85b6000806101000a81548173ffffffffffffffffffffffffffffffffffffffff021916908373ffffffffffffffffffffffffffffffffffffffff1602179055503480156200006557600080fd5b50604051620050a7380380620050a783398181016040528101906200008b919062000250565b85600260006101000a81548173ffffffffffffffffffffffffffffffffffffffff021916908373ffffffffffffffffffffffffffffffffffffffff16021790555084600160006101000a81548173ffffffffffffffffffffffffffffffffffffffff021916908373ffffffffffffffffffffffffffffffffffffffff16021790555083600481905550826006819055508160056000806001811115620001365762000135620002ec565b5b60018111156200014b576200014a620002ec565b5b8152602001908152602001600020819055508060056000600180811115620001785762000177620002ec565b5b60018111156200018d576200018c620002ec565b5b8152602001908152602001600020819055505050505050506200031b565b600080fd5b600073ffffffffffffffffffffffffffffffffffffffff82169050919050565b6000620001dd82620001b0565b9050919050565b620001ef81620001d0565b8114620001fb57600080fd5b50565b6000815190506200020f81620001e4565b92915050565b6000819050919050565b6200022a8162000215565b81146200023657600080fd5b50565b6000815190506200024a816200021f565b92915050565b60008060008060008060c0878903121562000270576200026f620001ab565b5b60006200028089828a01620001fe565b96505060206200029389828a01620001fe565b9550506040620002a689828a0162000239565b9450506060620002b989828a0162000239565b9350506080620002cc89828a0162000239565b92505060a0620002df89828a0162000239565b9150509295509295509295565b7f4e487b7100000000000000000000000000000000000000000000000000000000600052602160045260246000fd5b614d7c806200032b6000396000f3fe608060405260043610610105576000357c0100000000000000000000000000000000000000000000000000000000900480637dc5f9a8116100a7578063cb95a5bb11610076578063cb95a5bb146102d8578063ecce9a2414610301578063ed21248c1461032a578063faef41821461033457610105565b80637dc5f9a8146102415780638991bdc91461025857806399bdcf2114610281578063c632e536146102aa57610105565b80632d77e02c116100e35780632d77e02c146101855780633f7f626e146101ae5780634f10916e146101ef5780636d6cb6051461021857610105565b80630bc125531461010a5780630c5569be1461013357806315f185961461015c575b600080fd5b34801561011657600080fd5b50610131600480360381019061012c9190613d7c565b61035d565b005b34801561013f57600080fd5b5061015a60048036038101906101559190613d7c565b6106c5565b005b34801561016857600080fd5b50610183600480360381019061017e9190613d7c565b610e31565b005b34801561019157600080fd5b506101ac60048036038101906101a79190613e01565b6111a3565b005b3480156101ba57600080fd5b506101d560048036038101906101d09190613fa2565b6115b0565b6040516101e695949392919061427f565b60405180910390f35b3480156101fb57600080fd5b5061021660048036038101906102119190613d7c565b611839565b005b34801561022457600080fd5b5061023f600480360381019061023a9190613d7c565b611bd0565b005b34801561024d57600080fd5b50610256612058565b005b34801561026457600080fd5b5061027f600480360381019061027a9190614313565b6121d5565b005b34801561028d57600080fd5b506102a860048036038101906102a39190614373565b61257d565b005b3480156102b657600080fd5b506102bf612911565b6040516102cf949392919061440d565b60405180910390f35b3480156102e457600080fd5b506102ff60048036038101906102fa9190613d7c565b612950565b005b34801561030d57600080fd5b5061032860048036038101906103239190613d7c565b612dd8565b005b61033261319b565b005b34801561034057600080fd5b5061035b60048036038101906103569190613d7c565b61332c565b005b600260009054906101000a900473ffffffffffffffffffffffffffffffffffffffff1673ffffffffffffffffffffffffffffffffffffffff163373ffffffffffffffffffffffffffffffffffffffff16146103ed576040517f08c379a00000000000000000000000000000000000000000000000000000000081526004016103e49061449e565b60405180910390fd5b600760010160000154421015801561040d57506007600101600101544211155b61044c576040517f08c379a00000000000000000000000000000000000000000000000000000000081526004016104439061450a565b60405180910390fd5b81818080601f016020809104026020016040519081016040528093929190818152602001838380828437600081840152601f19601f820116905080830192505050505050506001600061049e836137ce565b9050600080600102600360008481526020019081526020016000206000015414159050600060036000848152602001908152602001600020600201600160036000868152602001908152602001600020600201805490506104ff9190614559565b815481106105105761050f61458d565b5b90600052602060002090602091828204019190069054906101000a900460ff169050600060010283141580156105435750815b8015610572575083600a81111561055d5761055c614030565b5b81600a8111156105705761056f614030565b5b145b6105b1576040517f08c379a00000000000000000000000000000000000000000000000000000000081526004016105a890614608565b60405180910390fd5b600061060088888080601f016020809104026020016040519081016040528093929190818152602001838380828437600081840152601f19601f820116905080830192505050505050506137ce565b905060036000828152602001908152602001600020600201600290806001815401808255809150506001900390600052602060002090602091828204019190069091909190916101000a81548160ff0219169083600a81111561066657610665614030565b5b02179055503373ffffffffffffffffffffffffffffffffffffffff167f0cdd49fa6677e6748e3e1adfa06f5190776179323cc7e22c98124b1a389b163989896040516106b3929190614655565b60405180910390a25050505050505050565b600160009054906101000a900473ffffffffffffffffffffffffffffffffffffffff1673ffffffffffffffffffffffffffffffffffffffff163373ffffffffffffffffffffffffffffffffffffffff1614610755576040517f08c379a000000000000000000000000000000000000000000000000000000000815260040161074c906146c5565b60405180910390fd5b600760010160000154421015801561077557506007600101600101544211155b6107b4576040517f08c379a00000000000000000000000000000000000000000000000000000000081526004016107ab9061450a565b60405180910390fd5b81818080601f016020809104026020016040519081016040528093929190818152602001838380828437600081840152601f19601f820116905080830192505050505050506000610804826137ce565b90506000600102811415801561083457506000600102600360008381526020019081526020016000206000015414155b610873576040517f08c379a000000000000000000000000000000000000000000000000000000000815260040161086a90614731565b60405180910390fd5b83838080601f016020809104026020016040519081016040528093929190818152602001838380828437600081840152601f19601f82011690508083019250505050505050600a60006108c5836137ce565b9050600080600102600360008481526020019081526020016000206000015414159050600060036000848152602001908152602001600020600201600160036000868152602001908152602001600020600201805490506109269190614559565b815481106109375761093661458d565b5b90600052602060002090602091828204019190069054906101000a900460ff1690506000600102831415801561096a5750815b8015610999575083600a81111561098457610983614030565b5b81600a81111561099757610996614030565b5b145b6109d8576040517f08c379a00000000000000000000000000000000000000000000000000000000081526004016109cf90614608565b60405180910390fd5b6000610a278a8a8080601f016020809104026020016040519081016040528093929190818152602001838380828437600081840152601f19601f820116905080830192505050505050506137ce565b905060008060009054906101000a900473ffffffffffffffffffffffffffffffffffffffff1673ffffffffffffffffffffffffffffffffffffffff166397307a8b600360008581526020019081526020016000206004016040518263ffffffff167c0100000000000000000000000000000000000000000000000000000000028152600401610ab69190614847565b60206040518083038186803b158015610ace57600080fd5b505afa158015610ae2573d6000803e3d6000fd5b505050506040513d601f19601f82011682018060405250810190610b06919061487e565b6003600084815260200190815260200160002060030160016003600086815260200190815260200160002060030180549050610b429190614559565b81548110610b5357610b5261458d565b5b906000526020600020015414905060006040518060400160405280601281526020017f4e6f20534c412076696f6c6174696f6e732e000000000000000000000000000081525090506003600084815260200190815260200160002060010160009054906101000a900460ff16158015610bc95750815b15610c3f57604051806060016040528060328152602001614d1560329139905060056000600180811115610c0057610bff614030565b5b6001811115610c1257610c11614030565b5b815260200190815260200160002054600760030154610c3191906148ab565b600760030181905550610cfd565b6003600084815260200190815260200160002060010160009054906101000a900460ff168015610c6d575081155b15610cfc576040518060400160405280601881526020017f46696c6520686173206265656e20636f727275707465642e0000000000000000815250905060056000806001811115610cc157610cc0614030565b5b6001811115610cd357610cd2614030565b5b815260200190815260200160002054600760030154610cf291906148ab565b6007600301819055505b5b600360008481526020019081526020016000206002016003600085815260200190815260200160002060020160026003600087815260200190815260200160002060020180549050610d4f9190614559565b81548110610d6057610d5f61458d565b5b90600052602060002090602091828204019190069054906101000a900460ff1690806001815401808255809150506001900390600052602060002090602091828204019190069091909190916101000a81548160ff0219169083600a811115610dcc57610dcb614030565b5b02179055503373ffffffffffffffffffffffffffffffffffffffff167f3abcdad802a97ea7c42685aff62e2ebd56415fee10e08142b52d92ee4f9297018d8d84604051610e1b93929190614901565b60405180910390a2505050505050505050505050565b600260009054906101000a900473ffffffffffffffffffffffffffffffffffffffff1673ffffffffffffffffffffffffffffffffffffffff163373ffffffffffffffffffffffffffffffffffffffff1614610ec1576040517f08c379a0000000000000000000000000000000000000000000000000000000008152600401610eb89061449e565b60405180910390fd5b6007600101600001544210158015610ee157506007600101600101544211155b610f20576040517f08c379a0000000000000000000000000000000000000000000000000000000008152600401610f179061450a565b60405180910390fd5b81818080601f016020809104026020016040519081016040528093929190818152602001838380828437600081840152601f19601f8201169050808301925050505050505060076000610f72836137ce565b905060008060010260036000848152602001908152602001600020600001541415905060006003600084815260200190815260200160002060020160016003600086815260200190815260200160002060020180549050610fd39190614559565b81548110610fe457610fe361458d565b5b90600052602060002090602091828204019190069054906101000a900460ff169050600060010283141580156110175750815b8015611046575083600a81111561103157611030614030565b5b81600a81111561104457611043614030565b5b145b611085576040517f08c379a000000000000000000000000000000000000000000000000000000000815260040161107c90614608565b60405180910390fd5b60006110d488888080601f016020809104026020016040519081016040528093929190818152602001838380828437600081840152601f19601f820116905080830192505050505050506137ce565b905060036000828152602001908152602001600020600201600990806001815401808255809150506001900390600052602060002090602091828204019190069091909190916101000a81548160ff0219169083600a81111561113a57611139614030565b5b02179055503373ffffffffffffffffffffffffffffffffffffffff167f073de82d88156d14cc9f4fa2fc499d75691d723d77064ea1f941dfc434fdbfe8898961118285613846565b6040516111919392919061493a565b60405180910390a25050505050505050565b600160009054906101000a900473ffffffffffffffffffffffffffffffffffffffff1673ffffffffffffffffffffffffffffffffffffffff163373ffffffffffffffffffffffffffffffffffffffff1614611233576040517f08c379a000000000000000000000000000000000000000000000000000000000815260040161122a906146c5565b60405180910390fd5b600760010160000154421015801561125357506007600101600101544211155b611292576040517f08c379a00000000000000000000000000000000000000000000000000000000081526004016112899061450a565b60405180910390fd5b82828080601f016020809104026020016040519081016040528093929190818152602001838380828437600081840152601f19601f82011690508083019250505050505050600360006112e4836137ce565b9050600080600102600360008481526020019081526020016000206000015414159050600060036000848152602001908152602001600020600201600160036000868152602001908152602001600020600201805490506113459190614559565b815481106113565761135561458d565b5b90600052602060002090602091828204019190069054906101000a900460ff169050600060010283141580156113895750815b80156113b8575083600a8111156113a3576113a2614030565b5b81600a8111156113b6576113b5614030565b5b145b6113f7576040517f08c379a00000000000000000000000000000000000000000000000000000000081526004016113ee90614608565b60405180910390fd5b600061144689898080601f016020809104026020016040519081016040528093929190818152602001838380828437600081840152601f19601f820116905080830192505050505050506137ce565b905086156114eb5760036000828152602001908152602001600020600201600490806001815401808255809150506001900390600052602060002090602091828204019190069091909190916101000a81548160ff0219169083600a8111156114b2576114b1614030565b5b021790555060016003600083815260200190815260200160002060010160006101000a81548160ff0219169083151502179055506115a5565b60036000828152602001908152602001600020600201600590806001815401808255809150506001900390600052602060002090602091828204019190069091909190916101000a81548160ff0219169083600a81111561154f5761154e614030565b5b02179055503373ffffffffffffffffffffffffffffffffffffffff167fa361c37b9b9279fb76c5b2f6766e0c6329c08bcca7bd57140b98e24f8f9dc3698a8a60405161159c929190614655565b60405180910390a25b505050505050505050565b6000606060006060808560006115c5826137ce565b9050600060010281141580156115f557506000600102600360008381526020019081526020016000206000015414155b611634576040517f08c379a000000000000000000000000000000000000000000000000000000000815260040161162b90614731565b60405180910390fd5b600061163f896137ce565b90506003600082815260200190815260200160002060000154600360008381526020019081526020016000206002016003600084815260200190815260200160002060010160009054906101000a900460ff1660036000858152602001908152602001600020600301600360008681526020019081526020016000206004018380548060200260200160405190810160405280929190818152602001828054801561173e57602002820191906000526020600020906000905b82829054906101000a900460ff16600a81111561171857611717614030565b5b815260200190600101906020826000010492830192600103820291508084116116f85790505b505050505093508180548060200260200160405190810160405280929190818152602001828054801561179057602002820191906000526020600020905b81548152602001906001019080831161177c575b505050505091508080546117a390614780565b80601f01602080910402602001604051908101604052809291908181526020018280546117cf90614780565b801561181c5780601f106117f15761010080835404028352916020019161181c565b820191906000526020600020905b8154815290600101906020018083116117ff57829003601f168201915b505050505090509750975097509750975050505091939590929450565b600260009054906101000a900473ffffffffffffffffffffffffffffffffffffffff1673ffffffffffffffffffffffffffffffffffffffff163373ffffffffffffffffffffffffffffffffffffffff16146118c9576040517f08c379a00000000000000000000000000000000000000000000000000000000081526004016118c09061449e565b60405180910390fd5b60076001016000015442101580156118e957506007600101600101544211155b611928576040517f08c379a000000000000000000000000000000000000000000000000000000000815260040161191f9061450a565b60405180910390fd5b81818080601f016020809104026020016040519081016040528093929190818152602001838380828437600081840152601f19601f820116905080830192505050505050506005600061197a836137ce565b9050600080600102600360008481526020019081526020016000206000015414159050600060036000848152602001908152602001600020600201600160036000868152602001908152602001600020600201805490506119db9190614559565b815481106119ec576119eb61458d565b5b90600052602060002090602091828204019190069054906101000a900460ff16905060006001028314158015611a1f5750815b8015611a4e575083600a811115611a3957611a38614030565b5b81600a811115611a4c57611a4b614030565b5b145b611a8d576040517f08c379a0000000000000000000000000000000000000000000000000000000008152600401611a8490614608565b60405180910390fd5b6000611adc88888080601f016020809104026020016040519081016040528093929190818152602001838380828437600081840152601f19601f820116905080830192505050505050506137ce565b905060036000828152602001908152602001600020600201600690806001815401808255809150506001900390600052602060002090602091828204019190069091909190916101000a81548160ff0219169083600a811115611b4257611b41614030565b5b021790555060006003600083815260200190815260200160002060010160006101000a81548160ff0219169083151502179055503373ffffffffffffffffffffffffffffffffffffffff167fcf23c84b97507296743c82bc5af85b760c38e0602755fb48fe72f009b0f30f488989604051611bbe929190614655565b60405180910390a25050505050505050565b600160009054906101000a900473ffffffffffffffffffffffffffffffffffffffff1673ffffffffffffffffffffffffffffffffffffffff163373ffffffffffffffffffffffffffffffffffffffff1614611c60576040517f08c379a0000000000000000000000000000000000000000000000000000000008152600401611c57906146c5565b60405180910390fd5b6007600101600001544210158015611c8057506007600101600101544211155b611cbf576040517f08c379a0000000000000000000000000000000000000000000000000000000008152600401611cb69061450a565b60405180910390fd5b81818080601f016020809104026020016040519081016040528093929190818152602001838380828437600081840152601f19601f8201169050808301925050505050505060016000611d11836137ce565b90506000806001026003600084815260200190815260200160002060000154141590508215611dbb5760006001028214158015611d4b5750805b8015611d7757506003600083815260200190815260200160002060010160009054906101000a900460ff165b611db6576040517f08c379a0000000000000000000000000000000000000000000000000000000008152600401611dad906149b8565b60405180910390fd5b611e29565b801580611de957506003600083815260200190815260200160002060010160009054906101000a900460ff16155b611e28576040517f08c379a0000000000000000000000000000000000000000000000000000000008152600401611e1f90614a24565b60405180910390fd5b5b85858080601f016020809104026020016040519081016040528093929190818152602001838380828437600081840152601f19601f820116905080830192505050505050506000611e79826137ce565b9050600080600102600360008481526020019081526020016000206000015414159050801580611f395750600a80811115611eb757611eb6614030565b5b6003600084815260200190815260200160002060020160016003600086815260200190815260200160002060020180549050611ef39190614559565b81548110611f0457611f0361458d565b5b90600052602060002090602091828204019190069054906101000a900460ff16600a811115611f3657611f35614030565b5b14155b611f4257600080fd5b6000611f918a8a8080601f016020809104026020016040519081016040528093929190818152602001838380828437600081840152601f19601f820116905080830192505050505050506137ce565b905060036000828152602001908152602001600020600201600590806001815401808255809150506001900390600052602060002090602091828204019190069091909190916101000a81548160ff0219169083600a811115611ff757611ff6614030565b5b02179055503373ffffffffffffffffffffffffffffffffffffffff167fa361c37b9b9279fb76c5b2f6766e0c6329c08bcca7bd57140b98e24f8f9dc3698b8b604051612044929190614655565b60405180910390a250505050505050505050565b600160009054906101000a900473ffffffffffffffffffffffffffffffffffffffff1673ffffffffffffffffffffffffffffffffffffffff163373ffffffffffffffffffffffffffffffffffffffff1614806121015750600260009054906101000a900473ffffffffffffffffffffffffffffffffffffffff1673ffffffffffffffffffffffffffffffffffffffff163373ffffffffffffffffffffffffffffffffffffffff16145b612140576040517f08c379a000000000000000000000000000000000000000000000000000000000815260040161213790614a90565b60405180910390fd5b60076001016001015442101561218b576040517f08c379a000000000000000000000000000000000000000000000000000000000815260040161218290614afc565b60405180910390fd5b6121936138b8565b61219b6139b5565b6007600080820160006101000a81549060ff0219169055600182016000808201600090556001820160009055505060038201600090555050565b600260009054906101000a900473ffffffffffffffffffffffffffffffffffffffff1673ffffffffffffffffffffffffffffffffffffffff163373ffffffffffffffffffffffffffffffffffffffff1614612265576040517f08c379a000000000000000000000000000000000000000000000000000000000815260040161225c9061449e565b60405180910390fd5b600760010160000154421015801561228557506007600101600101544211155b6122c4576040517f08c379a00000000000000000000000000000000000000000000000000000000081526004016122bb9061450a565b60405180910390fd5b82828080601f016020809104026020016040519081016040528093929190818152602001838380828437600081840152601f19601f8201169050808301925050505050505060026000612316836137ce565b9050600080600102600360008481526020019081526020016000206000015414159050600060036000848152602001908152602001600020600201600160036000868152602001908152602001600020600201805490506123779190614559565b815481106123885761238761458d565b5b90600052602060002090602091828204019190069054906101000a900460ff169050600060010283141580156123bb5750815b80156123ea575083600a8111156123d5576123d4614030565b5b81600a8111156123e8576123e7614030565b5b145b612429576040517f08c379a000000000000000000000000000000000000000000000000000000000815260040161242090614608565b60405180910390fd5b600061247889898080601f016020809104026020016040519081016040528093929190818152602001838380828437600081840152601f19601f820116905080830192505050505050506137ce565b905060036000828152602001908152602001600020600201600390806001815401808255809150506001900390600052602060002090602091828204019190069091909190916101000a81548160ff0219169083600a8111156124de576124dd614030565b5b0217905550600360008281526020019081526020016000206003018790806001815401808255809150506001900390600052602060002001600090919091909150553373ffffffffffffffffffffffffffffffffffffffff167fd584ede0e1da1abff4dac6b0e56f891f2b01d81083c9d9699beacac28f446b148a8a8a60405161256a93929190614b1c565b60405180910390a2505050505050505050565b600260009054906101000a900473ffffffffffffffffffffffffffffffffffffffff1673ffffffffffffffffffffffffffffffffffffffff163373ffffffffffffffffffffffffffffffffffffffff161461260d576040517f08c379a00000000000000000000000000000000000000000000000000000000081526004016126049061449e565b60405180910390fd5b600760010160000154421015801561262d57506007600101600101544211155b61266c576040517f08c379a00000000000000000000000000000000000000000000000000000000081526004016126639061450a565b60405180910390fd5b83838080601f016020809104026020016040519081016040528093929190818152602001838380828437600081840152601f19601f82011690508083019250505050505050600760006126be836137ce565b90506000806001026003600084815260200190815260200160002060000154141590506000600360008481526020019081526020016000206002016001600360008681526020019081526020016000206002018054905061271f9190614559565b815481106127305761272f61458d565b5b90600052602060002090602091828204019190069054906101000a900460ff169050600060010283141580156127635750815b8015612792575083600a81111561277d5761277c614030565b5b81600a8111156127905761278f614030565b5b145b6127d1576040517f08c379a00000000000000000000000000000000000000000000000000000000081526004016127c890614608565b60405180910390fd5b60006128208a8a8080601f016020809104026020016040519081016040528093929190818152602001838380828437600081840152601f19601f820116905080830192505050505050506137ce565b905060036000828152602001908152602001600020600201600890806001815401808255809150506001900390600052602060002090602091828204019190069091909190916101000a81548160ff0219169083600a81111561288657612885614030565b5b021790555087876003600084815260200190815260200160002060040191906128b0929190613c60565b503373ffffffffffffffffffffffffffffffffffffffff167f287a137e6d755097d78d1cb8fd52fec9af76644de921def1f86c108a4e6b18f28b8b8b8b6040516128fd9493929190614b4e565b60405180910390a250505050505050505050565b600080600080600760000160009054906101000a900460ff16600760010160000154600760010160010154600760030154935093509350935090919293565b600160009054906101000a900473ffffffffffffffffffffffffffffffffffffffff1673ffffffffffffffffffffffffffffffffffffffff163373ffffffffffffffffffffffffffffffffffffffff16146129e0576040517f08c379a00000000000000000000000000000000000000000000000000000000081526004016129d7906146c5565b60405180910390fd5b6007600101600001544210158015612a0057506007600101600101544211155b612a3f576040517f08c379a0000000000000000000000000000000000000000000000000000000008152600401612a369061450a565b60405180910390fd5b81818080601f016020809104026020016040519081016040528093929190818152602001838380828437600081840152601f19601f8201169050808301925050505050505060016000612a91836137ce565b90506000806001026003600084815260200190815260200160002060000154141590508215612b3b5760006001028214158015612acb5750805b8015612af757506003600083815260200190815260200160002060010160009054906101000a900460ff165b612b36576040517f08c379a0000000000000000000000000000000000000000000000000000000008152600401612b2d906149b8565b60405180910390fd5b612ba9565b801580612b6957506003600083815260200190815260200160002060010160009054906101000a900460ff16155b612ba8576040517f08c379a0000000000000000000000000000000000000000000000000000000008152600401612b9f90614a24565b60405180910390fd5b5b85858080601f016020809104026020016040519081016040528093929190818152602001838380828437600081840152601f19601f820116905080830192505050505050506000612bf9826137ce565b9050600080600102600360008481526020019081526020016000206000015414159050801580612cb95750600a80811115612c3757612c36614030565b5b6003600084815260200190815260200160002060020160016003600086815260200190815260200160002060020180549050612c739190614559565b81548110612c8457612c8361458d565b5b90600052602060002090602091828204019190069054906101000a900460ff16600a811115612cb657612cb5614030565b5b14155b612cc257600080fd5b6000612d118a8a8080601f016020809104026020016040519081016040528093929190818152602001838380828437600081840152601f19601f820116905080830192505050505050506137ce565b905060036000828152602001908152602001600020600201600790806001815401808255809150506001900390600052602060002090602091828204019190069091909190916101000a81548160ff0219169083600a811115612d7757612d76614030565b5b02179055503373ffffffffffffffffffffffffffffffffffffffff167faae6d576c29601c16cbc3bced4dafc70f0abfef5177650d5853efbec130759dd8b8b604051612dc4929190614655565b60405180910390a250505050505050505050565b600160009054906101000a900473ffffffffffffffffffffffffffffffffffffffff1673ffffffffffffffffffffffffffffffffffffffff163373ffffffffffffffffffffffffffffffffffffffff1614612e68576040517f08c379a0000000000000000000000000000000000000000000000000000000008152600401612e5f906146c5565b60405180910390fd5b6007600101600001544210158015612e8857506007600101600101544211155b612ec7576040517f08c379a0000000000000000000000000000000000000000000000000000000008152600401612ebe9061450a565b60405180910390fd5b81818080601f016020809104026020016040519081016040528093929190818152602001838380828437600081840152601f19601f820116905080830192505050505050506000612f17826137ce565b905060006001028114158015612f4757506000600102600360008381526020019081526020016000206000015414155b612f86576040517f08c379a0000000000000000000000000000000000000000000000000000000008152600401612f7d90614731565b60405180910390fd5b6000612fd585858080601f016020809104026020016040519081016040528093929190818152602001838380828437600081840152601f19601f820116905080830192505050505050506137ce565b905060008054906101000a900473ffffffffffffffffffffffffffffffffffffffff1673ffffffffffffffffffffffffffffffffffffffff1663757bec56600360008481526020019081526020016000206004016040518263ffffffff167c01000000000000000000000000000000000000000000000000000000000281526004016130619190614847565b600060405180830381600087803b15801561307b57600080fd5b505af115801561308f573d6000803e3d6000fd5b50505050600a808111156130a6576130a5614030565b5b60036000838152602001908152602001600020600201600160036000858152602001908152602001600020600201805490506130e29190614559565b815481106130f3576130f261458d565b5b90600052602060002090602091828204019190069054906101000a900460ff16600a81111561312557613124614030565b5b146131945760036000828152602001908152602001600020600201600a90806001815401808255809150506001900390600052602060002090602091828204019190069091909190916101000a81548160ff0219169083600a81111561318e5761318d614030565b5b02179055505b5050505050565b600160009054906101000a900473ffffffffffffffffffffffffffffffffffffffff1673ffffffffffffffffffffffffffffffffffffffff163373ffffffffffffffffffffffffffffffffffffffff161461322b576040517f08c379a0000000000000000000000000000000000000000000000000000000008152600401613222906146c5565b60405180910390fd5b34600760000160009054906101000a900460ff1615801561324d575060045481145b61328c576040517f08c379a000000000000000000000000000000000000000000000000000000000815260040161328390614bd5565b60405180910390fd5b6001600760000160006101000a81548160ff02191690831515021790555042600760010160000181905550600654426132c591906148ab565b6007600101600101819055503373ffffffffffffffffffffffffffffffffffffffff167fdf9a51129930649214df58f542322c245372c6f2fa6fc3c9b40d927c597cd23060076001016001015434604051613321929190614bf5565b60405180910390a250565b600160009054906101000a900473ffffffffffffffffffffffffffffffffffffffff1673ffffffffffffffffffffffffffffffffffffffff163373ffffffffffffffffffffffffffffffffffffffff16146133bc576040517f08c379a00000000000000000000000000000000000000000000000000000000081526004016133b3906146c5565b60405180910390fd5b60076001016000015442101580156133dc57506007600101600101544211155b61341b576040517f08c379a00000000000000000000000000000000000000000000000000000000081526004016134129061450a565b60405180910390fd5b81818080601f016020809104026020016040519081016040528093929190818152602001838380828437600081840152601f19601f8201169050808301925050505050505060008061346c836137ce565b9050600080600102600360008481526020019081526020016000206000015414159050821561351657600060010282141580156134a65750805b80156134d257506003600083815260200190815260200160002060010160009054906101000a900460ff165b613511576040517f08c379a0000000000000000000000000000000000000000000000000000000008152600401613508906149b8565b60405180910390fd5b613584565b80158061354457506003600083815260200190815260200160002060010160009054906101000a900460ff16155b613583576040517f08c379a000000000000000000000000000000000000000000000000000000000815260040161357a90614a24565b60405180910390fd5b5b85858080601f016020809104026020016040519081016040528093929190818152602001838380828437600081840152601f19601f8201169050808301925050505050505060006135d4826137ce565b90506000806001026003600084815260200190815260200160002060000154141590508015806136945750600a8081111561361257613611614030565b5b600360008481526020019081526020016000206002016001600360008681526020019081526020016000206002018054905061364e9190614559565b8154811061365f5761365e61458d565b5b90600052602060002090602091828204019190069054906101000a900460ff16600a81111561369157613690614030565b5b14155b61369d57600080fd5b60006136ec8a8a8080601f016020809104026020016040519081016040528093929190818152602001838380828437600081840152601f19601f820116905080830192505050505050506137ce565b905080600360008381526020019081526020016000206000018190555060036000828152602001908152602001600020600201600190806001815401808255809150506001900390600052602060002090602091828204019190069091909190916101000a81548160ff0219169083600a81111561376d5761376c614030565b5b02179055503373ffffffffffffffffffffffffffffffffffffffff167f0a338d53f2364c56ade57292015e6d691e408e69261b6f1106d2dd2b5c8e92ac8b8b6040516137ba929190614655565b60405180910390a250505050505050505050565b60006002826040516020016137e39190614c5a565b6040516020818303038152906040526040516137ff9190614cb8565b602060405180830381855afa15801561381c573d6000803e3d6000fd5b5050506040513d601f19601f8201168201806040525081019061383f919061487e565b9050919050565b600080613854836005613aad565b15905080156138af576005600080600181111561387457613873614030565b5b600181111561388657613885614030565b5b8152602001908152602001600020546007600301546138a591906148ab565b6007600301819055505b80915050919050565b6000600454600760030154106138d0576004546138d7565b6007600301545b9050600160009054906101000a900473ffffffffffffffffffffffffffffffffffffffff1673ffffffffffffffffffffffffffffffffffffffff166108fc829081150290604051600060405180830381858888f19350505050158015613941573d6000803e3d6000fd5b50600160009054906101000a900473ffffffffffffffffffffffffffffffffffffffff1673ffffffffffffffffffffffffffffffffffffffff167f011f4c6b688aeffa862df56fd24d95c974bcf62e68e48229205331dc2a8651d8826040516139aa9190614ccf565b60405180910390a250565b60003073ffffffffffffffffffffffffffffffffffffffff16319050600260009054906101000a900473ffffffffffffffffffffffffffffffffffffffff1673ffffffffffffffffffffffffffffffffffffffff166108fc829081150290604051600060405180830381858888f19350505050158015613a39573d6000803e3d6000fd5b50600260009054906101000a900473ffffffffffffffffffffffffffffffffffffffff1673ffffffffffffffffffffffffffffffffffffffff167f31a37598b7a127e2695fe80a9408c25b99252b1aa1992aa9b56a2d7a8281bc8a82604051613aa29190614ccf565b60405180910390a250565b60008060008060009050600080600360008981526020019081526020016000206002018054905090505b6000811115613c475781158015613b64575086600a811115613afc57613afb614030565b5b600360008a8152602001908152602001600020600201600183613b1f9190614559565b81548110613b3057613b2f61458d565b5b90600052602060002090602091828204019190069054906101000a900460ff16600a811115613b6257613b61614030565b5b145b15613b8157600181613b769190614559565b935060019150613c20565b82158015613c0657506004600a811115613b9e57613b9d614030565b5b600360008a8152602001908152602001600020600201600183613bc19190614559565b81548110613bd257613bd161458d565b5b90600052602060002090602091828204019190069054906101000a900460ff16600a811115613c0457613c03614030565b5b145b15613c1f57600181613c189190614559565b9450600192505b5b818015613c2a5750825b15613c3457613c47565b8080613c3f90614cea565b915050613ad7565b50808015613c5457508383115b94505050505092915050565b828054613c6c90614780565b90600052602060002090601f016020900481019282613c8e5760008555613cd5565b82601f10613ca757803560ff1916838001178555613cd5565b82800160010185558215613cd5579182015b82811115613cd4578235825591602001919060010190613cb9565b5b509050613ce29190613ce6565b5090565b5b80821115613cff576000816000905550600101613ce7565b5090565b6000604051905090565b600080fd5b600080fd5b600080fd5b600080fd5b600080fd5b60008083601f840112613d3c57613d3b613d17565b5b8235905067ffffffffffffffff811115613d5957613d58613d1c565b5b602083019150836001820283011115613d7557613d74613d21565b5b9250929050565b60008060208385031215613d9357613d92613d0d565b5b600083013567ffffffffffffffff811115613db157613db0613d12565b5b613dbd85828601613d26565b92509250509250929050565b60008115159050919050565b613dde81613dc9565b8114613de957600080fd5b50565b600081359050613dfb81613dd5565b92915050565b600080600060408486031215613e1a57613e19613d0d565b5b600084013567ffffffffffffffff811115613e3857613e37613d12565b5b613e4486828701613d26565b93509350506020613e5786828701613dec565b9150509250925092565b600080fd5b6000601f19601f8301169050919050565b7f4e487b7100000000000000000000000000000000000000000000000000000000600052604160045260246000fd5b613eaf82613e66565b810181811067ffffffffffffffff82111715613ece57613ecd613e77565b5b80604052505050565b6000613ee1613d03565b9050613eed8282613ea6565b919050565b600067ffffffffffffffff821115613f0d57613f0c613e77565b5b613f1682613e66565b9050602081019050919050565b82818337600083830152505050565b6000613f45613f4084613ef2565b613ed7565b905082815260208101848484011115613f6157613f60613e61565b5b613f6c848285613f23565b509392505050565b600082601f830112613f8957613f88613d17565b5b8135613f99848260208601613f32565b91505092915050565b600060208284031215613fb857613fb7613d0d565b5b600082013567ffffffffffffffff811115613fd657613fd5613d12565b5b613fe284828501613f74565b91505092915050565b6000819050919050565b613ffe81613feb565b82525050565b600081519050919050565b600082825260208201905092915050565b6000819050602082019050919050565b7f4e487b7100000000000000000000000000000000000000000000000000000000600052602160045260246000fd5b600b81106140705761406f614030565b5b50565b60008190506140818261405f565b919050565b600061409182614073565b9050919050565b6140a181614086565b82525050565b60006140b38383614098565b60208301905092915050565b6000602082019050919050565b60006140d782614004565b6140e1818561400f565b93506140ec83614020565b8060005b8381101561411d57815161410488826140a7565b975061410f836140bf565b9250506001810190506140f0565b5085935050505092915050565b61413381613dc9565b82525050565b600081519050919050565b600082825260208201905092915050565b6000819050602082019050919050565b61416e81613feb565b82525050565b60006141808383614165565b60208301905092915050565b6000602082019050919050565b60006141a482614139565b6141ae8185614144565b93506141b983614155565b8060005b838110156141ea5781516141d18882614174565b97506141dc8361418c565b9250506001810190506141bd565b5085935050505092915050565b600081519050919050565b600082825260208201905092915050565b60005b83811015614231578082015181840152602081019050614216565b83811115614240576000848401525b50505050565b6000614251826141f7565b61425b8185614202565b935061426b818560208601614213565b61427481613e66565b840191505092915050565b600060a0820190506142946000830188613ff5565b81810360208301526142a681876140cc565b90506142b5604083018661412a565b81810360608301526142c78185614199565b905081810360808301526142db8184614246565b90509695505050505050565b6142f081613feb565b81146142fb57600080fd5b50565b60008135905061430d816142e7565b92915050565b60008060006040848603121561432c5761432b613d0d565b5b600084013567ffffffffffffffff81111561434a57614349613d12565b5b61435686828701613d26565b93509350506020614369868287016142fe565b9150509250925092565b6000806000806040858703121561438d5761438c613d0d565b5b600085013567ffffffffffffffff8111156143ab576143aa613d12565b5b6143b787828801613d26565b9450945050602085013567ffffffffffffffff8111156143da576143d9613d12565b5b6143e687828801613d26565b925092505092959194509250565b6000819050919050565b614407816143f4565b82525050565b6000608082019050614422600083018761412a565b61442f60208301866143fe565b61443c60408301856143fe565b61444960608301846143fe565b95945050505050565b7f4f6e6c79436c6f75640000000000000000000000000000000000000000000000600082015250565b6000614488600983614202565b915061449382614452565b602082019050919050565b600060208201905081810360008301526144b78161447b565b9050919050565b7f534c4156616c6964697479000000000000000000000000000000000000000000600082015250565b60006144f4600b83614202565b91506144ff826144be565b602082019050919050565b60006020820190508181036000830152614523816144e7565b9050919050565b7f4e487b7100000000000000000000000000000000000000000000000000000000600052601160045260246000fd5b6000614564826143f4565b915061456f836143f4565b9250828210156145825761458161452a565b5b828203905092915050565b7f4e487b7100000000000000000000000000000000000000000000000000000000600052603260045260246000fd5b7f46696c6553746174650000000000000000000000000000000000000000000000600082015250565b60006145f2600983614202565b91506145fd826145bc565b602082019050919050565b60006020820190508181036000830152614621816145e5565b9050919050565b60006146348385614202565b9350614641838584613f23565b61464a83613e66565b840190509392505050565b60006020820190508181036000830152614670818486614628565b90509392505050565b7f4f6e6c7955736572000000000000000000000000000000000000000000000000600082015250565b60006146af600883614202565b91506146ba82614679565b602082019050919050565b600060208201905081810360008301526146de816146a2565b9050919050565b7f46696c65496e4243000000000000000000000000000000000000000000000000600082015250565b600061471b600883614202565b9150614726826146e5565b602082019050919050565b6000602082019050818103600083015261474a8161470e565b9050919050565b7f4e487b7100000000000000000000000000000000000000000000000000000000600052602260045260246000fd5b6000600282049050600182168061479857607f821691505b602082108114156147ac576147ab614751565b5b50919050565b60008190508160005260206000209050919050565b600081546147d481614780565b6147de8186614202565b945060018216600081146147f9576001811461480b5761483e565b60ff198316865260208601935061483e565b614814856147b2565b60005b8381101561483657815481890152600182019150602081019050614817565b808801955050505b50505092915050565b6000602082019050818103600083015261486181846147c7565b905092915050565b600081519050614878816142e7565b92915050565b60006020828403121561489457614893613d0d565b5b60006148a284828501614869565b91505092915050565b60006148b6826143f4565b91506148c1836143f4565b9250827fffffffffffffffffffffffffffffffffffffffffffffffffffffffffffffffff038211156148f6576148f561452a565b5b828201905092915050565b6000604082019050818103600083015261491c818587614628565b905081810360208301526149308184614246565b9050949350505050565b60006040820190508181036000830152614955818587614628565b9050614964602083018461412a565b949350505050565b7f46696c654f6e436c6f7564000000000000000000000000000000000000000000600082015250565b60006149a2600b83614202565b91506149ad8261496c565b602082019050919050565b600060208201905081810360008301526149d181614995565b9050919050565b7f46696c654e6f744f6e436c6f7564000000000000000000000000000000000000600082015250565b6000614a0e600e83614202565b9150614a19826149d8565b602082019050919050565b60006020820190508181036000830152614a3d81614a01565b9050919050565b7f4f6e6c79557365724f72436c6f75640000000000000000000000000000000000600082015250565b6000614a7a600f83614202565b9150614a8582614a44565b602082019050919050565b60006020820190508181036000830152614aa981614a6d565b9050919050565b7f56616c6964697479506572696f64456e64656400000000000000000000000000600082015250565b6000614ae6601383614202565b9150614af182614ab0565b602082019050919050565b60006020820190508181036000830152614b1581614ad9565b9050919050565b60006040820190508181036000830152614b37818587614628565b9050614b466020830184613ff5565b949350505050565b60006040820190508181036000830152614b69818688614628565b90508181036020830152614b7e818486614628565b905095945050505050565b7f4163746976617461626c65000000000000000000000000000000000000000000600082015250565b6000614bbf600b83614202565b9150614bca82614b89565b602082019050919050565b60006020820190508181036000830152614bee81614bb2565b9050919050565b6000604082019050614c0a60008301856143fe565b614c1760208301846143fe565b9392505050565b600081905092915050565b6000614c34826141f7565b614c3e8185614c1e565b9350614c4e818560208601614213565b80840191505092915050565b6000614c668284614c29565b915081905092915050565b600081519050919050565b600081905092915050565b6000614c9282614c71565b614c9c8185614c7c565b9350614cac818560208601614213565b80840191505092915050565b6000614cc48284614c87565b915081905092915050565b6000602082019050614ce460008301846143fe565b92915050565b6000614cf5826143f4565b91506000821415614d0957614d0861452a565b5b60018203905091905056fe436c6f75642073686f756c6420686176652064656c65746564207468652066696c652062757420697420646964206e6f742ea2646970667358221220efc55c368a994dfbab236a9bf0f815c102db7490eb4d7fcd80da0b2b41712d2764736f6c63430008090033",
  "immutableReferences": {},
  "source": "// SPDX-License-Identifier: MIT\r\npragma solidity ^0.8.0;\r\npragma experimental ABIEncoderV2;\r\n\r\ncontract Factory{\r\n    mapping ( address => address ) private children; //from user to contract\r\n    address private cloud;\r\n\r\n    modifier OnlyCloud {require (msg.sender == cloud, \"OnlyCloud\"); _;}\r\n    modifier Exists (address user) { require (children[user] != address(0), \"Exists\"); _;}\r\n\r\n    event ChildCreated(address childAddress, address _user);\r\n\r\n    constructor(){\r\n        cloud = msg.sender;\r\n    }\r\n\r\n    function createChild(address _user, uint _price, uint _validityDuration, uint lostFileCredits, uint undeletedFileCredits) external OnlyCloud{\r\n       CloudSLA child = new CloudSLA(msg.sender, _user, _price,  _validityDuration, lostFileCredits, undeletedFileCredits);\r\n       children[_user] = address(child);\r\n       emit ChildCreated(address(child), _user);\r\n    }\r\n\r\n    function getSmartContractAddress(address user) external view Exists(user) returns(address){\r\n        return children[user];\r\n    }\r\n}\r\n\r\ncontract CloudSLA {\r\n    address private oracle = 0x9e699d6c7ccf183F0B09675A9E867d1486EEF85b;\r\n    address private user;\r\n    address private cloud;\r\n    \r\n    struct Period{\r\n        uint startTime;\r\n        uint endTime;\r\n    }\r\n    \r\n    enum Violation {lostFile, undeletedFile}\r\n    \r\n    struct Sla{\r\n        bool paid;\r\n        Period validityPeriod;\r\n        uint credits;\r\n    }\r\n    \r\n    enum State {defaultValue, uploadRequested, uploadRequestAck, uploadTransferAck, uploaded, \r\n                deleteRequested, deleted, readRequested, readRequestAck, readDeny, checkRequested}\r\n                \r\n    struct File {\r\n        bytes32 ID;         //hash of filepath\r\n        bool onCloud;\r\n        State[] states;   \r\n        bytes32[] digests;  //hashes of content\r\n        string url;         //last url\r\n    }\r\n    \r\n    mapping ( bytes32 => File ) private files;  \r\n    uint price;\r\n    mapping (Violation => uint) violationCredits;\r\n    uint validityDuration;\r\n    Sla private currentSLA;\r\n   \r\n    \r\n    function Hash(string memory str) private pure returns(bytes32){\r\n        return (sha256(abi.encodePacked(str)));\r\n    }\r\n    \r\n    modifier OnlyUser {require (msg.sender == user, \"OnlyUser\"); _;}\r\n    modifier OnlyCloud {require (msg.sender == cloud, \"OnlyCloud\"); _;}\r\n    modifier OnlyUserOrCloud{ require ((msg.sender == user || msg.sender == cloud), \"OnlyUserOrCloud\");  _;}\r\n    \r\n    modifier FileInBC (string memory filepath) {\r\n        bytes32 i = Hash(filepath);\r\n        require (i != 0x0 && files[i].ID != 0x0, \"FileInBC\");\r\n        _;\r\n    }\r\n    modifier FileOnCloud (string memory filepath, bool onCloud) {\r\n        bytes32 i = Hash(filepath);\r\n        bool inBC = files[i].ID != 0x0;\r\n        if (onCloud){\r\n            require (i != 0x0 && inBC && files[i].onCloud, \"FileOnCloud\");\r\n        }\r\n        else\r\n            require (! inBC ||  ! files[i].onCloud, \"FileNotOnCloud\");\r\n        _;\r\n    }\r\n\r\n    modifier NotBeingChecked(string memory filepath) {\r\n        bytes32 i = Hash(filepath);\r\n        bool inBC = files[i].ID != 0x0;\r\n        require (!inBC || (files[i].states[files[i].states.length - 1] != State.checkRequested));\r\n        _;\r\n    }\r\n\r\n    modifier FileState (string memory filepath, State prevState) {\r\n        bytes32 i = Hash(filepath);\r\n        bool inBC = files[i].ID != 0x0;\r\n        State lastState = files[i].states[files[i].states.length - 1];\r\n        require (i != 0x0 && inBC && lastState == prevState, \"FileState\");\r\n        _;\r\n    }\r\n    \r\n    modifier IsSLAValid(){\r\n        require(block.timestamp >= currentSLA.validityPeriod.startTime && block.timestamp <= currentSLA.validityPeriod.endTime, \r\n                \"SLAValidity\");\r\n        _;\r\n    }\r\n    \r\n    modifier Activatable(uint sentValue){\r\n        require(!currentSLA.paid && sentValue == price, \"Activatable\");\r\n        _;\r\n    }\r\n    \r\n    modifier ValidityPeriodEnded(){\r\n        require(block.timestamp >= currentSLA.validityPeriod.endTime, \r\n                \"ValidityPeriodEnded\");\r\n        _;\r\n    }\r\n    \r\n    event Paid(address indexed _from, uint endTime, uint depositedValue);\r\n    event CompensatedUser(address indexed _user, uint value);\r\n    event PaidCloudProvider(address indexed _cloud, uint value);\r\n    event UploadRequested(address indexed _from, string filepath);\r\n    event UploadRequestAcked(address indexed _from, string filepath);\r\n    event UploadTransferAcked(address indexed _from, string filepath, bytes32 digest);\r\n    event DeleteRequested(address indexed _from, string filepath);\r\n    event Deleted(address indexed _from, string filepath);\r\n    event ReadRequested(address indexed _from, string filepath);\r\n    event ReadRequestAcked(address indexed _from, string filepath, string url);\r\n    event ReadRequestDenied(address indexed _from, string filepath, bool lostFile);\r\n    event FileChecked(address indexed _from, string filepath, string msg);\r\n\r\n    constructor (address _cloud, address _user, uint _price, uint _validityDuration, uint lostFileCredits, uint undeletedFileCredits) {\r\n        cloud = _cloud;\r\n        user = _user;\r\n        price = _price;\r\n        validityDuration = _validityDuration;\r\n        violationCredits[Violation.lostFile] = lostFileCredits;\r\n        violationCredits[Violation.undeletedFile] = undeletedFileCredits;\r\n    }\r\n    \r\n    function Deposit() external payable OnlyUser Activatable(msg.value){\r\n        currentSLA.paid = true;\r\n        currentSLA.validityPeriod.startTime = block.timestamp;\r\n        currentSLA.validityPeriod.endTime =  block.timestamp + validityDuration;\r\n        emit Paid(msg.sender, currentSLA.validityPeriod.endTime, msg.value);\r\n    }\r\n    \r\n    function EndSla() external OnlyUserOrCloud ValidityPeriodEnded {\r\n        CompensateUser();\r\n        PayCloudProvider();\r\n        delete currentSLA;\r\n    }\r\n    \r\n    function CompensateUser() internal {\r\n        uint value = currentSLA.credits < price ? currentSLA.credits : price;\r\n        payable(user).transfer(value);\r\n        emit CompensatedUser(user, value);\r\n    }\r\n    \r\n    function PayCloudProvider() internal{\r\n        uint value = address(this).balance;\r\n        payable(cloud).transfer(value);\r\n        emit PaidCloudProvider(cloud, value);\r\n    }\r\n    \r\n    function UploadRequest(string calldata filepath) external OnlyUser IsSLAValid FileOnCloud(filepath, false) NotBeingChecked(filepath){\r\n        bytes32 i = Hash(filepath);\r\n        files[i].ID = i;\r\n        files[i].states.push(State.uploadRequested);\r\n        emit UploadRequested(msg.sender, filepath);\r\n    }\r\n    \r\n    function UploadRequestAck(string calldata filepath) external OnlyCloud IsSLAValid FileState(filepath, State.uploadRequested){\r\n        bytes32 i = Hash(filepath);\r\n        files[i].states.push(State.uploadRequestAck);\r\n        emit UploadRequestAcked(msg.sender, filepath);\r\n    }\r\n    \r\n    function UploadTransferAck(string calldata filepath, bytes32 digest) external OnlyCloud IsSLAValid FileState(filepath, State.uploadRequestAck){\r\n        bytes32 i = Hash(filepath);\r\n        files[i].states.push(State.uploadTransferAck);\r\n        files[i].digests.push(digest);\r\n        emit UploadTransferAcked(msg.sender, filepath, digest);\r\n    }\r\n    \r\n    function UploadConfirm(string calldata filepath, bool ack) external OnlyUser IsSLAValid FileState(filepath, State.uploadTransferAck){\r\n        bytes32 i = Hash(filepath);\r\n        if(ack){\r\n            files[i].states.push(State.uploaded); \r\n            files[i].onCloud = true;\r\n        }\r\n        else{\r\n            files[i].states.push(State.deleteRequested);\r\n            emit DeleteRequested(msg.sender, filepath);\r\n        }\r\n    }\r\n    \r\n    function DeleteRequest(string calldata filepath) external OnlyUser IsSLAValid FileOnCloud(filepath, true) NotBeingChecked(filepath){\r\n        bytes32 i = Hash(filepath);\r\n        files[i].states.push(State.deleteRequested);\r\n        emit DeleteRequested(msg.sender, filepath);\r\n    }\r\n    \r\n    function Delete(string calldata filepath) external OnlyCloud IsSLAValid FileState(filepath, State.deleteRequested){\r\n        bytes32 i = Hash(filepath);\r\n        files[i].states.push(State.deleted);\r\n        files[i].onCloud = false;\r\n        emit Deleted(msg.sender, filepath);\r\n    }\r\n    \r\n    function ReadRequest(string calldata filepath) external OnlyUser IsSLAValid FileOnCloud(filepath, true) NotBeingChecked(filepath){\r\n        bytes32 i = Hash(filepath);\r\n        files[i].states.push(State.readRequested);\r\n        emit ReadRequested(msg.sender, filepath);\r\n    }\r\n    \r\n    function ReadRequestAck(string calldata filepath, string calldata url) external OnlyCloud IsSLAValid FileState(filepath, State.readRequested){\r\n        bytes32 i = Hash(filepath);\r\n        files[i].states.push(State.readRequestAck);\r\n        files[i].url = url;\r\n        emit ReadRequestAcked(msg.sender, filepath, url);\r\n    }\r\n    \r\n    function ReadRequestDeny(string calldata filepath) external OnlyCloud IsSLAValid FileState(filepath, State.readRequested){\r\n        bytes32 i = Hash(filepath);\r\n        files[i].states.push(State.readDeny);\r\n        emit ReadRequestDenied(msg.sender, filepath, LostFileCheck(i));\r\n    }\r\n    \r\n    function LostFileCheck(bytes32 ID) internal returns(bool){\r\n        bool lostFile = !OperationAfterUpload(ID, State.deleteRequested);\r\n        if(lostFile){\r\n            currentSLA.credits = currentSLA.credits + violationCredits[Violation.lostFile];\r\n        }\r\n        return(lostFile);    \r\n    }\r\n    \r\n    function FileHashRequest(string calldata filepath) external OnlyUser IsSLAValid FileInBC(filepath){\r\n        bytes32 i = Hash(filepath);\r\n        FileDigestOracle(oracle).DigestRequest(files[i].url);\r\n        if(files[i].states[files[i].states.length - 1] != State.checkRequested)  \r\n            files[i].states.push(State.checkRequested);\r\n    }\r\n\r\n    function FileCheck(string calldata filepath) external OnlyUser IsSLAValid FileInBC(filepath) FileState(filepath, State.checkRequested){\r\n        bytes32 i = Hash(filepath);\r\n        bool intactOnCloud = (files[i].digests[files[i].digests.length - 1] == FileDigestOracle(oracle).DigestRetrieve(files[i].url)); \r\n        string memory res = \"No SLA violations.\";\r\n        \r\n        if(!files[i].onCloud && intactOnCloud) {\r\n            res = \"Cloud should have deleted the file but it did not.\";\r\n            currentSLA.credits = currentSLA.credits + violationCredits[Violation.undeletedFile];\r\n        }else if (files[i].onCloud && !intactOnCloud){\r\n            res = \"File has been corrupted.\";\r\n           currentSLA.credits = currentSLA.credits + violationCredits[Violation.lostFile];\r\n        }\r\n        //restore previous state\r\n        files[i].states.push(files[i].states[files[i].states.length - 2]);\r\n        emit FileChecked(msg.sender, filepath, res);\r\n    }\r\n    \r\n    //check if there is an operation after last upload\r\n    function OperationAfterUpload(bytes32 ID, State operation) internal view returns(bool){\r\n        //get index of last uploaded state and last deleted state if present\r\n        uint uploadedTime;\r\n        uint operationTime;\r\n        bool uploadedFound = false;\r\n        bool operationFound = false;\r\n        for (uint j = files[ID].states.length; j > 0; j--) {\r\n            if(!operationFound && files[ID].states[j-1] == operation){\r\n                operationTime = j-1;   \r\n                operationFound = true;\r\n            }\r\n            else if(!uploadedFound && files[ID].states[j-1] == State.uploaded){\r\n                uploadedTime= j-1;\r\n                uploadedFound = true;\r\n            }\r\n            //early exit\r\n            if(operationFound && uploadedFound)\r\n                break;\r\n        }\r\n        return(operationFound && operationTime > uploadedTime);\r\n    }\r\n    \r\n    function GetFile(string memory filepath) public view FileInBC(filepath) returns(bytes32, State [] memory, bool, bytes32 [] memory, string memory){\r\n        bytes32 i = Hash(filepath);\r\n        return (files[i].ID, files[i].states, files[i].onCloud, files[i].digests, files[i].url);\r\n    }\r\n    \r\n    function GetSLAInfo() public view returns(bool, uint, uint, uint){\r\n        return (currentSLA.paid, currentSLA.validityPeriod.startTime, currentSLA.validityPeriod.endTime, currentSLA.credits);\r\n    }\r\n}\r\n\r\ninterface FileDigestOracle {\r\n    function DigestRequest(string calldata url) external;\r\n    function DigestRetrieve(string calldata url) external view returns(bytes32);\r\n}",
  "sourcePath": "C:\\Users\\paola\\Desktop\\cloud-chain\\contracts\\CloudSLA.sol",
  "compiler": {
    "name": "solc",
    "version": "0.8.9+commit.e5eed63a.Emscripten.clang"
  },
  "schemaVersion": "3.4.3",
  "updatedAt": "2021-10-25T00:06:13.037Z",
  "devdoc": {
    "kind": "dev",
    "methods": {},
    "version": 1
  },
  "userdoc": {
    "kind": "user",
    "methods": {},
    "version": 1
  }
}