{
  "contractName": "CloudSLA",
  "abi": [
    {
      "inputs": [
        {
          "internalType": "address",
          "name": "_cloud",
          "type": "address"
        },
        {
          "internalType": "address",
          "name": "_user",
          "type": "address"
        },
        {
          "internalType": "uint256",
          "name": "_price",
          "type": "uint256"
        },
        {
          "internalType": "uint256",
          "name": "_validityDuration",
          "type": "uint256"
        },
        {
          "internalType": "uint256",
          "name": "lostFileCredits",
          "type": "uint256"
        },
        {
          "internalType": "uint256",
          "name": "undeletedFileCredits",
          "type": "uint256"
        }
      ],
      "stateMutability": "nonpayable",
      "type": "constructor"
    },
    {
      "anonymous": false,
      "inputs": [
        {
          "indexed": true,
          "internalType": "address",
          "name": "_user",
          "type": "address"
        },
        {
          "indexed": false,
          "internalType": "uint256",
          "name": "value",
          "type": "uint256"
        }
      ],
      "name": "CompensatedUser",
      "type": "event"
    },
    {
      "anonymous": false,
      "inputs": [
        {
          "indexed": true,
          "internalType": "address",
          "name": "_from",
          "type": "address"
        },
        {
          "indexed": false,
          "internalType": "string",
          "name": "filepath",
          "type": "string"
        }
      ],
      "name": "DeleteRequested",
      "type": "event"
    },
    {
      "anonymous": false,
      "inputs": [
        {
          "indexed": true,
          "internalType": "address",
          "name": "_from",
          "type": "address"
        },
        {
          "indexed": false,
          "internalType": "string",
          "name": "filepath",
          "type": "string"
        }
      ],
      "name": "Deleted",
      "type": "event"
    },
    {
      "anonymous": false,
      "inputs": [
        {
          "indexed": true,
          "internalType": "address",
          "name": "_from",
          "type": "address"
        },
        {
          "indexed": false,
          "internalType": "string",
          "name": "filepath",
          "type": "string"
        },
        {
          "indexed": false,
          "internalType": "string",
          "name": "msg",
          "type": "string"
        },
        {
          "indexed": false,
          "internalType": "uint256",
          "name": "credits",
          "type": "uint256"
        }
      ],
      "name": "FileChecked",
      "type": "event"
    },
    {
      "anonymous": false,
      "inputs": [
        {
          "indexed": true,
          "internalType": "address",
          "name": "_from",
          "type": "address"
        },
        {
          "indexed": false,
          "internalType": "uint256",
          "name": "endTime",
          "type": "uint256"
        }
      ],
      "name": "Paid",
      "type": "event"
    },
    {
      "anonymous": false,
      "inputs": [
        {
          "indexed": true,
          "internalType": "address",
          "name": "_cloud",
          "type": "address"
        },
        {
          "indexed": false,
          "internalType": "uint256",
          "name": "value",
          "type": "uint256"
        }
      ],
      "name": "PaidCloudProvider",
      "type": "event"
    },
    {
      "anonymous": false,
      "inputs": [
        {
          "indexed": true,
          "internalType": "address",
          "name": "_from",
          "type": "address"
        },
        {
          "indexed": false,
          "internalType": "string",
          "name": "filepath",
          "type": "string"
        },
        {
          "indexed": false,
          "internalType": "string",
          "name": "url",
          "type": "string"
        }
      ],
      "name": "ReadRequestAcked",
      "type": "event"
    },
    {
      "anonymous": false,
      "inputs": [
        {
          "indexed": true,
          "internalType": "address",
          "name": "_from",
          "type": "address"
        },
        {
          "indexed": false,
          "internalType": "string",
          "name": "filepath",
          "type": "string"
        },
        {
          "indexed": false,
          "internalType": "bool",
          "name": "lostFile",
          "type": "bool"
        },
        {
          "indexed": false,
          "internalType": "uint256",
          "name": "credits",
          "type": "uint256"
        }
      ],
      "name": "ReadRequestDenied",
      "type": "event"
    },
    {
      "anonymous": false,
      "inputs": [
        {
          "indexed": true,
          "internalType": "address",
          "name": "_from",
          "type": "address"
        },
        {
          "indexed": false,
          "internalType": "string",
          "name": "filepath",
          "type": "string"
        }
      ],
      "name": "ReadRequested",
      "type": "event"
    },
    {
      "anonymous": false,
      "inputs": [
        {
          "indexed": true,
          "internalType": "address",
          "name": "_from",
          "type": "address"
        },
        {
          "indexed": false,
          "internalType": "string",
          "name": "filepath",
          "type": "string"
        }
      ],
      "name": "UploadRequestAcked",
      "type": "event"
    },
    {
      "anonymous": false,
      "inputs": [
        {
          "indexed": true,
          "internalType": "address",
          "name": "_from",
          "type": "address"
        },
        {
          "indexed": false,
          "internalType": "string",
          "name": "filepath",
          "type": "string"
        }
      ],
      "name": "UploadRequested",
      "type": "event"
    },
    {
      "anonymous": false,
      "inputs": [
        {
          "indexed": true,
          "internalType": "address",
          "name": "_from",
          "type": "address"
        },
        {
          "indexed": false,
          "internalType": "string",
          "name": "filepath",
          "type": "string"
        },
        {
          "indexed": false,
          "internalType": "bytes32",
          "name": "digest",
          "type": "bytes32"
        }
      ],
      "name": "UploadTransferAcked",
      "type": "event"
    },
    {
      "inputs": [
        {
          "internalType": "bytes32",
          "name": "i",
          "type": "bytes32"
        }
      ],
      "name": "FileInBC",
      "outputs": [
        {
          "internalType": "bool",
          "name": "res",
          "type": "bool"
        }
      ],
      "stateMutability": "view",
      "type": "function"
    },
    {
      "inputs": [
        {
          "internalType": "bytes32",
          "name": "i",
          "type": "bytes32"
        }
      ],
      "name": "UrlPublished",
      "outputs": [
        {
          "internalType": "bool",
          "name": "res",
          "type": "bool"
        }
      ],
      "stateMutability": "view",
      "type": "function"
    },
    {
      "inputs": [
        {
          "internalType": "bytes32",
          "name": "i",
          "type": "bytes32"
        },
        {
          "internalType": "bool",
          "name": "onCloud",
          "type": "bool"
        }
      ],
      "name": "FileOnCloud",
      "outputs": [
        {
          "internalType": "bool",
          "name": "res",
          "type": "bool"
        }
      ],
      "stateMutability": "view",
      "type": "function"
    },
    {
      "inputs": [
        {
          "internalType": "bytes32",
          "name": "i",
          "type": "bytes32"
        }
      ],
      "name": "NotBeingChecked",
      "outputs": [
        {
          "internalType": "bool",
          "name": "res",
          "type": "bool"
        }
      ],
      "stateMutability": "view",
      "type": "function"
    },
    {
      "inputs": [
        {
          "internalType": "bytes32",
          "name": "i",
          "type": "bytes32"
        },
        {
          "internalType": "enum CloudSLA.State",
          "name": "prevState",
          "type": "uint8"
        }
      ],
      "name": "FileState",
      "outputs": [
        {
          "internalType": "bool",
          "name": "res",
          "type": "bool"
        }
      ],
      "stateMutability": "view",
      "type": "function"
    },
    {
      "inputs": [],
      "name": "Deposit",
      "outputs": [],
      "stateMutability": "payable",
      "type": "function"
    },
    {
      "inputs": [],
      "name": "EndSla",
      "outputs": [],
      "stateMutability": "nonpayable",
      "type": "function"
    },
    {
      "inputs": [
        {
          "internalType": "string",
          "name": "filepath",
          "type": "string"
        }
      ],
      "name": "UploadRequest",
      "outputs": [],
      "stateMutability": "nonpayable",
      "type": "function"
    },
    {
      "inputs": [
        {
          "internalType": "string",
          "name": "filepath",
          "type": "string"
        }
      ],
      "name": "UploadRequestAck",
      "outputs": [],
      "stateMutability": "nonpayable",
      "type": "function"
    },
    {
      "inputs": [
        {
          "internalType": "string",
          "name": "filepath",
          "type": "string"
        },
        {
          "internalType": "bytes32",
          "name": "digest",
          "type": "bytes32"
        }
      ],
      "name": "UploadTransferAck",
      "outputs": [],
      "stateMutability": "nonpayable",
      "type": "function"
    },
    {
      "inputs": [
        {
          "internalType": "string",
          "name": "filepath",
          "type": "string"
        },
        {
          "internalType": "bool",
          "name": "ack",
          "type": "bool"
        }
      ],
      "name": "UploadConfirm",
      "outputs": [],
      "stateMutability": "nonpayable",
      "type": "function"
    },
    {
      "inputs": [
        {
          "internalType": "string",
          "name": "filepath",
          "type": "string"
        }
      ],
      "name": "DeleteRequest",
      "outputs": [],
      "stateMutability": "nonpayable",
      "type": "function"
    },
    {
      "inputs": [
        {
          "internalType": "string",
          "name": "filepath",
          "type": "string"
        }
      ],
      "name": "Delete",
      "outputs": [],
      "stateMutability": "nonpayable",
      "type": "function"
    },
    {
      "inputs": [
        {
          "internalType": "string",
          "name": "filepath",
          "type": "string"
        }
      ],
      "name": "ReadRequest",
      "outputs": [],
      "stateMutability": "nonpayable",
      "type": "function"
    },
    {
      "inputs": [
        {
          "internalType": "string",
          "name": "filepath",
          "type": "string"
        },
        {
          "internalType": "string",
          "name": "url",
          "type": "string"
        }
      ],
      "name": "ReadRequestAck",
      "outputs": [],
      "stateMutability": "nonpayable",
      "type": "function"
    },
    {
      "inputs": [
        {
          "internalType": "string",
          "name": "filepath",
          "type": "string"
        }
      ],
      "name": "ReadRequestDeny",
      "outputs": [],
      "stateMutability": "nonpayable",
      "type": "function"
    },
    {
      "inputs": [
        {
          "internalType": "string",
          "name": "filepath",
          "type": "string"
        }
      ],
      "name": "FileHashRequest",
      "outputs": [],
      "stateMutability": "nonpayable",
      "type": "function"
    },
    {
      "inputs": [
        {
          "internalType": "string",
          "name": "filepath",
          "type": "string"
        }
      ],
      "name": "FileCheck",
      "outputs": [],
      "stateMutability": "nonpayable",
      "type": "function"
    },
    {
      "inputs": [
        {
          "internalType": "string",
          "name": "filepath",
          "type": "string"
        }
      ],
      "name": "GetFile",
      "outputs": [
        {
          "internalType": "bytes32",
          "name": "",
          "type": "bytes32"
        },
        {
          "internalType": "enum CloudSLA.State[]",
          "name": "",
          "type": "uint8[]"
        },
        {
          "internalType": "bool",
          "name": "",
          "type": "bool"
        },
        {
          "internalType": "bytes32[]",
          "name": "",
          "type": "bytes32[]"
        },
        {
          "internalType": "string",
          "name": "",
          "type": "string"
        }
      ],
      "stateMutability": "view",
      "type": "function"
    },
    {
      "inputs": [],
      "name": "GetSLAInfo",
      "outputs": [
        {
          "internalType": "bool",
          "name": "",
          "type": "bool"
        },
        {
          "internalType": "uint256",
          "name": "",
          "type": "uint256"
        },
        {
          "internalType": "uint256",
          "name": "",
          "type": "uint256"
        },
        {
          "internalType": "uint256",
          "name": "",
          "type": "uint256"
        }
      ],
      "stateMutability": "view",
      "type": "function"
    }
  ],
  "bytecode": "0x608060405273c0ed63e3a70bfcb003452b1cc083db822e1f23e16000806101000a81548173ffffffffffffffffffffffffffffffffffffffff021916908373ffffffffffffffffffffffffffffffffffffffff1602179055503480156200006557600080fd5b50604051620041e0380380620041e083398181016040528101906200008b919062000250565b85600260006101000a81548173ffffffffffffffffffffffffffffffffffffffff021916908373ffffffffffffffffffffffffffffffffffffffff16021790555084600160006101000a81548173ffffffffffffffffffffffffffffffffffffffff021916908373ffffffffffffffffffffffffffffffffffffffff16021790555083600481905550826006819055508160056000806001811115620001365762000135620002ec565b5b60018111156200014b576200014a620002ec565b5b8152602001908152602001600020819055508060056000600180811115620001785762000177620002ec565b5b60018111156200018d576200018c620002ec565b5b8152602001908152602001600020819055505050505050506200031b565b600080fd5b600073ffffffffffffffffffffffffffffffffffffffff82169050919050565b6000620001dd82620001b0565b9050919050565b620001ef81620001d0565b8114620001fb57600080fd5b50565b6000815190506200020f81620001e4565b92915050565b6000819050919050565b6200022a8162000215565b81146200023657600080fd5b50565b6000815190506200024a816200021f565b92915050565b60008060008060008060c0878903121562000270576200026f620001ab565b5b60006200028089828a01620001fe565b96505060206200029389828a01620001fe565b9550506040620002a689828a0162000239565b9450506060620002b989828a0162000239565b9350506080620002cc89828a0162000239565b92505060a0620002df89828a0162000239565b9150509295509295509295565b7f4e487b7100000000000000000000000000000000000000000000000000000000600052602160045260246000fd5b613eb5806200032b6000396000f3fe60806040526004361061013c576000357c0100000000000000000000000000000000000000000000000000000000900480637dc5f9a8116100bd578063d4e2ba0c11610081578063d4e2ba0c146103ef578063de6d15ce1461042c578063ecce9a2414610469578063ed21248c14610492578063faef41821461049c5761013c565b80637dc5f9a81461032f5780638991bdc91461034657806399bdcf211461036f578063c632e53614610398578063cb95a5bb146103c65761013c565b806345af1ea31161010457806345af1ea3146102265780634f10916e146102635780636815d5351461028c5780636d6cb605146102c957806373f9522e146102f25761013c565b80630bc12553146101415780630c5569be1461016a57806315f18596146101935780632d77e02c146101bc5780633f7f626e146101e5575b600080fd5b34801561014d57600080fd5b5061016860048036038101906101639190612f85565b6104c5565b005b34801561017657600080fd5b50610191600480360381019061018c9190612f85565b6106d7565b005b34801561019f57600080fd5b506101ba60048036038101906101b59190612f85565b610c44565b005b3480156101c857600080fd5b506101e360048036038101906101de919061300a565b610e67565b005b3480156101f157600080fd5b5061020c600480360381019061020791906131ab565b61111e565b60405161021d959493929190613488565b60405180910390f35b34801561023257600080fd5b5061024d6004803603810190610248919061351c565b61133c565b60405161025a919061355c565b60405180910390f35b34801561026f57600080fd5b5061028a60048036038101906102859190612f85565b6113e2565b005b34801561029857600080fd5b506102b360048036038101906102ae9190613577565b611623565b6040516102c0919061355c565b60405180910390f35b3480156102d557600080fd5b506102f060048036038101906102eb9190612f85565b611659565b005b3480156102fe57600080fd5b5061031960048036038101906103149190613577565b61187c565b604051610326919061355c565b60405180910390f35b34801561033b57600080fd5b50610344611944565b005b34801561035257600080fd5b5061036d600480360381019061036891906135a4565b611ac1565b005b34801561037b57600080fd5b5061039660048036038101906103919190613604565b611d13565b005b3480156103a457600080fd5b506103ad611f51565b6040516103bd949392919061369e565b60405180910390f35b3480156103d257600080fd5b506103ed60048036038101906103e89190612f85565b611f90565b005b3480156103fb57600080fd5b5061041660048036038101906104119190613708565b6121b3565b604051610423919061355c565b60405180910390f35b34801561043857600080fd5b50610453600480360381019061044e9190613577565b612291565b604051610460919061355c565b60405180910390f35b34801561047557600080fd5b50610490600480360381019061048b9190612f85565b6122f6565b005b61049a61260a565b005b3480156104a857600080fd5b506104c360048036038101906104be9190612f85565b612799565b005b600260009054906101000a900473ffffffffffffffffffffffffffffffffffffffff1673ffffffffffffffffffffffffffffffffffffffff163373ffffffffffffffffffffffffffffffffffffffff1614610555576040517f08c379a000000000000000000000000000000000000000000000000000000000815260040161054c90613794565b60405180910390fd5b600760010160000154421015801561057557506007600101600101544211155b6105b4576040517f08c379a00000000000000000000000000000000000000000000000000000000081526004016105ab90613800565b60405180910390fd5b600061060383838080601f016020809104026020016040519081016040528093929190818152602001838380828437600081840152601f19601f820116905080830192505050505050506129d7565b90506106108160016121b3565b61061957600080fd5b60036000828152602001908152602001600020600201600290806001815401808255809150506001900390600052602060002090602091828204019190069091909190916101000a81548160ff0219169083600a81111561067d5761067c613239565b5b02179055503373ffffffffffffffffffffffffffffffffffffffff167f0cdd49fa6677e6748e3e1adfa06f5190776179323cc7e22c98124b1a389b163984846040516106ca92919061384d565b60405180910390a2505050565b600160009054906101000a900473ffffffffffffffffffffffffffffffffffffffff1673ffffffffffffffffffffffffffffffffffffffff163373ffffffffffffffffffffffffffffffffffffffff1614610767576040517f08c379a000000000000000000000000000000000000000000000000000000000815260040161075e906138bd565b60405180910390fd5b600760010160000154421015801561078757506007600101600101544211155b6107c6576040517f08c379a00000000000000000000000000000000000000000000000000000000081526004016107bd90613800565b60405180910390fd5b600061081583838080601f016020809104026020016040519081016040528093929190818152602001838380828437600081840152601f19601f820116905080830192505050505050506129d7565b905061082081611623565b8015610833575061083281600a6121b3565b5b61083c57600080fd5b60008060009054906101000a900473ffffffffffffffffffffffffffffffffffffffff1673ffffffffffffffffffffffffffffffffffffffff166397307a8b600360008581526020019081526020016000206004016040518263ffffffff167c01000000000000000000000000000000000000000000000000000000000281526004016108c991906139d3565b60206040518083038186803b1580156108e157600080fd5b505afa1580156108f5573d6000803e3d6000fd5b505050506040513d601f19601f820116820180604052508101906109199190613a0a565b60036000848152602001908152602001600020600301600160036000868152602001908152602001600020600301805490506109559190613a66565b8154811061096657610965613a9a565b5b906000526020600020015414905060006040518060400160405280601281526020017f4e6f20534c412076696f6c6174696f6e732e000000000000000000000000000081525090506003600084815260200190815260200160002060010160009054906101000a900460ff161580156109dc5750815b15610a5257604051806060016040528060328152602001613e4e60329139905060056000600180811115610a1357610a12613239565b5b6001811115610a2557610a24613239565b5b815260200190815260200160002054600760030154610a449190613ac9565b600760030181905550610b10565b6003600084815260200190815260200160002060010160009054906101000a900460ff168015610a80575081155b15610b0f576040518060400160405280601881526020017f46696c6520686173206265656e20636f727275707465642e0000000000000000815250905060056000806001811115610ad457610ad3613239565b5b6001811115610ae657610ae5613239565b5b815260200190815260200160002054600760030154610b059190613ac9565b6007600301819055505b5b600360008481526020019081526020016000206002016003600085815260200190815260200160002060020160026003600087815260200190815260200160002060020180549050610b629190613a66565b81548110610b7357610b72613a9a565b5b90600052602060002090602091828204019190069054906101000a900460ff1690806001815401808255809150506001900390600052602060002090602091828204019190069091909190916101000a81548160ff0219169083600a811115610bdf57610bde613239565b5b02179055503373ffffffffffffffffffffffffffffffffffffffff167fdbb420a00576fdff9e639fd43b67c2e15c5e59221c70859bd7b04a0ce360abe0868684600760030154604051610c359493929190613b1f565b60405180910390a25050505050565b600260009054906101000a900473ffffffffffffffffffffffffffffffffffffffff1673ffffffffffffffffffffffffffffffffffffffff163373ffffffffffffffffffffffffffffffffffffffff1614610cd4576040517f08c379a0000000000000000000000000000000000000000000000000000000008152600401610ccb90613794565b60405180910390fd5b6007600101600001544210158015610cf457506007600101600101544211155b610d33576040517f08c379a0000000000000000000000000000000000000000000000000000000008152600401610d2a90613800565b60405180910390fd5b6000610d8283838080601f016020809104026020016040519081016040528093929190818152602001838380828437600081840152601f19601f820116905080830192505050505050506129d7565b9050610d8f8160076121b3565b610d9857600080fd5b60036000828152602001908152602001600020600201600990806001815401808255809150506001900390600052602060002090602091828204019190069091909190916101000a81548160ff0219169083600a811115610dfc57610dfb613239565b5b02179055503373ffffffffffffffffffffffffffffffffffffffff167fcb3c22ee2ed4ae842bad64667a31e7de4a9704bbce689926175cbd0e435307f88484610e4485612a4f565b600760030154604051610e5a9493929190613b66565b60405180910390a2505050565b600160009054906101000a900473ffffffffffffffffffffffffffffffffffffffff1673ffffffffffffffffffffffffffffffffffffffff163373ffffffffffffffffffffffffffffffffffffffff1614610ef7576040517f08c379a0000000000000000000000000000000000000000000000000000000008152600401610eee906138bd565b60405180910390fd5b6007600101600001544210158015610f1757506007600101600101544211155b610f56576040517f08c379a0000000000000000000000000000000000000000000000000000000008152600401610f4d90613800565b60405180910390fd5b6000610fa584848080601f016020809104026020016040519081016040528093929190818152602001838380828437600081840152601f19601f820116905080830192505050505050506129d7565b9050610fb28160036121b3565b610fbb57600080fd5b811561105e5760036000828152602001908152602001600020600201600490806001815401808255809150506001900390600052602060002090602091828204019190069091909190916101000a81548160ff0219169083600a81111561102557611024613239565b5b021790555060016003600083815260200190815260200160002060010160006101000a81548160ff021916908315150217905550611118565b60036000828152602001908152602001600020600201600590806001815401808255809150506001900390600052602060002090602091828204019190069091909190916101000a81548160ff0219169083600a8111156110c2576110c1613239565b5b02179055503373ffffffffffffffffffffffffffffffffffffffff167fa361c37b9b9279fb76c5b2f6766e0c6329c08bcca7bd57140b98e24f8f9dc369858560405161110f92919061384d565b60405180910390a25b50505050565b6000606060006060806000611132876129d7565b905061113d81611623565b61114657600080fd5b6003600082815260200190815260200160002060000154600360008381526020019081526020016000206002016003600084815260200190815260200160002060010160009054906101000a900460ff1660036000858152602001908152602001600020600301600360008681526020019081526020016000206004018380548060200260200160405190810160405280929190818152602001828054801561124357602002820191906000526020600020906000905b82829054906101000a900460ff16600a81111561121d5761121c613239565b5b815260200190600101906020826000010492830192600103820291508084116111fd5790505b505050505093508180548060200260200160405190810160405280929190818152602001828054801561129557602002820191906000526020600020905b815481526020019060010190808311611281575b505050505091508080546112a89061390c565b80601f01602080910402602001604051908101604052809291908181526020018280546112d49061390c565b80156113215780601f106112f657610100808354040283529160200191611321565b820191906000526020600020905b81548152906001019060200180831161130457829003601f168201915b50505050509050955095509550955095505091939590929450565b600080600060010260036000868152602001908152602001600020600001541415905082156113aa57600060010284141580156113765750805b80156113a257506003600085815260200190815260200160002060010160009054906101000a900460ff165b9150506113dc565b8015806113d857506003600085815260200190815260200160002060010160009054906101000a900460ff16155b9150505b92915050565b600260009054906101000a900473ffffffffffffffffffffffffffffffffffffffff1673ffffffffffffffffffffffffffffffffffffffff163373ffffffffffffffffffffffffffffffffffffffff1614611472576040517f08c379a000000000000000000000000000000000000000000000000000000000815260040161146990613794565b60405180910390fd5b600760010160000154421015801561149257506007600101600101544211155b6114d1576040517f08c379a00000000000000000000000000000000000000000000000000000000081526004016114c890613800565b60405180910390fd5b600061152083838080601f016020809104026020016040519081016040528093929190818152602001838380828437600081840152601f19601f820116905080830192505050505050506129d7565b905061152d8160056121b3565b61153657600080fd5b60036000828152602001908152602001600020600201600690806001815401808255809150506001900390600052602060002090602091828204019190069091909190916101000a81548160ff0219169083600a81111561159a57611599613239565b5b021790555060006003600083815260200190815260200160002060010160006101000a81548160ff0219169083151502179055503373ffffffffffffffffffffffffffffffffffffffff167fcf23c84b97507296743c82bc5af85b760c38e0602755fb48fe72f009b0f30f48848460405161161692919061384d565b60405180910390a2505050565b600080600102821415801561165257506000600102600360008481526020019081526020016000206000015414155b9050919050565b600160009054906101000a900473ffffffffffffffffffffffffffffffffffffffff1673ffffffffffffffffffffffffffffffffffffffff163373ffffffffffffffffffffffffffffffffffffffff16146116e9576040517f08c379a00000000000000000000000000000000000000000000000000000000081526004016116e0906138bd565b60405180910390fd5b600760010160000154421015801561170957506007600101600101544211155b611748576040517f08c379a000000000000000000000000000000000000000000000000000000000815260040161173f90613800565b60405180910390fd5b600061179783838080601f016020809104026020016040519081016040528093929190818152602001838380828437600081840152601f19601f820116905080830192505050505050506129d7565b90506117a481600161133c565b80156117b557506117b48161187c565b5b6117be57600080fd5b60036000828152602001908152602001600020600201600590806001815401808255809150506001900390600052602060002090602091828204019190069091909190916101000a81548160ff0219169083600a81111561182257611821613239565b5b02179055503373ffffffffffffffffffffffffffffffffffffffff167fa361c37b9b9279fb76c5b2f6766e0c6329c08bcca7bd57140b98e24f8f9dc369848460405161186f92919061384d565b60405180910390a2505050565b600080600060010260036000858152602001908152602001600020600001541415905080158061193c5750600a808111156118ba576118b9613239565b5b60036000858152602001908152602001600020600201600160036000878152602001908152602001600020600201805490506118f69190613a66565b8154811061190757611906613a9a565b5b90600052602060002090602091828204019190069054906101000a900460ff16600a81111561193957611938613239565b5b14155b915050919050565b600160009054906101000a900473ffffffffffffffffffffffffffffffffffffffff1673ffffffffffffffffffffffffffffffffffffffff163373ffffffffffffffffffffffffffffffffffffffff1614806119ed5750600260009054906101000a900473ffffffffffffffffffffffffffffffffffffffff1673ffffffffffffffffffffffffffffffffffffffff163373ffffffffffffffffffffffffffffffffffffffff16145b611a2c576040517f08c379a0000000000000000000000000000000000000000000000000000000008152600401611a2390613bf2565b60405180910390fd5b600760010160010154421015611a77576040517f08c379a0000000000000000000000000000000000000000000000000000000008152600401611a6e90613c5e565b60405180910390fd5b611a7f612ac1565b611a87612bbe565b6007600080820160006101000a81549060ff0219169055600182016000808201600090556001820160009055505060038201600090555050565b600260009054906101000a900473ffffffffffffffffffffffffffffffffffffffff1673ffffffffffffffffffffffffffffffffffffffff163373ffffffffffffffffffffffffffffffffffffffff1614611b51576040517f08c379a0000000000000000000000000000000000000000000000000000000008152600401611b4890613794565b60405180910390fd5b6007600101600001544210158015611b7157506007600101600101544211155b611bb0576040517f08c379a0000000000000000000000000000000000000000000000000000000008152600401611ba790613800565b60405180910390fd5b6000611bff84848080601f016020809104026020016040519081016040528093929190818152602001838380828437600081840152601f19601f820116905080830192505050505050506129d7565b9050611c0c8160026121b3565b611c1557600080fd5b60036000828152602001908152602001600020600201600390806001815401808255809150506001900390600052602060002090602091828204019190069091909190916101000a81548160ff0219169083600a811115611c7957611c78613239565b5b0217905550600360008281526020019081526020016000206003018290806001815401808255809150506001900390600052602060002001600090919091909150553373ffffffffffffffffffffffffffffffffffffffff167fd584ede0e1da1abff4dac6b0e56f891f2b01d81083c9d9699beacac28f446b14858585604051611d0593929190613c7e565b60405180910390a250505050565b600260009054906101000a900473ffffffffffffffffffffffffffffffffffffffff1673ffffffffffffffffffffffffffffffffffffffff163373ffffffffffffffffffffffffffffffffffffffff1614611da3576040517f08c379a0000000000000000000000000000000000000000000000000000000008152600401611d9a90613794565b60405180910390fd5b6007600101600001544210158015611dc357506007600101600101544211155b611e02576040517f08c379a0000000000000000000000000000000000000000000000000000000008152600401611df990613800565b60405180910390fd5b6000611e5185858080601f016020809104026020016040519081016040528093929190818152602001838380828437600081840152601f19601f820116905080830192505050505050506129d7565b9050611e5e8160076121b3565b611e6757600080fd5b60036000828152602001908152602001600020600201600890806001815401808255809150506001900390600052602060002090602091828204019190069091909190916101000a81548160ff0219169083600a811115611ecb57611eca613239565b5b02179055508282600360008481526020019081526020016000206004019190611ef5929190612e69565b503373ffffffffffffffffffffffffffffffffffffffff167f287a137e6d755097d78d1cb8fd52fec9af76644de921def1f86c108a4e6b18f286868686604051611f429493929190613cb0565b60405180910390a25050505050565b600080600080600760000160009054906101000a900460ff16600760010160000154600760010160010154600760030154935093509350935090919293565b600160009054906101000a900473ffffffffffffffffffffffffffffffffffffffff1673ffffffffffffffffffffffffffffffffffffffff163373ffffffffffffffffffffffffffffffffffffffff1614612020576040517f08c379a0000000000000000000000000000000000000000000000000000000008152600401612017906138bd565b60405180910390fd5b600760010160000154421015801561204057506007600101600101544211155b61207f576040517f08c379a000000000000000000000000000000000000000000000000000000000815260040161207690613800565b60405180910390fd5b60006120ce83838080601f016020809104026020016040519081016040528093929190818152602001838380828437600081840152601f19601f820116905080830192505050505050506129d7565b90506120db81600161133c565b80156120ec57506120eb8161187c565b5b6120f557600080fd5b60036000828152602001908152602001600020600201600790806001815401808255809150506001900390600052602060002090602091828204019190069091909190916101000a81548160ff0219169083600a81111561215957612158613239565b5b02179055503373ffffffffffffffffffffffffffffffffffffffff167faae6d576c29601c16cbc3bced4dafc70f0abfef5177650d5853efbec130759dd84846040516121a692919061384d565b60405180910390a2505050565b6000806000600102600360008681526020019081526020016000206000015414159050600060036000868152602001908152602001600020600201600160036000888152602001908152602001600020600201805490506122149190613a66565b8154811061222557612224613a9a565b5b90600052602060002090602091828204019190069054906101000a900460ff169050600060010285141580156122585750815b8015612287575083600a81111561227257612271613239565b5b81600a81111561228557612284613239565b5b145b9250505092915050565b60008060010282141580156122c057506000600102600360008481526020019081526020016000206000015414155b80156122ef575060006003600084815260200190815260200160002060040180546122ea9061390c565b905014155b9050919050565b600160009054906101000a900473ffffffffffffffffffffffffffffffffffffffff1673ffffffffffffffffffffffffffffffffffffffff163373ffffffffffffffffffffffffffffffffffffffff1614612386576040517f08c379a000000000000000000000000000000000000000000000000000000000815260040161237d906138bd565b60405180910390fd5b60076001016000015442101580156123a657506007600101600101544211155b6123e5576040517f08c379a00000000000000000000000000000000000000000000000000000000081526004016123dc90613800565b60405180910390fd5b600061243483838080601f016020809104026020016040519081016040528093929190818152602001838380828437600081840152601f19601f820116905080830192505050505050506129d7565b905061243f81612291565b61244857600080fd5b60008054906101000a900473ffffffffffffffffffffffffffffffffffffffff1673ffffffffffffffffffffffffffffffffffffffff1663757bec56600360008481526020019081526020016000206004016040518263ffffffff167c01000000000000000000000000000000000000000000000000000000000281526004016124d291906139d3565b600060405180830381600087803b1580156124ec57600080fd5b505af1158015612500573d6000803e3d6000fd5b50505050600a8081111561251757612516613239565b5b60036000838152602001908152602001600020600201600160036000858152602001908152602001600020600201805490506125539190613a66565b8154811061256457612563613a9a565b5b90600052602060002090602091828204019190069054906101000a900460ff16600a81111561259657612595613239565b5b146126055760036000828152602001908152602001600020600201600a90806001815401808255809150506001900390600052602060002090602091828204019190069091909190916101000a81548160ff0219169083600a8111156125ff576125fe613239565b5b02179055505b505050565b600160009054906101000a900473ffffffffffffffffffffffffffffffffffffffff1673ffffffffffffffffffffffffffffffffffffffff163373ffffffffffffffffffffffffffffffffffffffff161461269a576040517f08c379a0000000000000000000000000000000000000000000000000000000008152600401612691906138bd565b60405180910390fd5b34600760000160009054906101000a900460ff161580156126bc575060045481145b6126fb576040517f08c379a00000000000000000000000000000000000000000000000000000000081526004016126f290613d37565b60405180910390fd5b6001600760000160006101000a81548160ff02191690831515021790555042600760010160000181905550600654426127349190613ac9565b6007600101600101819055503373ffffffffffffffffffffffffffffffffffffffff167f737c69225d647e5994eab1a6c301bf6d9232beb2759ae1e27a8966b4732bc48960076001016001015460405161278e9190613d57565b60405180910390a250565b600160009054906101000a900473ffffffffffffffffffffffffffffffffffffffff1673ffffffffffffffffffffffffffffffffffffffff163373ffffffffffffffffffffffffffffffffffffffff1614612829576040517f08c379a0000000000000000000000000000000000000000000000000000000008152600401612820906138bd565b60405180910390fd5b600760010160000154421015801561284957506007600101600101544211155b612888576040517f08c379a000000000000000000000000000000000000000000000000000000000815260040161287f90613800565b60405180910390fd5b60006128d783838080601f016020809104026020016040519081016040528093929190818152602001838380828437600081840152601f19601f820116905080830192505050505050506129d7565b90506128e481600061133c565b80156128f557506128f48161187c565b5b6128fe57600080fd5b80600360008381526020019081526020016000206000018190555060036000828152602001908152602001600020600201600190806001815401808255809150506001900390600052602060002090602091828204019190069091909190916101000a81548160ff0219169083600a81111561297d5761297c613239565b5b02179055503373ffffffffffffffffffffffffffffffffffffffff167f0a338d53f2364c56ade57292015e6d691e408e69261b6f1106d2dd2b5c8e92ac84846040516129ca92919061384d565b60405180910390a2505050565b60006002826040516020016129ec9190613dae565b604051602081830303815290604052604051612a089190613e0c565b602060405180830381855afa158015612a25573d6000803e3d6000fd5b5050506040513d601f19601f82011682018060405250810190612a489190613a0a565b9050919050565b600080612a5d836005612cb6565b1590508015612ab85760056000806001811115612a7d57612a7c613239565b5b6001811115612a8f57612a8e613239565b5b815260200190815260200160002054600760030154612aae9190613ac9565b6007600301819055505b80915050919050565b600060045460076003015410612ad957600454612ae0565b6007600301545b9050600160009054906101000a900473ffffffffffffffffffffffffffffffffffffffff1673ffffffffffffffffffffffffffffffffffffffff166108fc829081150290604051600060405180830381858888f19350505050158015612b4a573d6000803e3d6000fd5b50600160009054906101000a900473ffffffffffffffffffffffffffffffffffffffff1673ffffffffffffffffffffffffffffffffffffffff167f011f4c6b688aeffa862df56fd24d95c974bcf62e68e48229205331dc2a8651d882604051612bb39190613d57565b60405180910390a250565b60003073ffffffffffffffffffffffffffffffffffffffff16319050600260009054906101000a900473ffffffffffffffffffffffffffffffffffffffff1673ffffffffffffffffffffffffffffffffffffffff166108fc829081150290604051600060405180830381858888f19350505050158015612c42573d6000803e3d6000fd5b50600260009054906101000a900473ffffffffffffffffffffffffffffffffffffffff1673ffffffffffffffffffffffffffffffffffffffff167f31a37598b7a127e2695fe80a9408c25b99252b1aa1992aa9b56a2d7a8281bc8a82604051612cab9190613d57565b60405180910390a250565b60008060008060009050600080600360008981526020019081526020016000206002018054905090505b6000811115612e505781158015612d6d575086600a811115612d0557612d04613239565b5b600360008a8152602001908152602001600020600201600183612d289190613a66565b81548110612d3957612d38613a9a565b5b90600052602060002090602091828204019190069054906101000a900460ff16600a811115612d6b57612d6a613239565b5b145b15612d8a57600181612d7f9190613a66565b935060019150612e29565b82158015612e0f57506004600a811115612da757612da6613239565b5b600360008a8152602001908152602001600020600201600183612dca9190613a66565b81548110612ddb57612dda613a9a565b5b90600052602060002090602091828204019190069054906101000a900460ff16600a811115612e0d57612e0c613239565b5b145b15612e2857600181612e219190613a66565b9450600192505b5b818015612e335750825b15612e3d57612e50565b8080612e4890613e23565b915050612ce0565b50808015612e5d57508383115b94505050505092915050565b828054612e759061390c565b90600052602060002090601f016020900481019282612e975760008555612ede565b82601f10612eb057803560ff1916838001178555612ede565b82800160010185558215612ede579182015b82811115612edd578235825591602001919060010190612ec2565b5b509050612eeb9190612eef565b5090565b5b80821115612f08576000816000905550600101612ef0565b5090565b6000604051905090565b600080fd5b600080fd5b600080fd5b600080fd5b600080fd5b60008083601f840112612f4557612f44612f20565b5b8235905067ffffffffffffffff811115612f6257612f61612f25565b5b602083019150836001820283011115612f7e57612f7d612f2a565b5b9250929050565b60008060208385031215612f9c57612f9b612f16565b5b600083013567ffffffffffffffff811115612fba57612fb9612f1b565b5b612fc685828601612f2f565b92509250509250929050565b60008115159050919050565b612fe781612fd2565b8114612ff257600080fd5b50565b60008135905061300481612fde565b92915050565b60008060006040848603121561302357613022612f16565b5b600084013567ffffffffffffffff81111561304157613040612f1b565b5b61304d86828701612f2f565b9350935050602061306086828701612ff5565b9150509250925092565b600080fd5b6000601f19601f8301169050919050565b7f4e487b7100000000000000000000000000000000000000000000000000000000600052604160045260246000fd5b6130b88261306f565b810181811067ffffffffffffffff821117156130d7576130d6613080565b5b80604052505050565b60006130ea612f0c565b90506130f682826130af565b919050565b600067ffffffffffffffff82111561311657613115613080565b5b61311f8261306f565b9050602081019050919050565b82818337600083830152505050565b600061314e613149846130fb565b6130e0565b90508281526020810184848401111561316a5761316961306a565b5b61317584828561312c565b509392505050565b600082601f83011261319257613191612f20565b5b81356131a284826020860161313b565b91505092915050565b6000602082840312156131c1576131c0612f16565b5b600082013567ffffffffffffffff8111156131df576131de612f1b565b5b6131eb8482850161317d565b91505092915050565b6000819050919050565b613207816131f4565b82525050565b600081519050919050565b600082825260208201905092915050565b6000819050602082019050919050565b7f4e487b7100000000000000000000000000000000000000000000000000000000600052602160045260246000fd5b600b811061327957613278613239565b5b50565b600081905061328a82613268565b919050565b600061329a8261327c565b9050919050565b6132aa8161328f565b82525050565b60006132bc83836132a1565b60208301905092915050565b6000602082019050919050565b60006132e08261320d565b6132ea8185613218565b93506132f583613229565b8060005b8381101561332657815161330d88826132b0565b9750613318836132c8565b9250506001810190506132f9565b5085935050505092915050565b61333c81612fd2565b82525050565b600081519050919050565b600082825260208201905092915050565b6000819050602082019050919050565b613377816131f4565b82525050565b6000613389838361336e565b60208301905092915050565b6000602082019050919050565b60006133ad82613342565b6133b7818561334d565b93506133c28361335e565b8060005b838110156133f35781516133da888261337d565b97506133e583613395565b9250506001810190506133c6565b5085935050505092915050565b600081519050919050565b600082825260208201905092915050565b60005b8381101561343a57808201518184015260208101905061341f565b83811115613449576000848401525b50505050565b600061345a82613400565b613464818561340b565b935061347481856020860161341c565b61347d8161306f565b840191505092915050565b600060a08201905061349d60008301886131fe565b81810360208301526134af81876132d5565b90506134be6040830186613333565b81810360608301526134d081856133a2565b905081810360808301526134e4818461344f565b90509695505050505050565b6134f9816131f4565b811461350457600080fd5b50565b600081359050613516816134f0565b92915050565b6000806040838503121561353357613532612f16565b5b600061354185828601613507565b925050602061355285828601612ff5565b9150509250929050565b60006020820190506135716000830184613333565b92915050565b60006020828403121561358d5761358c612f16565b5b600061359b84828501613507565b91505092915050565b6000806000604084860312156135bd576135bc612f16565b5b600084013567ffffffffffffffff8111156135db576135da612f1b565b5b6135e786828701612f2f565b935093505060206135fa86828701613507565b9150509250925092565b6000806000806040858703121561361e5761361d612f16565b5b600085013567ffffffffffffffff81111561363c5761363b612f1b565b5b61364887828801612f2f565b9450945050602085013567ffffffffffffffff81111561366b5761366a612f1b565b5b61367787828801612f2f565b925092505092959194509250565b6000819050919050565b61369881613685565b82525050565b60006080820190506136b36000830187613333565b6136c0602083018661368f565b6136cd604083018561368f565b6136da606083018461368f565b95945050505050565b600b81106136f057600080fd5b50565b600081359050613702816136e3565b92915050565b6000806040838503121561371f5761371e612f16565b5b600061372d85828601613507565b925050602061373e858286016136f3565b9150509250929050565b7f4f6e6c79436c6f75640000000000000000000000000000000000000000000000600082015250565b600061377e60098361340b565b915061378982613748565b602082019050919050565b600060208201905081810360008301526137ad81613771565b9050919050565b7f534c4156616c6964697479000000000000000000000000000000000000000000600082015250565b60006137ea600b8361340b565b91506137f5826137b4565b602082019050919050565b60006020820190508181036000830152613819816137dd565b9050919050565b600061382c838561340b565b935061383983858461312c565b6138428361306f565b840190509392505050565b60006020820190508181036000830152613868818486613820565b90509392505050565b7f4f6e6c7955736572000000000000000000000000000000000000000000000000600082015250565b60006138a760088361340b565b91506138b282613871565b602082019050919050565b600060208201905081810360008301526138d68161389a565b9050919050565b7f4e487b7100000000000000000000000000000000000000000000000000000000600052602260045260246000fd5b6000600282049050600182168061392457607f821691505b60208210811415613938576139376138dd565b5b50919050565b60008190508160005260206000209050919050565b600081546139608161390c565b61396a818661340b565b945060018216600081146139855760018114613997576139ca565b60ff19831686526020860193506139ca565b6139a08561393e565b60005b838110156139c2578154818901526001820191506020810190506139a3565b808801955050505b50505092915050565b600060208201905081810360008301526139ed8184613953565b905092915050565b600081519050613a04816134f0565b92915050565b600060208284031215613a2057613a1f612f16565b5b6000613a2e848285016139f5565b91505092915050565b7f4e487b7100000000000000000000000000000000000000000000000000000000600052601160045260246000fd5b6000613a7182613685565b9150613a7c83613685565b925082821015613a8f57613a8e613a37565b5b828203905092915050565b7f4e487b7100000000000000000000000000000000000000000000000000000000600052603260045260246000fd5b6000613ad482613685565b9150613adf83613685565b9250827fffffffffffffffffffffffffffffffffffffffffffffffffffffffffffffffff03821115613b1457613b13613a37565b5b828201905092915050565b60006060820190508181036000830152613b3a818688613820565b90508181036020830152613b4e818561344f565b9050613b5d604083018461368f565b95945050505050565b60006060820190508181036000830152613b81818688613820565b9050613b906020830185613333565b613b9d604083018461368f565b95945050505050565b7f4f6e6c79557365724f72436c6f75640000000000000000000000000000000000600082015250565b6000613bdc600f8361340b565b9150613be782613ba6565b602082019050919050565b60006020820190508181036000830152613c0b81613bcf565b9050919050565b7f56616c6964697479506572696f64456e64656400000000000000000000000000600082015250565b6000613c4860138361340b565b9150613c5382613c12565b602082019050919050565b60006020820190508181036000830152613c7781613c3b565b9050919050565b60006040820190508181036000830152613c99818587613820565b9050613ca860208301846131fe565b949350505050565b60006040820190508181036000830152613ccb818688613820565b90508181036020830152613ce0818486613820565b905095945050505050565b7f4163746976617461626c65000000000000000000000000000000000000000000600082015250565b6000613d21600b8361340b565b9150613d2c82613ceb565b602082019050919050565b60006020820190508181036000830152613d5081613d14565b9050919050565b6000602082019050613d6c600083018461368f565b92915050565b600081905092915050565b6000613d8882613400565b613d928185613d72565b9350613da281856020860161341c565b80840191505092915050565b6000613dba8284613d7d565b915081905092915050565b600081519050919050565b600081905092915050565b6000613de682613dc5565b613df08185613dd0565b9350613e0081856020860161341c565b80840191505092915050565b6000613e188284613ddb565b915081905092915050565b6000613e2e82613685565b91506000821415613e4257613e41613a37565b5b60018203905091905056fe436c6f75642073686f756c6420686176652064656c65746564207468652066696c652062757420697420646964206e6f742ea26469706673582212201687fc9d65731065f17b115fcb7b3b7ef2efd4a9ed90567a296a5887a32df77664736f6c63430008090033",
  "immutableReferences": {},
  "source": "// SPDX-License-Identifier: MIT\r\npragma solidity ^0.8.0;\r\npragma experimental ABIEncoderV2;\r\n\r\ncontract Factory{\r\n    mapping ( address => address ) private children; //from user to contract\r\n    address private cloud;\r\n\r\n    modifier OnlyCloud {require (msg.sender == cloud, \"OnlyCloud\"); _;}\r\n    modifier Exists (address user) { require (children[user] != address(0), \"Exists\"); _;}\r\n\r\n    event ChildCreated(address childAddress, address _user);\r\n\r\n    constructor(){\r\n        cloud = msg.sender;\r\n    }\r\n\r\n    function createChild(address _user, uint _price, uint _validityDuration, uint lostFileCredits, uint undeletedFileCredits) external OnlyCloud{\r\n       CloudSLA child = new CloudSLA(msg.sender, _user, _price,  _validityDuration, lostFileCredits, undeletedFileCredits);\r\n       children[_user] = address(child);\r\n       emit ChildCreated(address(child), _user);\r\n    }\r\n\r\n    function getSmartContractAddress(address user) external view Exists(user) returns(address){\r\n        return children[user];\r\n    }\r\n}\r\n\r\ncontract CloudSLA {\r\n    address private oracle = 0xc0ED63E3A70BfCB003452B1Cc083db822e1f23e1;\r\n    address private user;\r\n    address private cloud;\r\n    \r\n    struct Period{\r\n        uint startTime;\r\n        uint endTime;\r\n    }\r\n    \r\n    enum Violation {lostFile, undeletedFile}\r\n    \r\n    struct Sla{\r\n        bool paid;\r\n        Period validityPeriod;\r\n        uint credits;\r\n    }\r\n    \r\n    enum State {defaultValue, uploadRequested, uploadRequestAck, uploadTransferAck, uploaded, \r\n                deleteRequested, deleted, readRequested, readRequestAck, readDeny, checkRequested}\r\n                \r\n    struct File {\r\n        bytes32 ID;         //hash of filepath\r\n        bool onCloud;\r\n        State[] states;   \r\n        bytes32[] digests;  //hashes of content\r\n        string url;         //last url\r\n    }\r\n    \r\n    mapping ( bytes32 => File ) private files;  \r\n    uint price;\r\n    mapping (Violation => uint) violationCredits;\r\n    uint validityDuration;\r\n    Sla private currentSLA;\r\n   \r\n    \r\n    function Hash(string memory str) private pure returns(bytes32){\r\n        return (sha256(abi.encodePacked(str)));\r\n    }\r\n    \r\n    modifier OnlyUser {require (msg.sender == user, \"OnlyUser\"); _;}\r\n    modifier OnlyCloud {require (msg.sender == cloud, \"OnlyCloud\"); _;}\r\n    modifier OnlyUserOrCloud{ require ((msg.sender == user || msg.sender == cloud), \"OnlyUserOrCloud\");  _;}\r\n\r\n    function FileInBC(bytes32 i) public view returns(bool res) {\r\n        return (i != 0x0 && files[i].ID != 0x0);\r\n    }\r\n\r\n    function UrlPublished(bytes32 i) public view returns(bool res) {\r\n        return (i != 0x0 && files[i].ID != 0x0 && bytes(files[i].url).length != 0);\r\n    }\r\n\r\n    function FileOnCloud(bytes32 i, bool onCloud) public view returns(bool res) {\r\n        bool inBC = files[i].ID != 0x0;\r\n        if (onCloud)\r\n            return (i != 0x0 && inBC && files[i].onCloud);\r\n        else\r\n            return (! inBC ||  ! files[i].onCloud);\r\n    }\r\n    \r\n\r\n    function NotBeingChecked(bytes32 i) public view returns(bool res) {\r\n        bool inBC = files[i].ID != 0x0;\r\n        return (!inBC || (files[i].states[files[i].states.length - 1] != State.checkRequested));\r\n    }\r\n\r\n    function FileState(bytes32 i, State prevState) public view returns(bool res) {\r\n        bool inBC = files[i].ID != 0x0;\r\n        State lastState = files[i].states[files[i].states.length - 1];\r\n        return (i != 0x0 && inBC && lastState == prevState);\r\n    }\r\n    \r\n    modifier IsSLAValid(){\r\n        require(block.timestamp >= currentSLA.validityPeriod.startTime && block.timestamp <= currentSLA.validityPeriod.endTime, \r\n                \"SLAValidity\");\r\n        _;\r\n    }\r\n    \r\n    modifier Activatable(uint sentValue){\r\n        require(!currentSLA.paid && sentValue == price, \"Activatable\");\r\n        _;\r\n    }\r\n    \r\n    modifier ValidityPeriodEnded(){\r\n        require(block.timestamp >= currentSLA.validityPeriod.endTime, \r\n                \"ValidityPeriodEnded\");\r\n        _;\r\n    }\r\n    \r\n    event Paid(address indexed _from, uint endTime);\r\n    event CompensatedUser(address indexed _user, uint value);\r\n    event PaidCloudProvider(address indexed _cloud, uint value);\r\n    event UploadRequested(address indexed _from, string filepath);\r\n    event UploadRequestAcked(address indexed _from, string filepath);\r\n    event UploadTransferAcked(address indexed _from, string filepath, bytes32 digest);\r\n    event DeleteRequested(address indexed _from, string filepath);\r\n    event Deleted(address indexed _from, string filepath);\r\n    event ReadRequested(address indexed _from, string filepath);\r\n    event ReadRequestAcked(address indexed _from, string filepath, string url);\r\n    event ReadRequestDenied(address indexed _from, string filepath, bool lostFile, uint credits);\r\n    event FileChecked(address indexed _from, string filepath, string msg, uint credits);\r\n\r\n    constructor (address _cloud, address _user, uint _price, uint _validityDuration, uint lostFileCredits, uint undeletedFileCredits) {\r\n        cloud = _cloud;\r\n        user = _user;\r\n        price = _price;\r\n        validityDuration = _validityDuration;\r\n        violationCredits[Violation.lostFile] = lostFileCredits;\r\n        violationCredits[Violation.undeletedFile] = undeletedFileCredits;\r\n    }\r\n    \r\n    function Deposit() external payable OnlyUser Activatable(msg.value){\r\n        currentSLA.paid = true;\r\n        currentSLA.validityPeriod.startTime = block.timestamp;\r\n        currentSLA.validityPeriod.endTime =  block.timestamp + validityDuration;\r\n        emit Paid(msg.sender, currentSLA.validityPeriod.endTime);\r\n    }\r\n    \r\n    function EndSla() external OnlyUserOrCloud ValidityPeriodEnded {\r\n        CompensateUser();\r\n        PayCloudProvider();\r\n        delete currentSLA;\r\n    }\r\n    \r\n    function CompensateUser() internal {\r\n        uint value = currentSLA.credits < price ? currentSLA.credits : price;\r\n        payable(user).transfer(value);\r\n        emit CompensatedUser(user, value);\r\n    }\r\n    \r\n    function PayCloudProvider() internal{\r\n        uint value = address(this).balance;\r\n        payable(cloud).transfer(value);\r\n        emit PaidCloudProvider(cloud, value);\r\n    }\r\n    \r\n    function UploadRequest(string calldata filepath) external OnlyUser IsSLAValid{\r\n        bytes32 i = Hash(filepath);\r\n        require(FileOnCloud(i, false) && NotBeingChecked(i));\r\n        files[i].ID = i;\r\n        files[i].states.push(State.uploadRequested);\r\n        emit UploadRequested(msg.sender, filepath);\r\n    }\r\n    \r\n    function UploadRequestAck(string calldata filepath) external OnlyCloud IsSLAValid{\r\n        bytes32 i = Hash(filepath);\r\n        require(FileState(i, State.uploadRequested));\r\n        files[i].states.push(State.uploadRequestAck);\r\n        emit UploadRequestAcked(msg.sender, filepath);\r\n    }\r\n    \r\n    function UploadTransferAck(string calldata filepath, bytes32 digest) external OnlyCloud IsSLAValid{\r\n        bytes32 i = Hash(filepath);\r\n        require(FileState(i, State.uploadRequestAck));\r\n        files[i].states.push(State.uploadTransferAck);\r\n        files[i].digests.push(digest);\r\n        emit UploadTransferAcked(msg.sender, filepath, digest);\r\n    }\r\n    \r\n    function UploadConfirm(string calldata filepath, bool ack) external OnlyUser IsSLAValid{\r\n        bytes32 i = Hash(filepath);\r\n        require(FileState(i, State.uploadTransferAck));\r\n        if(ack){\r\n            files[i].states.push(State.uploaded); \r\n            files[i].onCloud = true;\r\n        }\r\n        else{\r\n            files[i].states.push(State.deleteRequested);\r\n            emit DeleteRequested(msg.sender, filepath);\r\n        }\r\n    }\r\n    \r\n    function DeleteRequest(string calldata filepath) external OnlyUser IsSLAValid {\r\n        bytes32 i = Hash(filepath);\r\n        require(FileOnCloud(i, true) && NotBeingChecked(i));\r\n        files[i].states.push(State.deleteRequested);\r\n        emit DeleteRequested(msg.sender, filepath);\r\n    }\r\n    \r\n    function Delete(string calldata filepath) external OnlyCloud IsSLAValid{\r\n        bytes32 i = Hash(filepath);\r\n        require(FileState(i, State.deleteRequested));\r\n        files[i].states.push(State.deleted);\r\n        files[i].onCloud = false;\r\n        emit Deleted(msg.sender, filepath);\r\n    }\r\n    \r\n    function ReadRequest(string calldata filepath) external OnlyUser IsSLAValid{\r\n        bytes32 i = Hash(filepath);\r\n        require(FileOnCloud(i, true) && NotBeingChecked(i));\r\n        files[i].states.push(State.readRequested);\r\n        emit ReadRequested(msg.sender, filepath);\r\n    }\r\n    \r\n    function ReadRequestAck(string calldata filepath, string calldata url) external OnlyCloud IsSLAValid{\r\n        bytes32 i = Hash(filepath);\r\n        require(FileState(i, State.readRequested));\r\n        files[i].states.push(State.readRequestAck);\r\n        files[i].url = url;\r\n        emit ReadRequestAcked(msg.sender, filepath, url);\r\n    }\r\n    \r\n    function ReadRequestDeny(string calldata filepath) external OnlyCloud IsSLAValid{\r\n        bytes32 i = Hash(filepath);\r\n        require(FileState(i, State.readRequested));\r\n        files[i].states.push(State.readDeny);\r\n        emit ReadRequestDenied(msg.sender, filepath, LostFileCheck(i), currentSLA.credits);\r\n    }\r\n    \r\n    function LostFileCheck(bytes32 ID) internal returns(bool){\r\n        bool lostFile = !OperationAfterUpload(ID, State.deleteRequested);\r\n        if(lostFile){\r\n            currentSLA.credits = currentSLA.credits + violationCredits[Violation.lostFile];\r\n        }\r\n        return(lostFile);    \r\n    }\r\n    \r\n    function FileHashRequest(string calldata filepath) external OnlyUser IsSLAValid{\r\n        bytes32 i = Hash(filepath);\r\n        require(UrlPublished(i));\r\n        FileDigestOracle(oracle).DigestRequest(files[i].url);\r\n        if(files[i].states[files[i].states.length - 1] != State.checkRequested)  \r\n            files[i].states.push(State.checkRequested);\r\n    }\r\n\r\n    function FileCheck(string calldata filepath) external OnlyUser IsSLAValid{\r\n        bytes32 i = Hash(filepath);\r\n        require(FileInBC(i) && FileState(i, State.checkRequested));\r\n        bool intactOnCloud = (files[i].digests[files[i].digests.length - 1] == FileDigestOracle(oracle).DigestRetrieve(files[i].url)); \r\n        string memory res = \"No SLA violations.\";\r\n        \r\n        if(!files[i].onCloud && intactOnCloud) {\r\n            res = \"Cloud should have deleted the file but it did not.\";\r\n            currentSLA.credits = currentSLA.credits + violationCredits[Violation.undeletedFile];\r\n        }else if (files[i].onCloud && !intactOnCloud){\r\n            res = \"File has been corrupted.\";\r\n           currentSLA.credits = currentSLA.credits + violationCredits[Violation.lostFile];\r\n        }\r\n        //restore previous state\r\n        files[i].states.push(files[i].states[files[i].states.length - 2]);\r\n        emit FileChecked(msg.sender, filepath, res, currentSLA.credits);\r\n    }\r\n    \r\n    //check if there is an operation after last upload\r\n    function OperationAfterUpload(bytes32 ID, State operation) internal view returns(bool){\r\n        //get index of last uploaded state and last deleted state if present\r\n        uint uploadedTime;\r\n        uint operationTime;\r\n        bool uploadedFound = false;\r\n        bool operationFound = false;\r\n        for (uint j = files[ID].states.length; j > 0; j--) {\r\n            if(!operationFound && files[ID].states[j-1] == operation){\r\n                operationTime = j-1;   \r\n                operationFound = true;\r\n            }\r\n            else if(!uploadedFound && files[ID].states[j-1] == State.uploaded){\r\n                uploadedTime= j-1;\r\n                uploadedFound = true;\r\n            }\r\n            //early exit\r\n            if(operationFound && uploadedFound)\r\n                break;\r\n        }\r\n        return(operationFound && operationTime > uploadedTime);\r\n    }\r\n    \r\n    function GetFile(string memory filepath) public view returns(bytes32, State [] memory, bool, bytes32 [] memory, string memory){\r\n        bytes32 i = Hash(filepath);\r\n        require(FileInBC(i));\r\n        return (files[i].ID, files[i].states, files[i].onCloud, files[i].digests, files[i].url);\r\n    }\r\n    \r\n    function GetSLAInfo() public view returns(bool, uint, uint, uint){\r\n        return (currentSLA.paid, currentSLA.validityPeriod.startTime, currentSLA.validityPeriod.endTime, currentSLA.credits);\r\n    }\r\n}\r\n\r\ninterface FileDigestOracle {\r\n    function DigestRequest(string calldata url) external;\r\n    function DigestStore(string calldata url, bytes32 digest) external;\r\n    function DigestRetrieve(string calldata url) external view returns(bytes32);\r\n}",
  "sourcePath": "C:\\Users\\paola\\Desktop\\cloud-chain\\contracts\\CloudSLA.sol",
  "compiler": {
    "name": "solc",
    "version": "0.8.9+commit.e5eed63a.Emscripten.clang"
  },
  "schemaVersion": "3.4.3",
  "updatedAt": "2021-11-03T12:57:06.581Z",
  "devdoc": {
    "kind": "dev",
    "methods": {},
    "version": 1
  },
  "userdoc": {
    "kind": "user",
    "methods": {},
    "version": 1
  }
}