{
  "contractName": "CloudSLA",
  "abi": [
    {
      "inputs": [],
      "payable": false,
      "stateMutability": "nonpayable",
      "type": "constructor"
    },
    {
      "constant": false,
      "inputs": [
        {
          "internalType": "address",
          "name": "_user",
          "type": "address"
        }
      ],
      "name": "SetUser",
      "outputs": [],
      "payable": false,
      "stateMutability": "nonpayable",
      "type": "function"
    },
    {
      "constant": false,
      "inputs": [
        {
          "internalType": "string",
          "name": "filepath",
          "type": "string"
        }
      ],
      "name": "UploadRequest",
      "outputs": [],
      "payable": false,
      "stateMutability": "nonpayable",
      "type": "function"
    },
    {
      "constant": false,
      "inputs": [
        {
          "internalType": "string",
          "name": "filepath",
          "type": "string"
        }
      ],
      "name": "UploadRequestAck",
      "outputs": [],
      "payable": false,
      "stateMutability": "nonpayable",
      "type": "function"
    },
    {
      "constant": false,
      "inputs": [
        {
          "internalType": "string",
          "name": "filepath",
          "type": "string"
        },
        {
          "internalType": "bytes32",
          "name": "digest",
          "type": "bytes32"
        }
      ],
      "name": "UploadTransferAck",
      "outputs": [],
      "payable": false,
      "stateMutability": "nonpayable",
      "type": "function"
    },
    {
      "constant": false,
      "inputs": [
        {
          "internalType": "string",
          "name": "filepath",
          "type": "string"
        },
        {
          "internalType": "bool",
          "name": "ack",
          "type": "bool"
        }
      ],
      "name": "UploadConfirm",
      "outputs": [],
      "payable": false,
      "stateMutability": "nonpayable",
      "type": "function"
    },
    {
      "constant": false,
      "inputs": [
        {
          "internalType": "string",
          "name": "filepath",
          "type": "string"
        }
      ],
      "name": "DeleteRequest",
      "outputs": [],
      "payable": false,
      "stateMutability": "nonpayable",
      "type": "function"
    },
    {
      "constant": false,
      "inputs": [
        {
          "internalType": "string",
          "name": "filepath",
          "type": "string"
        }
      ],
      "name": "Delete",
      "outputs": [],
      "payable": false,
      "stateMutability": "nonpayable",
      "type": "function"
    },
    {
      "constant": false,
      "inputs": [
        {
          "internalType": "string",
          "name": "filepath",
          "type": "string"
        }
      ],
      "name": "ReadRequest",
      "outputs": [],
      "payable": false,
      "stateMutability": "nonpayable",
      "type": "function"
    },
    {
      "constant": false,
      "inputs": [
        {
          "internalType": "string",
          "name": "filepath",
          "type": "string"
        },
        {
          "internalType": "string",
          "name": "url",
          "type": "string"
        }
      ],
      "name": "ReadRequestAck",
      "outputs": [],
      "payable": false,
      "stateMutability": "nonpayable",
      "type": "function"
    },
    {
      "constant": false,
      "inputs": [
        {
          "internalType": "string",
          "name": "filepath",
          "type": "string"
        }
      ],
      "name": "ReadRequestDeny",
      "outputs": [],
      "payable": false,
      "stateMutability": "nonpayable",
      "type": "function"
    },
    {
      "constant": true,
      "inputs": [
        {
          "internalType": "string",
          "name": "filepath",
          "type": "string"
        }
      ],
      "name": "GetFile",
      "outputs": [
        {
          "internalType": "bytes32",
          "name": "",
          "type": "bytes32"
        },
        {
          "internalType": "string[]",
          "name": "",
          "type": "string[]"
        },
        {
          "internalType": "bool",
          "name": "",
          "type": "bool"
        },
        {
          "internalType": "bytes32[]",
          "name": "",
          "type": "bytes32[]"
        },
        {
          "internalType": "string",
          "name": "",
          "type": "string"
        }
      ],
      "payable": false,
      "stateMutability": "view",
      "type": "function"
    },
    {
      "constant": false,
      "inputs": [
        {
          "internalType": "string",
          "name": "filepath",
          "type": "string"
        }
      ],
      "name": "CorruptedFileCheck",
      "outputs": [
        {
          "internalType": "bool",
          "name": "",
          "type": "bool"
        }
      ],
      "payable": false,
      "stateMutability": "nonpayable",
      "type": "function"
    }
  ],
  "bytecode": "0x608060405273627306090abab3a6e1400e9345bc60c78a8bef576000806101000a81548173ffffffffffffffffffffffffffffffffffffffff021916908373ffffffffffffffffffffffffffffffffffffffff16021790555034801561006457600080fd5b5033600160006101000a81548173ffffffffffffffffffffffffffffffffffffffff021916908373ffffffffffffffffffffffffffffffffffffffff160217905550612cb2806100b56000396000f3fe608060405234801561001057600080fd5b50600436106100b45760003560e01c80636d6cb605116100715780636d6cb605146101795780638991bdc91461019557806394c4e34d146101b157806399bdcf21146101e1578063cb95a5bb146101fd578063faef418214610219576100b4565b80630bc12553146100b957806315f18596146100d55780632d77e02c146100f15780633f7f626e1461010d5780634f10916e1461014157806369ad4c161461015d575b600080fd5b6100d360048036036100ce919081019061260f565b610235565b005b6100ef60048036036100ea919081019061260f565b610526565b005b61010b60048036036101069190810190612654565b610821565b005b61012760048036036101229190810190612779565b610c1e565b604051610138959493929190612a03565b60405180910390f35b61015b6004803603610156919081019061260f565b610edb565b005b610177600480360361017291908101906125bd565b6111fb565b005b610193600480360361018e919081019061260f565b611298565b005b6101af60048036036101aa91908101906126ac565b6114cc565b005b6101cb60048036036101c6919081019061260f565b6117fe565b6040516101d891906129e8565b60405180910390f35b6101fb60048036036101f69190810190612704565b6118a8565b005b6102176004803603610212919081019061260f565b611bc1565b005b610233600480360361022e919081019061260f565b611df5565b005b600160009054906101000a900473ffffffffffffffffffffffffffffffffffffffff1673ffffffffffffffffffffffffffffffffffffffff163373ffffffffffffffffffffffffffffffffffffffff161461028f57600080fd5b81818080601f016020809104026020016040519081016040528093929190818152602001838380828437600081840152601f19601f820116905080830192505050505050506040518060400160405280600f81526020017f75706c6f61645265717565737465640000000000000000000000000000000000815250600061031583612043565b905060008060001b60026000848152602001908152602001600020600001541415905060606002600084815260200190815260200160002060020160016002600086815260200190815260200160002060020180549050038154811061037757fe5b906000526020600020018054600181600116156101000203166002900480601f0160208091040260200160405190810160405280929190818152602001828054600181600116156101000203166002900480156104155780601f106103ea57610100808354040283529160200191610415565b820191906000526020600020905b8154815290600101906020018083116103f857829003601f168201915b505050505090506000801b831415801561042c5750815b801561043e575061043d81856120bb565b5b61044757600080fd5b600061049688888080601f016020809104026020016040519081016040528093929190818152602001838380828437600081840152601f19601f82011690508083019250505050505050612043565b9050600260008281526020019081526020016000206002018060018154018082558091505090600182039060005260206000200160006040518060400160405280601081526020017f75706c6f61645265717565737441636b000000000000000000000000000000008152509091909150908051906020019061051a9291906123a6565b50505050505050505050565b600160009054906101000a900473ffffffffffffffffffffffffffffffffffffffff1673ffffffffffffffffffffffffffffffffffffffff163373ffffffffffffffffffffffffffffffffffffffff161461058057600080fd5b81818080601f016020809104026020016040519081016040528093929190818152602001838380828437600081840152601f19601f820116905080830192505050505050506040518060400160405280600d81526020017f7265616452657175657374656400000000000000000000000000000000000000815250600061060683612043565b905060008060001b60026000848152602001908152602001600020600001541415905060606002600084815260200190815260200160002060020160016002600086815260200190815260200160002060020180549050038154811061066857fe5b906000526020600020018054600181600116156101000203166002900480601f0160208091040260200160405190810160405280929190818152602001828054600181600116156101000203166002900480156107065780601f106106db57610100808354040283529160200191610706565b820191906000526020600020905b8154815290600101906020018083116106e957829003601f168201915b505050505090506000801b831415801561071d5750815b801561072f575061072e81856120bb565b5b61073857600080fd5b600061078788888080601f016020809104026020016040519081016040528093929190818152602001838380828437600081840152601f19601f82011690508083019250505050505050612043565b9050600260008281526020019081526020016000206002018060018154018082558091505090600182039060005260206000200160006040518060400160405280600881526020017f7265616444656e790000000000000000000000000000000000000000000000008152509091909150908051906020019061080b9291906123a6565b5050610816816120d8565b505050505050505050565b6000809054906101000a900473ffffffffffffffffffffffffffffffffffffffff1673ffffffffffffffffffffffffffffffffffffffff163373ffffffffffffffffffffffffffffffffffffffff161461087a57600080fd5b82828080601f016020809104026020016040519081016040528093929190818152602001838380828437600081840152601f19601f820116905080830192505050505050506040518060400160405280601181526020017f75706c6f61645472616e7366657241636b000000000000000000000000000000815250600061090083612043565b905060008060001b60026000848152602001908152602001600020600001541415905060606002600084815260200190815260200160002060020160016002600086815260200190815260200160002060020180549050038154811061096257fe5b906000526020600020018054600181600116156101000203166002900480601f016020809104026020016040519081016040528092919081815260200182805460018160011615610100020316600290048015610a005780601f106109d557610100808354040283529160200191610a00565b820191906000526020600020905b8154815290600101906020018083116109e357829003601f168201915b505050505090506000801b8314158015610a175750815b8015610a295750610a2881856120bb565b5b610a3257600080fd5b6000610a8189898080601f016020809104026020016040519081016040528093929190818152602001838380828437600081840152601f19601f82011690508083019250505050505050612043565b9050600060026000838152602001908152602001600020600301600160026000858152602001908152602001600020600301805490500381548110610ac257fe5b906000526020600020015490508715610b8d57600260008381526020019081526020016000206002018060018154018082558091505090600182039060005260206000200160006040518060400160405280600881526020017f75706c6f6164656400000000000000000000000000000000000000000000000081525090919091509080519060200190610b579291906123a6565b505060016002600084815260200190815260200160002060010160006101000a81548160ff021916908315150217905550610c12565b600260008381526020019081526020016000206002018060018154018082558091505090600182039060005260206000200160006040518060400160405280600f81526020017f64656c657465526571756573746564000000000000000000000000000000000081525090919091509080519060200190610c0f9291906123a6565b50505b50505050505050505050565b600060606000606080856000610c3382612043565b90506000801b8114158015610c6157506000801b600260008381526020019081526020016000206000015414155b610c6a57600080fd5b6000610c7589612043565b90506002600082815260200190815260200160002060000154600260008381526020019081526020016000206002016002600084815260200190815260200160002060010160009054906101000a900460ff16600260008581526020019081526020016000206003016002600086815260200190815260200160002060040183805480602002602001604051908101604052809291908181526020016000905b82821015610dd1578382906000526020600020018054600181600116156101000203166002900480601f016020809104026020016040519081016040528092919081815260200182805460018160011615610100020316600290048015610dbd5780601f10610d9257610100808354040283529160200191610dbd565b820191906000526020600020905b815481529060010190602001808311610da057829003601f168201915b505050505081526020019060010190610d15565b50505050935081805480602002602001604051908101604052809291908181526020018280548015610e2257602002820191906000526020600020905b815481526020019060010190808311610e0e575b50505050509150808054600181600116156101000203166002900480601f016020809104026020016040519081016040528092919081815260200182805460018160011615610100020316600290048015610ebe5780601f10610e9357610100808354040283529160200191610ebe565b820191906000526020600020905b815481529060010190602001808311610ea157829003601f168201915b505050505090509750975097509750975050505091939590929450565b600160009054906101000a900473ffffffffffffffffffffffffffffffffffffffff1673ffffffffffffffffffffffffffffffffffffffff163373ffffffffffffffffffffffffffffffffffffffff1614610f3557600080fd5b81818080601f016020809104026020016040519081016040528093929190818152602001838380828437600081840152601f19601f820116905080830192505050505050506040518060400160405280600f81526020017f64656c65746552657175657374656400000000000000000000000000000000008152506000610fbb83612043565b905060008060001b60026000848152602001908152602001600020600001541415905060606002600084815260200190815260200160002060020160016002600086815260200190815260200160002060020180549050038154811061101d57fe5b906000526020600020018054600181600116156101000203166002900480601f0160208091040260200160405190810160405280929190818152602001828054600181600116156101000203166002900480156110bb5780601f10611090576101008083540402835291602001916110bb565b820191906000526020600020905b81548152906001019060200180831161109e57829003601f168201915b505050505090506000801b83141580156110d25750815b80156110e457506110e381856120bb565b5b6110ed57600080fd5b600061113c88888080601f016020809104026020016040519081016040528093929190818152602001838380828437600081840152601f19601f82011690508083019250505050505050612043565b9050600260008281526020019081526020016000206002018060018154018082558091505090600182039060005260206000200160006040518060400160405280600781526020017f64656c6574656400000000000000000000000000000000000000000000000000815250909190915090805190602001906111c09291906123a6565b505060006002600083815260200190815260200160002060010160006101000a81548160ff0219169083151502179055505050505050505050565b600160009054906101000a900473ffffffffffffffffffffffffffffffffffffffff1673ffffffffffffffffffffffffffffffffffffffff163373ffffffffffffffffffffffffffffffffffffffff161461125557600080fd5b806000806101000a81548173ffffffffffffffffffffffffffffffffffffffff021916908373ffffffffffffffffffffffffffffffffffffffff16021790555050565b6000809054906101000a900473ffffffffffffffffffffffffffffffffffffffff1673ffffffffffffffffffffffffffffffffffffffff163373ffffffffffffffffffffffffffffffffffffffff16146112f157600080fd5b81818080601f016020809104026020016040519081016040528093929190818152602001838380828437600081840152601f19601f820116905080830192505050505050506001600061134383612043565b905060008060001b60026000848152602001908152602001600020600001541415905082156113b6576000801b821415801561137c5750805b80156113a857506002600083815260200190815260200160002060010160009054906101000a900460ff165b6113b157600080fd5b6113ee565b8015806113e457506002600083815260200190815260200160002060010160009054906101000a900460ff16155b6113ed57600080fd5b5b600061143d87878080601f016020809104026020016040519081016040528093929190818152602001838380828437600081840152601f19601f82011690508083019250505050505050612043565b9050600260008281526020019081526020016000206002018060018154018082558091505090600182039060005260206000200160006040518060400160405280600f81526020017f64656c6574655265717565737465640000000000000000000000000000000000815250909190915090805190602001906114c19291906123a6565b505050505050505050565b600160009054906101000a900473ffffffffffffffffffffffffffffffffffffffff1673ffffffffffffffffffffffffffffffffffffffff163373ffffffffffffffffffffffffffffffffffffffff161461152657600080fd5b82828080601f016020809104026020016040519081016040528093929190818152602001838380828437600081840152601f19601f820116905080830192505050505050506040518060400160405280601081526020017f75706c6f61645265717565737441636b0000000000000000000000000000000081525060006115ac83612043565b905060008060001b60026000848152602001908152602001600020600001541415905060606002600084815260200190815260200160002060020160016002600086815260200190815260200160002060020180549050038154811061160e57fe5b906000526020600020018054600181600116156101000203166002900480601f0160208091040260200160405190810160405280929190818152602001828054600181600116156101000203166002900480156116ac5780601f10611681576101008083540402835291602001916116ac565b820191906000526020600020905b81548152906001019060200180831161168f57829003601f168201915b505050505090506000801b83141580156116c35750815b80156116d557506116d481856120bb565b5b6116de57600080fd5b600061172d89898080601f016020809104026020016040519081016040528093929190818152602001838380828437600081840152601f19601f82011690508083019250505050505050612043565b9050600260008281526020019081526020016000206002018060018154018082558091505090600182039060005260206000200160006040518060400160405280601181526020017f75706c6f61645472616e7366657241636b000000000000000000000000000000815250909190915090805190602001906117b19291906123a6565b505060026000828152602001908152602001600020600301879080600181540180825580915050906001820390600052602060002001600090919290919091505550505050505050505050565b60008061184e84848080601f016020809104026020016040519081016040528093929190818152602001838380828437600081840152601f19601f82011690508083019250505050505050612043565b90506000809050611894826040518060400160405280600f81526020017f64656c6574655265717565737465640000000000000000000000000000000000815250612130565b61189d57600190505b809250505092915050565b600160009054906101000a900473ffffffffffffffffffffffffffffffffffffffff1673ffffffffffffffffffffffffffffffffffffffff163373ffffffffffffffffffffffffffffffffffffffff161461190257600080fd5b83838080601f016020809104026020016040519081016040528093929190818152602001838380828437600081840152601f19601f820116905080830192505050505050506040518060400160405280600d81526020017f7265616452657175657374656400000000000000000000000000000000000000815250600061198883612043565b905060008060001b6002600084815260200190815260200160002060000154141590506060600260008481526020019081526020016000206002016001600260008681526020019081526020016000206002018054905003815481106119ea57fe5b906000526020600020018054600181600116156101000203166002900480601f016020809104026020016040519081016040528092919081815260200182805460018160011615610100020316600290048015611a885780601f10611a5d57610100808354040283529160200191611a88565b820191906000526020600020905b815481529060010190602001808311611a6b57829003601f168201915b505050505090506000801b8314158015611a9f5750815b8015611ab15750611ab081856120bb565b5b611aba57600080fd5b6000611b098a8a8080601f016020809104026020016040519081016040528093929190818152602001838380828437600081840152601f19601f82011690508083019250505050505050612043565b9050600260008281526020019081526020016000206002018060018154018082558091505090600182039060005260206000200160006040518060400160405280600e81526020017f726561645265717565737441636b00000000000000000000000000000000000081525090919091509080519060200190611b8d9291906123a6565b50508787600260008481526020019081526020016000206004019190611bb4929190612426565b5050505050505050505050565b6000809054906101000a900473ffffffffffffffffffffffffffffffffffffffff1673ffffffffffffffffffffffffffffffffffffffff163373ffffffffffffffffffffffffffffffffffffffff1614611c1a57600080fd5b81818080601f016020809104026020016040519081016040528093929190818152602001838380828437600081840152601f19601f8201169050808301925050505050505060016000611c6c83612043565b905060008060001b6002600084815260200190815260200160002060000154141590508215611cdf576000801b8214158015611ca55750805b8015611cd157506002600083815260200190815260200160002060010160009054906101000a900460ff165b611cda57600080fd5b611d17565b801580611d0d57506002600083815260200190815260200160002060010160009054906101000a900460ff16155b611d1657600080fd5b5b6000611d6687878080601f016020809104026020016040519081016040528093929190818152602001838380828437600081840152601f19601f82011690508083019250505050505050612043565b9050600260008281526020019081526020016000206002018060018154018082558091505090600182039060005260206000200160006040518060400160405280600d81526020017f726561645265717565737465640000000000000000000000000000000000000081525090919091509080519060200190611dea9291906123a6565b505050505050505050565b6000809054906101000a900473ffffffffffffffffffffffffffffffffffffffff1673ffffffffffffffffffffffffffffffffffffffff163373ffffffffffffffffffffffffffffffffffffffff1614611e4e57600080fd5b81818080601f016020809104026020016040519081016040528093929190818152602001838380828437600081840152601f19601f82011690508083019250505050505050600080611e9f83612043565b905060008060001b6002600084815260200190815260200160002060000154141590508215611f12576000801b8214158015611ed85750805b8015611f0457506002600083815260200190815260200160002060010160009054906101000a900460ff165b611f0d57600080fd5b611f4a565b801580611f4057506002600083815260200190815260200160002060010160009054906101000a900460ff16155b611f4957600080fd5b5b6000611f9987878080601f016020809104026020016040519081016040528093929190818152602001838380828437600081840152601f19601f82011690508083019250505050505050612043565b9050806002600083815260200190815260200160002060000181905550600260008281526020019081526020016000206002018060018154018082558091505090600182039060005260206000200160006040518060400160405280600f81526020017f75706c6f61645265717565737465640000000000000000000000000000000000815250909190915090805190602001906120389291906123a6565b505050505050505050565b600060028260405160200161205891906129d1565b60405160208183030381529060405260405161207491906129ba565b602060405180830381855afa158015612091573d6000803e3d6000fd5b5050506040513d601f19601f820116820180604052506120b491908101906125e6565b9050919050565b60006120c682612043565b6120cf84612043565b14905092915050565b6000806000905061211e836040518060400160405280600f81526020017f64656c6574655265717565737465640000000000000000000000000000000000815250612130565b61212757600190505b80915050919050565b60008060008060009050600080905060006001600260008a8152602001908152602001600020600201805490500390505b6000811061238d5781158015612240575061223f600260008a8152602001908152602001600020600201828154811061219657fe5b906000526020600020018054600181600116156101000203166002900480601f0160208091040260200160405190810160405280929190818152602001828054600181600116156101000203166002900480156122345780601f1061220957610100808354040283529160200191612234565b820191906000526020600020905b81548152906001019060200180831161221757829003601f168201915b5050505050886120bb565b5b15612251578093506001915061236b565b8215801561235d575061235c600260008a8152602001908152602001600020600201828154811061227e57fe5b906000526020600020018054600181600116156101000203166002900480601f01602080910402602001604051908101604052809291908181526020018280546001816001161561010002031660029004801561231c5780601f106122f15761010080835404028352916020019161231c565b820191906000526020600020905b8154815290600101906020018083116122ff57829003601f168201915b50505050506040518060400160405280600881526020017f75706c6f616465640000000000000000000000000000000000000000000000008152506120bb565b5b1561236a57809450600192505b5b8180156123755750825b1561237f5761238d565b808060019003915050612161565b5080801561239a57508383115b94505050505092915050565b828054600181600116156101000203166002900490600052602060002090601f016020900481019282601f106123e757805160ff1916838001178555612415565b82800160010185558215612415579182015b828111156124145782518255916020019190600101906123f9565b5b50905061242291906124a6565b5090565b828054600181600116156101000203166002900490600052602060002090601f016020900481019282601f1061246757803560ff1916838001178555612495565b82800160010185558215612495579182015b82811115612494578235825591602001919060010190612479565b5b5090506124a291906124a6565b5090565b6124c891905b808211156124c45760008160009055506001016124ac565b5090565b90565b6000813590506124da81612c2a565b92915050565b6000813590506124ef81612c41565b92915050565b60008135905061250481612c58565b92915050565b60008151905061251981612c58565b92915050565b60008083601f84011261253157600080fd5b8235905067ffffffffffffffff81111561254a57600080fd5b60208301915083600182028301111561256257600080fd5b9250929050565b600082601f83011261257a57600080fd5b813561258d61258882612a98565b612a6b565b915080825260208301602083018583830111156125a957600080fd5b6125b4838284612bd7565b50505092915050565b6000602082840312156125cf57600080fd5b60006125dd848285016124cb565b91505092915050565b6000602082840312156125f857600080fd5b60006126068482850161250a565b91505092915050565b6000806020838503121561262257600080fd5b600083013567ffffffffffffffff81111561263c57600080fd5b6126488582860161251f565b92509250509250929050565b60008060006040848603121561266957600080fd5b600084013567ffffffffffffffff81111561268357600080fd5b61268f8682870161251f565b935093505060206126a2868287016124e0565b9150509250925092565b6000806000604084860312156126c157600080fd5b600084013567ffffffffffffffff8111156126db57600080fd5b6126e78682870161251f565b935093505060206126fa868287016124f5565b9150509250925092565b6000806000806040858703121561271a57600080fd5b600085013567ffffffffffffffff81111561273457600080fd5b6127408782880161251f565b9450945050602085013567ffffffffffffffff81111561275f57600080fd5b61276b8782880161251f565b925092505092959194509250565b60006020828403121561278b57600080fd5b600082013567ffffffffffffffff8111156127a557600080fd5b6127b184828501612569565b91505092915050565b60006127c683836128c8565b60208301905092915050565b60006127de8383612981565b905092915050565b60006127f182612ae4565b6127fb8185612b35565b935061280683612ac4565b8060005b8381101561283757815161281e88826127ba565b975061282983612b1b565b92505060018101905061280a565b5085935050505092915050565b600061284f82612aef565b6128598185612b46565b93508360208202850161286b85612ad4565b8060005b858110156128a7578484038952815161288885826127d2565b945061289383612b28565b925060208a0199505060018101905061286f565b50829750879550505050505092915050565b6128c281612ba1565b82525050565b6128d181612bad565b82525050565b6128e081612bad565b82525050565b60006128f182612afa565b6128fb8185612b57565b935061290b818560208601612be6565b80840191505092915050565b600061292282612b10565b61292c8185612b73565b935061293c818560208601612be6565b61294581612c19565b840191505092915050565b600061295b82612b10565b6129658185612b84565b9350612975818560208601612be6565b80840191505092915050565b600061298c82612b05565b6129968185612b62565b93506129a6818560208601612be6565b6129af81612c19565b840191505092915050565b60006129c682846128e6565b915081905092915050565b60006129dd8284612950565b915081905092915050565b60006020820190506129fd60008301846128b9565b92915050565b600060a082019050612a1860008301886128d7565b8181036020830152612a2a8187612844565b9050612a3960408301866128b9565b8181036060830152612a4b81856127e6565b90508181036080830152612a5f8184612917565b90509695505050505050565b6000604051905081810181811067ffffffffffffffff82111715612a8e57600080fd5b8060405250919050565b600067ffffffffffffffff821115612aaf57600080fd5b601f19601f8301169050602081019050919050565b6000819050602082019050919050565b6000819050602082019050919050565b600081519050919050565b600081519050919050565b600081519050919050565b600081519050919050565b600081519050919050565b6000602082019050919050565b6000602082019050919050565b600082825260208201905092915050565b600082825260208201905092915050565b600081905092915050565b600082825260208201905092915050565b600082825260208201905092915050565b600081905092915050565b6000612b9a82612bb7565b9050919050565b60008115159050919050565b6000819050919050565b600073ffffffffffffffffffffffffffffffffffffffff82169050919050565b82818337600083830152505050565b60005b83811015612c04578082015181840152602081019050612be9565b83811115612c13576000848401525b50505050565b6000601f19601f8301169050919050565b612c3381612b8f565b8114612c3e57600080fd5b50565b612c4a81612ba1565b8114612c5557600080fd5b50565b612c6181612bad565b8114612c6c57600080fd5b5056fea365627a7a72315820d82e03df9bed4aac609022c1d0d575806fdf50eac4ed0dff82fdfc5075378c966c6578706572696d656e74616cf564736f6c63430005100040",
  "source": "pragma solidity 0.5.16;\r\npragma experimental ABIEncoderV2;\r\n\r\n/**\r\n * @title CloudSLA\r\n * @dev \r\n */\r\ncontract CloudSLA {\r\n    address private user = 0x627306090abaB3A6e1400e9345bC60c78a8BEf57;\r\n    address private cloud;\r\n    \r\n    /*struct Sla{\r\n        uint price;\r\n        bool paid;\r\n        uint violationCount;\r\n        uint monitoringPeriod;\r\n    }*/\r\n\r\n    struct File {\r\n        bytes32 ID;         //hash of filepath\r\n        bool onCloud;\r\n        string[] states;   \r\n        bytes32[] digests;     //hash of last content\r\n        string url;         //hash of last url\r\n    }\r\n    \r\n    //Sla private sla;\r\n    mapping ( bytes32 => File ) private files;\r\n    \r\n    function EqualStrings(string memory a, string memory b) private pure returns (bool) {\r\n        return (Hash(a) == Hash(b));\r\n    }\r\n    \r\n    function Hash(string memory str) private pure returns(bytes32){\r\n        return (sha256(abi.encodePacked(str)));\r\n    }\r\n    \r\n    modifier OnlyUser {require (msg.sender == user); _;}\r\n    modifier OnlyCloud {require (msg.sender == cloud); _;}\r\n    modifier FileInBC (string memory filepath) {\r\n        bytes32 i = Hash(filepath);\r\n        require (i != 0x0 && files[i].ID != 0x0);\r\n        _;\r\n    }\r\n    modifier FileOnCloud (string memory filepath, bool onCloud) {\r\n        bytes32 i = Hash(filepath);\r\n        bool inBC = files[i].ID != 0x0;\r\n        if (onCloud)\r\n            require (i != 0x0 && inBC && files[i].onCloud);\r\n        else\r\n            require (! inBC ||  ! files[i].onCloud);\r\n        _;\r\n    }\r\n    modifier FileState (string memory filepath, string memory prevState) {\r\n        bytes32 i = Hash(filepath);\r\n        bool inBC = files[i].ID != 0x0;\r\n        string memory lastState = files[i].states[files[i].states.length - 1];\r\n        require (i != 0x0 && inBC && EqualStrings(lastState, prevState));\r\n        _;\r\n    }\r\n\r\n    constructor() public {\r\n        cloud = msg.sender;\r\n    }\r\n    \r\n    function SetUser(address _user) external OnlyCloud{\r\n        user = _user;\r\n    }\r\n    \r\n    function UploadRequest(string calldata filepath) external OnlyUser FileOnCloud(filepath, false){\r\n        bytes32 i = Hash(filepath);\r\n        files[i].ID = i;\r\n        files[i].states.push(\"uploadRequested\");\r\n    }\r\n    \r\n    function UploadRequestAck(string calldata filepath) external OnlyCloud FileState(filepath, \"uploadRequested\"){\r\n        bytes32 i = Hash(filepath);\r\n        files[i].states.push(\"uploadRequestAck\");\r\n    }\r\n    \r\n    function UploadTransferAck(string calldata filepath, bytes32 digest) external OnlyCloud FileState(filepath, \"uploadRequestAck\"){\r\n        bytes32 i = Hash(filepath);\r\n        files[i].states.push(\"uploadTransferAck\");\r\n        files[i].digests.push(digest);\r\n    }\r\n    \r\n    function UploadConfirm(string calldata filepath, bool ack) external OnlyUser FileState(filepath, \"uploadTransferAck\"){\r\n        bytes32 i = Hash(filepath);\r\n        bytes32 lastDigest = files[i].digests[files[i].digests.length - 1];\r\n        if(ack){\r\n            files[i].states.push(\"uploaded\"); \r\n            files[i].onCloud = true;\r\n        }\r\n        else\r\n            files[i].states.push(\"deleteRequested\");\r\n    }\r\n    \r\n    function DeleteRequest(string calldata filepath) external OnlyUser FileOnCloud(filepath, true){\r\n        bytes32 i = Hash(filepath);\r\n        files[i].states.push(\"deleteRequested\");\r\n    }\r\n    \r\n    function Delete(string calldata filepath) external OnlyCloud FileState(filepath, \"deleteRequested\"){\r\n        bytes32 i = Hash(filepath);\r\n        files[i].states.push(\"deleted\");\r\n        files[i].onCloud = false;\r\n    }\r\n    \r\n    function ReadRequest(string calldata filepath) external OnlyUser FileOnCloud(filepath, true){\r\n        bytes32 i = Hash(filepath);\r\n        files[i].states.push(\"readRequested\");\r\n    }\r\n    \r\n    function ReadRequestAck(string calldata filepath, string calldata url) external OnlyCloud FileState(filepath, \"readRequested\"){\r\n        bytes32 i = Hash(filepath);\r\n        files[i].states.push(\"readRequestAck\");\r\n        files[i].url = url;\r\n    }\r\n    \r\n    function ReadRequestDeny(string calldata filepath) external OnlyCloud FileState(filepath, \"readRequested\"){\r\n        bytes32 i = Hash(filepath);\r\n        files[i].states.push(\"readDeny\");\r\n        LostFileCheck(i);\r\n    }\r\n    \r\n    //TODO ARBITRATOR\r\n    function GetFile(string memory filepath) public view FileInBC(filepath) returns(bytes32, string [] memory, bool, bytes32 [] memory, string memory){\r\n        bytes32 i = Hash(filepath);\r\n        return (files[i].ID, files[i].states, files[i].onCloud, files[i].digests, files[i].url);\r\n    }\r\n    \r\n    function LostFileCheck(bytes32 ID) internal returns(bool){\r\n        bool res = false;\r\n        if(!OperationAfterUpload(ID, \"deleteRequested\")){\r\n            //TODO Compensate();\r\n            res = true;\r\n        }\r\n        return(res);    \r\n    }\r\n    \r\n    function CorruptedFileCheck(string calldata filepath) external returns(bool){\r\n        bytes32 i = Hash(filepath);\r\n        bool res = false;\r\n        if(!OperationAfterUpload(i, \"deleteRequested\")){\r\n            //TODO Compensate();\r\n            res = true;\r\n        }\r\n        return(res);    \r\n    }\r\n    \r\n    /*\r\n    function UndeletedFileCheck(string calldata filepath) external returns(bool){\r\n        bytes32 i = Hash(filepath);\r\n        bool res = false;\r\n        if(OperationAfterUpload(i, \"deleted\")){\r\n            //TODO Compensate();\r\n            res = true;\r\n        }\r\n        return(res);   \r\n    }*/\r\n    \r\n    //check if there is an operation after last upload\r\n    function OperationAfterUpload(bytes32 ID, string memory operation) internal view returns(bool){\r\n        //get index of last uploaded state and last deleted state if present\r\n        uint uploadedTime;\r\n        uint operationTime;\r\n        bool uploadedFound = false;\r\n        bool operationFound = false;\r\n        for (uint j = files[ID].states.length - 1; j >= 0; j--) {\r\n            if(!operationFound && EqualStrings(files[ID].states[j], operation)){\r\n                operationTime = j;   \r\n                operationFound = true;\r\n            }\r\n            else if(!uploadedFound && EqualStrings(files[ID].states[j], \"uploaded\")){\r\n                uploadedTime= j;\r\n                uploadedFound = true;\r\n            }\r\n            //early exit\r\n            if(operationFound && uploadedFound)\r\n                break;\r\n        }\r\n        return(operationFound && operationTime > uploadedTime);\r\n    }\r\n    \r\n}",
  "sourcePath": "C:\\Users\\paola\\Desktop\\cloud-chain\\contracts\\CloudSLA.sol",
  "compiler": {
    "name": "solc",
    "version": "0.5.16+commit.9c3226ce.Emscripten.clang"
  },
  "schemaVersion": "3.4.3",
  "updatedAt": "2021-09-06T15:43:32.181Z",
  "devdoc": {
    "methods": {},
    "title": "CloudSLA"
  },
  "userdoc": {
    "methods": {}
  }
}