{
  "contractName": "CloudSLA",
  "abi": [
    {
      "inputs": [],
      "stateMutability": "nonpayable",
      "type": "constructor"
    },
    {
      "anonymous": false,
      "inputs": [
        {
          "indexed": true,
          "internalType": "address",
          "name": "_from",
          "type": "address"
        },
        {
          "indexed": false,
          "internalType": "string",
          "name": "filepath",
          "type": "string"
        },
        {
          "indexed": false,
          "internalType": "bool",
          "name": "digestOK",
          "type": "bool"
        }
      ],
      "name": "CorruptedFileChecked",
      "type": "event"
    },
    {
      "anonymous": false,
      "inputs": [
        {
          "indexed": true,
          "internalType": "address",
          "name": "_from",
          "type": "address"
        },
        {
          "indexed": false,
          "internalType": "string",
          "name": "filepath",
          "type": "string"
        }
      ],
      "name": "DeleteRequested",
      "type": "event"
    },
    {
      "anonymous": false,
      "inputs": [
        {
          "indexed": true,
          "internalType": "address",
          "name": "_from",
          "type": "address"
        },
        {
          "indexed": false,
          "internalType": "string",
          "name": "filepath",
          "type": "string"
        }
      ],
      "name": "Deleted",
      "type": "event"
    },
    {
      "anonymous": false,
      "inputs": [
        {
          "indexed": true,
          "internalType": "address",
          "name": "_from",
          "type": "address"
        },
        {
          "indexed": false,
          "internalType": "string",
          "name": "filepath",
          "type": "string"
        },
        {
          "indexed": false,
          "internalType": "string",
          "name": "url",
          "type": "string"
        }
      ],
      "name": "ReadRequestAcked",
      "type": "event"
    },
    {
      "anonymous": false,
      "inputs": [
        {
          "indexed": true,
          "internalType": "address",
          "name": "_from",
          "type": "address"
        },
        {
          "indexed": false,
          "internalType": "string",
          "name": "filepath",
          "type": "string"
        },
        {
          "indexed": false,
          "internalType": "bool",
          "name": "lostFile",
          "type": "bool"
        }
      ],
      "name": "ReadRequestDenied",
      "type": "event"
    },
    {
      "anonymous": false,
      "inputs": [
        {
          "indexed": true,
          "internalType": "address",
          "name": "_from",
          "type": "address"
        },
        {
          "indexed": false,
          "internalType": "string",
          "name": "filepath",
          "type": "string"
        }
      ],
      "name": "ReadRequested",
      "type": "event"
    },
    {
      "anonymous": false,
      "inputs": [
        {
          "indexed": true,
          "internalType": "address",
          "name": "_from",
          "type": "address"
        },
        {
          "indexed": false,
          "internalType": "string",
          "name": "filepath",
          "type": "string"
        }
      ],
      "name": "UploadRequestAcked",
      "type": "event"
    },
    {
      "anonymous": false,
      "inputs": [
        {
          "indexed": true,
          "internalType": "address",
          "name": "_from",
          "type": "address"
        },
        {
          "indexed": false,
          "internalType": "string",
          "name": "filepath",
          "type": "string"
        }
      ],
      "name": "UploadRequested",
      "type": "event"
    },
    {
      "anonymous": false,
      "inputs": [
        {
          "indexed": true,
          "internalType": "address",
          "name": "_from",
          "type": "address"
        },
        {
          "indexed": false,
          "internalType": "string",
          "name": "filepath",
          "type": "string"
        },
        {
          "indexed": false,
          "internalType": "bytes32",
          "name": "digest",
          "type": "bytes32"
        }
      ],
      "name": "UploadTransferAcked",
      "type": "event"
    },
    {
      "inputs": [
        {
          "internalType": "string",
          "name": "filepath",
          "type": "string"
        }
      ],
      "name": "UploadRequest",
      "outputs": [],
      "stateMutability": "nonpayable",
      "type": "function"
    },
    {
      "inputs": [
        {
          "internalType": "string",
          "name": "filepath",
          "type": "string"
        }
      ],
      "name": "UploadRequestAck",
      "outputs": [],
      "stateMutability": "nonpayable",
      "type": "function"
    },
    {
      "inputs": [
        {
          "internalType": "string",
          "name": "filepath",
          "type": "string"
        },
        {
          "internalType": "bytes32",
          "name": "digest",
          "type": "bytes32"
        }
      ],
      "name": "UploadTransferAck",
      "outputs": [],
      "stateMutability": "nonpayable",
      "type": "function"
    },
    {
      "inputs": [
        {
          "internalType": "string",
          "name": "filepath",
          "type": "string"
        },
        {
          "internalType": "bool",
          "name": "ack",
          "type": "bool"
        }
      ],
      "name": "UploadConfirm",
      "outputs": [],
      "stateMutability": "nonpayable",
      "type": "function"
    },
    {
      "inputs": [
        {
          "internalType": "string",
          "name": "filepath",
          "type": "string"
        }
      ],
      "name": "DeleteRequest",
      "outputs": [],
      "stateMutability": "nonpayable",
      "type": "function"
    },
    {
      "inputs": [
        {
          "internalType": "string",
          "name": "filepath",
          "type": "string"
        }
      ],
      "name": "Delete",
      "outputs": [],
      "stateMutability": "nonpayable",
      "type": "function"
    },
    {
      "inputs": [
        {
          "internalType": "string",
          "name": "filepath",
          "type": "string"
        }
      ],
      "name": "ReadRequest",
      "outputs": [],
      "stateMutability": "nonpayable",
      "type": "function"
    },
    {
      "inputs": [
        {
          "internalType": "string",
          "name": "filepath",
          "type": "string"
        },
        {
          "internalType": "string",
          "name": "url",
          "type": "string"
        }
      ],
      "name": "ReadRequestAck",
      "outputs": [],
      "stateMutability": "nonpayable",
      "type": "function"
    },
    {
      "inputs": [
        {
          "internalType": "string",
          "name": "filepath",
          "type": "string"
        }
      ],
      "name": "ReadRequestDeny",
      "outputs": [],
      "stateMutability": "nonpayable",
      "type": "function"
    },
    {
      "inputs": [
        {
          "internalType": "string",
          "name": "filepath",
          "type": "string"
        }
      ],
      "name": "GetFile",
      "outputs": [
        {
          "internalType": "bytes32",
          "name": "",
          "type": "bytes32"
        },
        {
          "internalType": "enum CloudSLA.State[]",
          "name": "",
          "type": "uint8[]"
        },
        {
          "internalType": "bool",
          "name": "",
          "type": "bool"
        },
        {
          "internalType": "bytes32[]",
          "name": "",
          "type": "bytes32[]"
        },
        {
          "internalType": "string",
          "name": "",
          "type": "string"
        }
      ],
      "stateMutability": "view",
      "type": "function",
      "constant": true
    },
    {
      "inputs": [
        {
          "internalType": "string",
          "name": "filepath",
          "type": "string"
        }
      ],
      "name": "CorruptedFileCheckRequest",
      "outputs": [],
      "stateMutability": "nonpayable",
      "type": "function"
    },
    {
      "inputs": [
        {
          "internalType": "string",
          "name": "filepath",
          "type": "string"
        }
      ],
      "name": "CorruptedFileCheck",
      "outputs": [],
      "stateMutability": "nonpayable",
      "type": "function"
    }
  ],
  "bytecode": "0x6080604052730a143bdf026eabaf95d3e88abb88169674db92f56000806101000a81548173ffffffffffffffffffffffffffffffffffffffff021916908373ffffffffffffffffffffffffffffffffffffffff16021790555073627306090abab3a6e1400e9345bc60c78a8bef57600160006101000a81548173ffffffffffffffffffffffffffffffffffffffff021916908373ffffffffffffffffffffffffffffffffffffffff1602179055503480156100b957600080fd5b5033600260006101000a81548173ffffffffffffffffffffffffffffffffffffffff021916908373ffffffffffffffffffffffffffffffffffffffff16021790555061365f8061010a6000396000f3fe608060405234801561001057600080fd5b50600436106100d1576000357c0100000000000000000000000000000000000000000000000000000000900480636d6cb6051161008e5780636d6cb605146101965780638991bdc9146101b257806394c4e34d146101ce57806399bdcf21146101ea578063cb95a5bb14610206578063faef418214610222576100d1565b80630bc12553146100d657806315f18596146100f25780632d77e02c1461010e5780633f7f626e1461012a5780634f10916e1461015e5780635e8122ea1461017a575b600080fd5b6100f060048036038101906100eb9190612968565b61023e565b005b61010c60048036038101906101079190612968565b610547565b005b610128600480360381019061012391906129ed565b61085a565b005b610144600480360381019061013f9190612b8e565b610c08565b604051610155959493929190612e6b565b60405180910390f35b61017860048036038101906101739190612968565b610e91565b005b610194600480360381019061018f9190612968565b6111c9565b005b6101b060048036038101906101ab9190612968565b61139c565b005b6101cc60048036038101906101c79190612eff565b6116a9565b005b6101e860048036038101906101e39190612968565b6119f2565b005b61020460048036038101906101ff9190612f5f565b611c94565b005b610220600480360381019061021b9190612968565b611fc9565b005b61023c60048036038101906102379190612968565b6122d6565b005b600260009054906101000a900473ffffffffffffffffffffffffffffffffffffffff1673ffffffffffffffffffffffffffffffffffffffff163373ffffffffffffffffffffffffffffffffffffffff16146102ce576040517f08c379a00000000000000000000000000000000000000000000000000000000081526004016102c59061302c565b60405180910390fd5b81818080601f016020809104026020016040519081016040528093929190818152602001838380828437600081840152601f19601f8201169050808301925050505050505060016000610320836125fd565b9050600080600102600360008481526020019081526020016000206000015414159050600060036000848152602001908152602001600020600201600160036000868152602001908152602001600020600201805490506103819190613085565b81548110610392576103916130b9565b5b90600052602060002090602091828204019190069054906101000a900460ff169050600060010283141580156103c55750815b80156103f457508360098111156103df576103de612c1c565b5b8160098111156103f2576103f1612c1c565b5b145b610433576040517f08c379a000000000000000000000000000000000000000000000000000000000815260040161042a90613134565b60405180910390fd5b600061048288888080601f016020809104026020016040519081016040528093929190818152602001838380828437600081840152601f19601f820116905080830192505050505050506125fd565b905060036000828152602001908152602001600020600201600290806001815401808255809150506001900390600052602060002090602091828204019190069091909190916101000a81548160ff021916908360098111156104e8576104e7612c1c565b5b02179055503373ffffffffffffffffffffffffffffffffffffffff167f0cdd49fa6677e6748e3e1adfa06f5190776179323cc7e22c98124b1a389b16398989604051610535929190613181565b60405180910390a25050505050505050565b600260009054906101000a900473ffffffffffffffffffffffffffffffffffffffff1673ffffffffffffffffffffffffffffffffffffffff163373ffffffffffffffffffffffffffffffffffffffff16146105d7576040517f08c379a00000000000000000000000000000000000000000000000000000000081526004016105ce9061302c565b60405180910390fd5b81818080601f016020809104026020016040519081016040528093929190818152602001838380828437600081840152601f19601f8201169050808301925050505050505060076000610629836125fd565b90506000806001026003600084815260200190815260200160002060000154141590506000600360008481526020019081526020016000206002016001600360008681526020019081526020016000206002018054905061068a9190613085565b8154811061069b5761069a6130b9565b5b90600052602060002090602091828204019190069054906101000a900460ff169050600060010283141580156106ce5750815b80156106fd57508360098111156106e8576106e7612c1c565b5b8160098111156106fb576106fa612c1c565b5b145b61073c576040517f08c379a000000000000000000000000000000000000000000000000000000000815260040161073390613134565b60405180910390fd5b600061078b88888080601f016020809104026020016040519081016040528093929190818152602001838380828437600081840152601f19601f820116905080830192505050505050506125fd565b905060036000828152602001908152602001600020600201600990806001815401808255809150506001900390600052602060002090602091828204019190069091909190916101000a81548160ff021916908360098111156107f1576107f0612c1c565b5b02179055503373ffffffffffffffffffffffffffffffffffffffff167f073de82d88156d14cc9f4fa2fc499d75691d723d77064ea1f941dfc434fdbfe8898961083985612675565b604051610848939291906131a5565b60405180910390a25050505050505050565b600160009054906101000a900473ffffffffffffffffffffffffffffffffffffffff1673ffffffffffffffffffffffffffffffffffffffff163373ffffffffffffffffffffffffffffffffffffffff16146108ea576040517f08c379a00000000000000000000000000000000000000000000000000000000081526004016108e190613223565b60405180910390fd5b82828080601f016020809104026020016040519081016040528093929190818152602001838380828437600081840152601f19601f820116905080830192505050505050506003600061093c836125fd565b90506000806001026003600084815260200190815260200160002060000154141590506000600360008481526020019081526020016000206002016001600360008681526020019081526020016000206002018054905061099d9190613085565b815481106109ae576109ad6130b9565b5b90600052602060002090602091828204019190069054906101000a900460ff169050600060010283141580156109e15750815b8015610a1057508360098111156109fb576109fa612c1c565b5b816009811115610a0e57610a0d612c1c565b5b145b610a4f576040517f08c379a0000000000000000000000000000000000000000000000000000000008152600401610a4690613134565b60405180910390fd5b6000610a9e89898080601f016020809104026020016040519081016040528093929190818152602001838380828437600081840152601f19601f820116905080830192505050505050506125fd565b90508615610b435760036000828152602001908152602001600020600201600490806001815401808255809150506001900390600052602060002090602091828204019190069091909190916101000a81548160ff02191690836009811115610b0a57610b09612c1c565b5b021790555060016003600083815260200190815260200160002060010160006101000a81548160ff021916908315150217905550610bfd565b60036000828152602001908152602001600020600201600590806001815401808255809150506001900390600052602060002090602091828204019190069091909190916101000a81548160ff02191690836009811115610ba757610ba6612c1c565b5b02179055503373ffffffffffffffffffffffffffffffffffffffff167fa361c37b9b9279fb76c5b2f6766e0c6329c08bcca7bd57140b98e24f8f9dc3698a8a604051610bf4929190613181565b60405180910390a25b505050505050505050565b600060606000606080856000610c1d826125fd565b905060006001028114158015610c4d57506000600102600360008381526020019081526020016000206000015414155b610c8c576040517f08c379a0000000000000000000000000000000000000000000000000000000008152600401610c839061328f565b60405180910390fd5b6000610c97896125fd565b90506003600082815260200190815260200160002060000154600360008381526020019081526020016000206002016003600084815260200190815260200160002060010160009054906101000a900460ff16600360008581526020019081526020016000206003016003600086815260200190815260200160002060040183805480602002602001604051908101604052809291908181526020018280548015610d9657602002820191906000526020600020906000905b82829054906101000a900460ff166009811115610d7057610d6f612c1c565b5b81526020019060010190602082600001049283019260010382029150808411610d505790505b5050505050935081805480602002602001604051908101604052809291908181526020018280548015610de857602002820191906000526020600020905b815481526020019060010190808311610dd4575b50505050509150808054610dfb906132de565b80601f0160208091040260200160405190810160405280929190818152602001828054610e27906132de565b8015610e745780601f10610e4957610100808354040283529160200191610e74565b820191906000526020600020905b815481529060010190602001808311610e5757829003601f168201915b505050505090509750975097509750975050505091939590929450565b600260009054906101000a900473ffffffffffffffffffffffffffffffffffffffff1673ffffffffffffffffffffffffffffffffffffffff163373ffffffffffffffffffffffffffffffffffffffff1614610f21576040517f08c379a0000000000000000000000000000000000000000000000000000000008152600401610f189061302c565b60405180910390fd5b81818080601f016020809104026020016040519081016040528093929190818152602001838380828437600081840152601f19601f8201169050808301925050505050505060056000610f73836125fd565b905060008060010260036000848152602001908152602001600020600001541415905060006003600084815260200190815260200160002060020160016003600086815260200190815260200160002060020180549050610fd49190613085565b81548110610fe557610fe46130b9565b5b90600052602060002090602091828204019190069054906101000a900460ff169050600060010283141580156110185750815b8015611047575083600981111561103257611031612c1c565b5b81600981111561104557611044612c1c565b5b145b611086576040517f08c379a000000000000000000000000000000000000000000000000000000000815260040161107d90613134565b60405180910390fd5b60006110d588888080601f016020809104026020016040519081016040528093929190818152602001838380828437600081840152601f19601f820116905080830192505050505050506125fd565b905060036000828152602001908152602001600020600201600690806001815401808255809150506001900390600052602060002090602091828204019190069091909190916101000a81548160ff0219169083600981111561113b5761113a612c1c565b5b021790555060006003600083815260200190815260200160002060010160006101000a81548160ff0219169083151502179055503373ffffffffffffffffffffffffffffffffffffffff167fcf23c84b97507296743c82bc5af85b760c38e0602755fb48fe72f009b0f30f4889896040516111b7929190613181565b60405180910390a25050505050505050565b81818080601f016020809104026020016040519081016040528093929190818152602001838380828437600081840152601f19601f820116905080830192505050505050506000611219826125fd565b90506000600102811415801561124957506000600102600360008381526020019081526020016000206000015414155b611288576040517f08c379a000000000000000000000000000000000000000000000000000000000815260040161127f9061328f565b60405180910390fd5b60006112d785858080601f016020809104026020016040519081016040528093929190818152602001838380828437600081840152601f19601f820116905080830192505050505050506125fd565b905060008054906101000a900473ffffffffffffffffffffffffffffffffffffffff1673ffffffffffffffffffffffffffffffffffffffff1663757bec56600360008481526020019081526020016000206004016040518263ffffffff167c010000000000000000000000000000000000000000000000000000000002815260040161136391906133a5565b600060405180830381600087803b15801561137d57600080fd5b505af1158015611391573d6000803e3d6000fd5b505050505050505050565b600160009054906101000a900473ffffffffffffffffffffffffffffffffffffffff1673ffffffffffffffffffffffffffffffffffffffff163373ffffffffffffffffffffffffffffffffffffffff161461142c576040517f08c379a000000000000000000000000000000000000000000000000000000000815260040161142390613223565b60405180910390fd5b81818080601f016020809104026020016040519081016040528093929190818152602001838380828437600081840152601f19601f820116905080830192505050505050506001600061147e836125fd565b9050600080600102600360008481526020019081526020016000206000015414159050821561152857600060010282141580156114b85750805b80156114e457506003600083815260200190815260200160002060010160009054906101000a900460ff165b611523576040517f08c379a000000000000000000000000000000000000000000000000000000000815260040161151a90613413565b60405180910390fd5b611596565b80158061155657506003600083815260200190815260200160002060010160009054906101000a900460ff16155b611595576040517f08c379a000000000000000000000000000000000000000000000000000000000815260040161158c9061347f565b60405180910390fd5b5b60006115e587878080601f016020809104026020016040519081016040528093929190818152602001838380828437600081840152601f19601f820116905080830192505050505050506125fd565b905060036000828152602001908152602001600020600201600590806001815401808255809150506001900390600052602060002090602091828204019190069091909190916101000a81548160ff0219169083600981111561164b5761164a612c1c565b5b02179055503373ffffffffffffffffffffffffffffffffffffffff167fa361c37b9b9279fb76c5b2f6766e0c6329c08bcca7bd57140b98e24f8f9dc3698888604051611698929190613181565b60405180910390a250505050505050565b600260009054906101000a900473ffffffffffffffffffffffffffffffffffffffff1673ffffffffffffffffffffffffffffffffffffffff163373ffffffffffffffffffffffffffffffffffffffff1614611739576040517f08c379a00000000000000000000000000000000000000000000000000000000081526004016117309061302c565b60405180910390fd5b82828080601f016020809104026020016040519081016040528093929190818152602001838380828437600081840152601f19601f820116905080830192505050505050506002600061178b836125fd565b9050600080600102600360008481526020019081526020016000206000015414159050600060036000848152602001908152602001600020600201600160036000868152602001908152602001600020600201805490506117ec9190613085565b815481106117fd576117fc6130b9565b5b90600052602060002090602091828204019190069054906101000a900460ff169050600060010283141580156118305750815b801561185f575083600981111561184a57611849612c1c565b5b81600981111561185d5761185c612c1c565b5b145b61189e576040517f08c379a000000000000000000000000000000000000000000000000000000000815260040161189590613134565b60405180910390fd5b60006118ed89898080601f016020809104026020016040519081016040528093929190818152602001838380828437600081840152601f19601f820116905080830192505050505050506125fd565b905060036000828152602001908152602001600020600201600390806001815401808255809150506001900390600052602060002090602091828204019190069091909190916101000a81548160ff0219169083600981111561195357611952612c1c565b5b0217905550600360008281526020019081526020016000206003018790806001815401808255809150506001900390600052602060002001600090919091909150553373ffffffffffffffffffffffffffffffffffffffff167fd584ede0e1da1abff4dac6b0e56f891f2b01d81083c9d9699beacac28f446b148a8a8a6040516119df9392919061349f565b60405180910390a2505050505050505050565b81818080601f016020809104026020016040519081016040528093929190818152602001838380828437600081840152601f19601f820116905080830192505050505050506000611a42826125fd565b905060006001028114158015611a7257506000600102600360008381526020019081526020016000206000015414155b611ab1576040517f08c379a0000000000000000000000000000000000000000000000000000000008152600401611aa89061328f565b60405180910390fd5b6000611b0085858080601f016020809104026020016040519081016040528093929190818152602001838380828437600081840152601f19601f820116905080830192505050505050506125fd565b905060008060009054906101000a900473ffffffffffffffffffffffffffffffffffffffff1673ffffffffffffffffffffffffffffffffffffffff166397307a8b600360008581526020019081526020016000206004016040518263ffffffff167c0100000000000000000000000000000000000000000000000000000000028152600401611b8f91906133a5565b60206040518083038186803b158015611ba757600080fd5b505afa158015611bbb573d6000803e3d6000fd5b505050506040513d601f19601f82011682018060405250810190611bdf91906134e6565b6003600084815260200190815260200160002060030160016003600086815260200190815260200160002060030180549050611c1b9190613085565b81548110611c2c57611c2b6130b9565b5b90600052602060002001541490503373ffffffffffffffffffffffffffffffffffffffff167fd7dfc97522aa90bc9b157e5e2783f9522028562ec86873e0093f066ed062c447878784604051611c84939291906131a5565b60405180910390a2505050505050565b600260009054906101000a900473ffffffffffffffffffffffffffffffffffffffff1673ffffffffffffffffffffffffffffffffffffffff163373ffffffffffffffffffffffffffffffffffffffff1614611d24576040517f08c379a0000000000000000000000000000000000000000000000000000000008152600401611d1b9061302c565b60405180910390fd5b83838080601f016020809104026020016040519081016040528093929190818152602001838380828437600081840152601f19601f8201169050808301925050505050505060076000611d76836125fd565b905060008060010260036000848152602001908152602001600020600001541415905060006003600084815260200190815260200160002060020160016003600086815260200190815260200160002060020180549050611dd79190613085565b81548110611de857611de76130b9565b5b90600052602060002090602091828204019190069054906101000a900460ff16905060006001028314158015611e1b5750815b8015611e4a5750836009811115611e3557611e34612c1c565b5b816009811115611e4857611e47612c1c565b5b145b611e89576040517f08c379a0000000000000000000000000000000000000000000000000000000008152600401611e8090613134565b60405180910390fd5b6000611ed88a8a8080601f016020809104026020016040519081016040528093929190818152602001838380828437600081840152601f19601f820116905080830192505050505050506125fd565b905060036000828152602001908152602001600020600201600890806001815401808255809150506001900390600052602060002090602091828204019190069091909190916101000a81548160ff02191690836009811115611f3e57611f3d612c1c565b5b02179055508787600360008481526020019081526020016000206004019190611f6892919061284c565b503373ffffffffffffffffffffffffffffffffffffffff167f287a137e6d755097d78d1cb8fd52fec9af76644de921def1f86c108a4e6b18f28b8b8b8b604051611fb59493929190613513565b60405180910390a250505050505050505050565b600160009054906101000a900473ffffffffffffffffffffffffffffffffffffffff1673ffffffffffffffffffffffffffffffffffffffff163373ffffffffffffffffffffffffffffffffffffffff1614612059576040517f08c379a000000000000000000000000000000000000000000000000000000000815260040161205090613223565b60405180910390fd5b81818080601f016020809104026020016040519081016040528093929190818152602001838380828437600081840152601f19601f82011690508083019250505050505050600160006120ab836125fd565b9050600080600102600360008481526020019081526020016000206000015414159050821561215557600060010282141580156120e55750805b801561211157506003600083815260200190815260200160002060010160009054906101000a900460ff165b612150576040517f08c379a000000000000000000000000000000000000000000000000000000000815260040161214790613413565b60405180910390fd5b6121c3565b80158061218357506003600083815260200190815260200160002060010160009054906101000a900460ff16155b6121c2576040517f08c379a00000000000000000000000000000000000000000000000000000000081526004016121b99061347f565b60405180910390fd5b5b600061221287878080601f016020809104026020016040519081016040528093929190818152602001838380828437600081840152601f19601f820116905080830192505050505050506125fd565b905060036000828152602001908152602001600020600201600790806001815401808255809150506001900390600052602060002090602091828204019190069091909190916101000a81548160ff0219169083600981111561227857612277612c1c565b5b02179055503373ffffffffffffffffffffffffffffffffffffffff167faae6d576c29601c16cbc3bced4dafc70f0abfef5177650d5853efbec130759dd88886040516122c5929190613181565b60405180910390a250505050505050565b600160009054906101000a900473ffffffffffffffffffffffffffffffffffffffff1673ffffffffffffffffffffffffffffffffffffffff163373ffffffffffffffffffffffffffffffffffffffff1614612366576040517f08c379a000000000000000000000000000000000000000000000000000000000815260040161235d90613223565b60405180910390fd5b81818080601f016020809104026020016040519081016040528093929190818152602001838380828437600081840152601f19601f820116905080830192505050505050506000806123b7836125fd565b9050600080600102600360008481526020019081526020016000206000015414159050821561246157600060010282141580156123f15750805b801561241d57506003600083815260200190815260200160002060010160009054906101000a900460ff165b61245c576040517f08c379a000000000000000000000000000000000000000000000000000000000815260040161245390613413565b60405180910390fd5b6124cf565b80158061248f57506003600083815260200190815260200160002060010160009054906101000a900460ff16155b6124ce576040517f08c379a00000000000000000000000000000000000000000000000000000000081526004016124c59061347f565b60405180910390fd5b5b600061251e87878080601f016020809104026020016040519081016040528093929190818152602001838380828437600081840152601f19601f820116905080830192505050505050506125fd565b905080600360008381526020019081526020016000206000018190555060036000828152602001908152602001600020600201600190806001815401808255809150506001900390600052602060002090602091828204019190069091909190916101000a81548160ff0219169083600981111561259f5761259e612c1c565b5b02179055503373ffffffffffffffffffffffffffffffffffffffff167f0a338d53f2364c56ade57292015e6d691e408e69261b6f1106d2dd2b5c8e92ac88886040516125ec929190613181565b60405180910390a250505050505050565b6000600282604051602001612612919061358a565b60405160208183030381529060405260405161262e91906135e8565b602060405180830381855afa15801561264b573d6000803e3d6000fd5b5050506040513d601f19601f8201168201806040525081019061266e91906134e6565b9050919050565b60008060009050612687836005612699565b61269057600190505b80915050919050565b60008060008060009050600080600360008981526020019081526020016000206002018054905090505b6000811115612833578115801561275057508660098111156126e8576126e7612c1c565b5b600360008a815260200190815260200160002060020160018361270b9190613085565b8154811061271c5761271b6130b9565b5b90600052602060002090602091828204019190069054906101000a900460ff16600981111561274e5761274d612c1c565b5b145b1561276d576001816127629190613085565b93506001915061280c565b821580156127f257506004600981111561278a57612789612c1c565b5b600360008a81526020019081526020016000206002016001836127ad9190613085565b815481106127be576127bd6130b9565b5b90600052602060002090602091828204019190069054906101000a900460ff1660098111156127f0576127ef612c1c565b5b145b1561280b576001816128049190613085565b9450600192505b5b8180156128165750825b1561282057612833565b808061282b906135ff565b9150506126c3565b5080801561284057508383115b94505050505092915050565b828054612858906132de565b90600052602060002090601f01602090048101928261287a57600085556128c1565b82601f1061289357803560ff19168380011785556128c1565b828001600101855582156128c1579182015b828111156128c05782358255916020019190600101906128a5565b5b5090506128ce91906128d2565b5090565b5b808211156128eb5760008160009055506001016128d3565b5090565b6000604051905090565b600080fd5b600080fd5b600080fd5b600080fd5b600080fd5b60008083601f84011261292857612927612903565b5b8235905067ffffffffffffffff81111561294557612944612908565b5b6020830191508360018202830111156129615761296061290d565b5b9250929050565b6000806020838503121561297f5761297e6128f9565b5b600083013567ffffffffffffffff81111561299d5761299c6128fe565b5b6129a985828601612912565b92509250509250929050565b60008115159050919050565b6129ca816129b5565b81146129d557600080fd5b50565b6000813590506129e7816129c1565b92915050565b600080600060408486031215612a0657612a056128f9565b5b600084013567ffffffffffffffff811115612a2457612a236128fe565b5b612a3086828701612912565b93509350506020612a43868287016129d8565b9150509250925092565b600080fd5b6000601f19601f8301169050919050565b7f4e487b7100000000000000000000000000000000000000000000000000000000600052604160045260246000fd5b612a9b82612a52565b810181811067ffffffffffffffff82111715612aba57612ab9612a63565b5b80604052505050565b6000612acd6128ef565b9050612ad98282612a92565b919050565b600067ffffffffffffffff821115612af957612af8612a63565b5b612b0282612a52565b9050602081019050919050565b82818337600083830152505050565b6000612b31612b2c84612ade565b612ac3565b905082815260208101848484011115612b4d57612b4c612a4d565b5b612b58848285612b0f565b509392505050565b600082601f830112612b7557612b74612903565b5b8135612b85848260208601612b1e565b91505092915050565b600060208284031215612ba457612ba36128f9565b5b600082013567ffffffffffffffff811115612bc257612bc16128fe565b5b612bce84828501612b60565b91505092915050565b6000819050919050565b612bea81612bd7565b82525050565b600081519050919050565b600082825260208201905092915050565b6000819050602082019050919050565b7f4e487b7100000000000000000000000000000000000000000000000000000000600052602160045260246000fd5b600a8110612c5c57612c5b612c1c565b5b50565b6000819050612c6d82612c4b565b919050565b6000612c7d82612c5f565b9050919050565b612c8d81612c72565b82525050565b6000612c9f8383612c84565b60208301905092915050565b6000602082019050919050565b6000612cc382612bf0565b612ccd8185612bfb565b9350612cd883612c0c565b8060005b83811015612d09578151612cf08882612c93565b9750612cfb83612cab565b925050600181019050612cdc565b5085935050505092915050565b612d1f816129b5565b82525050565b600081519050919050565b600082825260208201905092915050565b6000819050602082019050919050565b612d5a81612bd7565b82525050565b6000612d6c8383612d51565b60208301905092915050565b6000602082019050919050565b6000612d9082612d25565b612d9a8185612d30565b9350612da583612d41565b8060005b83811015612dd6578151612dbd8882612d60565b9750612dc883612d78565b925050600181019050612da9565b5085935050505092915050565b600081519050919050565b600082825260208201905092915050565b60005b83811015612e1d578082015181840152602081019050612e02565b83811115612e2c576000848401525b50505050565b6000612e3d82612de3565b612e478185612dee565b9350612e57818560208601612dff565b612e6081612a52565b840191505092915050565b600060a082019050612e806000830188612be1565b8181036020830152612e928187612cb8565b9050612ea16040830186612d16565b8181036060830152612eb38185612d85565b90508181036080830152612ec78184612e32565b90509695505050505050565b612edc81612bd7565b8114612ee757600080fd5b50565b600081359050612ef981612ed3565b92915050565b600080600060408486031215612f1857612f176128f9565b5b600084013567ffffffffffffffff811115612f3657612f356128fe565b5b612f4286828701612912565b93509350506020612f5586828701612eea565b9150509250925092565b60008060008060408587031215612f7957612f786128f9565b5b600085013567ffffffffffffffff811115612f9757612f966128fe565b5b612fa387828801612912565b9450945050602085013567ffffffffffffffff811115612fc657612fc56128fe565b5b612fd287828801612912565b925092505092959194509250565b7f4f6e6c79436c6f75640000000000000000000000000000000000000000000000600082015250565b6000613016600983612dee565b915061302182612fe0565b602082019050919050565b6000602082019050818103600083015261304581613009565b9050919050565b6000819050919050565b7f4e487b7100000000000000000000000000000000000000000000000000000000600052601160045260246000fd5b60006130908261304c565b915061309b8361304c565b9250828210156130ae576130ad613056565b5b828203905092915050565b7f4e487b7100000000000000000000000000000000000000000000000000000000600052603260045260246000fd5b7f46696c6553746174650000000000000000000000000000000000000000000000600082015250565b600061311e600983612dee565b9150613129826130e8565b602082019050919050565b6000602082019050818103600083015261314d81613111565b9050919050565b60006131608385612dee565b935061316d838584612b0f565b61317683612a52565b840190509392505050565b6000602082019050818103600083015261319c818486613154565b90509392505050565b600060408201905081810360008301526131c0818587613154565b90506131cf6020830184612d16565b949350505050565b7f4f6e6c7955736572000000000000000000000000000000000000000000000000600082015250565b600061320d600883612dee565b9150613218826131d7565b602082019050919050565b6000602082019050818103600083015261323c81613200565b9050919050565b7f46696c65496e4243000000000000000000000000000000000000000000000000600082015250565b6000613279600883612dee565b915061328482613243565b602082019050919050565b600060208201905081810360008301526132a88161326c565b9050919050565b7f4e487b7100000000000000000000000000000000000000000000000000000000600052602260045260246000fd5b600060028204905060018216806132f657607f821691505b6020821081141561330a576133096132af565b5b50919050565b60008190508160005260206000209050919050565b60008154613332816132de565b61333c8186612dee565b9450600182166000811461335757600181146133695761339c565b60ff198316865260208601935061339c565b61337285613310565b60005b8381101561339457815481890152600182019150602081019050613375565b808801955050505b50505092915050565b600060208201905081810360008301526133bf8184613325565b905092915050565b7f46696c654f6e436c6f7564000000000000000000000000000000000000000000600082015250565b60006133fd600b83612dee565b9150613408826133c7565b602082019050919050565b6000602082019050818103600083015261342c816133f0565b9050919050565b7f46696c654e6f744f6e436c6f7564000000000000000000000000000000000000600082015250565b6000613469600e83612dee565b915061347482613433565b602082019050919050565b600060208201905081810360008301526134988161345c565b9050919050565b600060408201905081810360008301526134ba818587613154565b90506134c96020830184612be1565b949350505050565b6000815190506134e081612ed3565b92915050565b6000602082840312156134fc576134fb6128f9565b5b600061350a848285016134d1565b91505092915050565b6000604082019050818103600083015261352e818688613154565b90508181036020830152613543818486613154565b905095945050505050565b600081905092915050565b600061356482612de3565b61356e818561354e565b935061357e818560208601612dff565b80840191505092915050565b60006135968284613559565b915081905092915050565b600081519050919050565b600081905092915050565b60006135c2826135a1565b6135cc81856135ac565b93506135dc818560208601612dff565b80840191505092915050565b60006135f482846135b7565b915081905092915050565b600061360a8261304c565b9150600082141561361e5761361d613056565b5b60018203905091905056fea26469706673582212201dd9245d94a583e7c62a6de95803f38129cfd58ecfe36ce300c1b16de2ab17d564736f6c63430008090033",
  "immutableReferences": {},
  "source": "// SPDX-License-Identifier: MIT\r\npragma solidity ^0.8.0;\r\npragma experimental ABIEncoderV2;\r\n\r\n/**\r\n * @title CloudSLA\r\n * @dev \r\n */\r\ncontract CloudSLA {\r\n    address private oracle = 0x0a143BDF026Eabaf95d3E88AbB88169674Db92f5;\r\n    address private user = 0x627306090abaB3A6e1400e9345bC60c78a8BEf57;\r\n    address private cloud;\r\n    \r\n    /*struct Sla{\r\n        uint price;\r\n        bool paid;\r\n        uint violationCount;\r\n        uint monitoringPeriod;\r\n    }*/\r\n    \r\n    enum State {defaultValue, uploadRequested, uploadRequestAck, uploadTransferAck, uploaded, \r\n                deleteRequested, deleted, readRequested, readRequestAck, readDeny }\r\n\r\n    struct File {\r\n        bytes32 ID;         //hash of filepath\r\n        bool onCloud;\r\n        State[] states;   \r\n        bytes32[] digests;     //hash of last content\r\n        string url;         //hash of last url\r\n    }\r\n    \r\n    //Sla private sla;\r\n    mapping ( bytes32 => File ) private files;\r\n    \r\n    \r\n    function Hash(string memory str) private pure returns(bytes32){\r\n        return (sha256(abi.encodePacked(str)));\r\n    }\r\n    \r\n    modifier OnlyUser {require (msg.sender == user, \"OnlyUser\"); _;}\r\n    modifier OnlyCloud {require (msg.sender == cloud, \"OnlyCloud\"); _;}\r\n    modifier FileInBC (string memory filepath) {\r\n        bytes32 i = Hash(filepath);\r\n        require (i != 0x0 && files[i].ID != 0x0, \"FileInBC\");\r\n        _;\r\n    }\r\n    modifier FileOnCloud (string memory filepath, bool onCloud) {\r\n        bytes32 i = Hash(filepath);\r\n        bool inBC = files[i].ID != 0x0;\r\n        if (onCloud)\r\n            require (i != 0x0 && inBC && files[i].onCloud, \"FileOnCloud\");\r\n        else\r\n            require (! inBC ||  ! files[i].onCloud, \"FileNotOnCloud\");\r\n        _;\r\n    }\r\n    modifier FileState (string memory filepath, State prevState) {\r\n        bytes32 i = Hash(filepath);\r\n        bool inBC = files[i].ID != 0x0;\r\n        State lastState = files[i].states[files[i].states.length - 1];\r\n        require (i != 0x0 && inBC && lastState == prevState, \"FileState\");\r\n        _;\r\n    }\r\n    \r\n    event UploadRequested(address indexed _from, string filepath);\r\n    event UploadRequestAcked(address indexed _from, string filepath);\r\n    event UploadTransferAcked(address indexed _from, string filepath, bytes32 digest);\r\n    event DeleteRequested(address indexed _from, string filepath);\r\n    event Deleted(address indexed _from, string filepath);\r\n    event ReadRequested(address indexed _from, string filepath);\r\n    event ReadRequestAcked(address indexed _from, string filepath, string url);\r\n    event ReadRequestDenied(address indexed _from, string filepath, bool lostFile);\r\n    event CorruptedFileChecked(address indexed _from, string filepath, bool digestOK);\r\n\r\n    constructor() {\r\n        cloud = msg.sender;\r\n    }\r\n    \r\n    /*function SetUser(address _user) external OnlyCloud{\r\n        user = _user;\r\n    }*/\r\n    \r\n    function UploadRequest(string calldata filepath) external OnlyUser FileOnCloud(filepath, false){\r\n        bytes32 i = Hash(filepath);\r\n        files[i].ID = i;\r\n        files[i].states.push(State.uploadRequested);\r\n        emit UploadRequested(msg.sender, filepath);\r\n    }\r\n    \r\n    function UploadRequestAck(string calldata filepath) external OnlyCloud FileState(filepath, State.uploadRequested){\r\n        bytes32 i = Hash(filepath);\r\n        files[i].states.push(State.uploadRequestAck);\r\n        emit UploadRequestAcked(msg.sender, filepath);\r\n    }\r\n    \r\n    function UploadTransferAck(string calldata filepath, bytes32 digest) external OnlyCloud FileState(filepath, State.uploadRequestAck){\r\n        bytes32 i = Hash(filepath);\r\n        files[i].states.push(State.uploadTransferAck);\r\n        files[i].digests.push(digest);\r\n        emit UploadTransferAcked(msg.sender, filepath, digest);\r\n    }\r\n    \r\n    function UploadConfirm(string calldata filepath, bool ack) external OnlyUser FileState(filepath, State.uploadTransferAck){\r\n        bytes32 i = Hash(filepath);\r\n        if(ack){\r\n            files[i].states.push(State.uploaded); \r\n            files[i].onCloud = true;\r\n        }\r\n        else{\r\n            files[i].states.push(State.deleteRequested);\r\n            emit DeleteRequested(msg.sender, filepath);\r\n        }\r\n    }\r\n    \r\n    function DeleteRequest(string calldata filepath) external OnlyUser FileOnCloud(filepath, true){\r\n        bytes32 i = Hash(filepath);\r\n        files[i].states.push(State.deleteRequested);\r\n        emit DeleteRequested(msg.sender, filepath);\r\n    }\r\n    \r\n    function Delete(string calldata filepath) external OnlyCloud FileState(filepath, State.deleteRequested){\r\n        bytes32 i = Hash(filepath);\r\n        files[i].states.push(State.deleted);\r\n        files[i].onCloud = false;\r\n        emit Deleted(msg.sender, filepath);\r\n    }\r\n    \r\n    function ReadRequest(string calldata filepath) external OnlyUser FileOnCloud(filepath, true){\r\n        bytes32 i = Hash(filepath);\r\n        files[i].states.push(State.readRequested);\r\n        emit ReadRequested(msg.sender, filepath);\r\n    }\r\n    \r\n    function ReadRequestAck(string calldata filepath, string calldata url) external OnlyCloud FileState(filepath, State.readRequested){\r\n        bytes32 i = Hash(filepath);\r\n        files[i].states.push(State.readRequestAck);\r\n        files[i].url = url;\r\n        emit ReadRequestAcked(msg.sender, filepath, url);\r\n    }\r\n    \r\n    function ReadRequestDeny(string calldata filepath) external OnlyCloud FileState(filepath, State.readRequested){\r\n        bytes32 i = Hash(filepath);\r\n        files[i].states.push(State.readDeny);\r\n        emit ReadRequestDenied(msg.sender, filepath, LostFileCheck(i));\r\n    }\r\n    \r\n    //TODO ARBITRATOR\r\n    function GetFile(string memory filepath) public view FileInBC(filepath) returns(bytes32, State [] memory, bool, bytes32 [] memory, string memory){\r\n        bytes32 i = Hash(filepath);\r\n        return (files[i].ID, files[i].states, files[i].onCloud, files[i].digests, files[i].url);\r\n    }\r\n    \r\n    function LostFileCheck(bytes32 ID) internal view returns(bool){\r\n        bool res = false;\r\n        if(!OperationAfterUpload(ID, State.deleteRequested)){\r\n            //TODO Compensate();\r\n            res = true;\r\n        }\r\n        return(res);    \r\n    }\r\n    \r\n    function CorruptedFileCheckRequest(string calldata filepath) external FileInBC(filepath){\r\n        bytes32 i = Hash(filepath);\r\n        FileDigestOracle(oracle).DigestRequest(files[i].url);  \r\n    }\r\n\r\n    function CorruptedFileCheck(string calldata filepath) external FileInBC(filepath){\r\n        bytes32 i = Hash(filepath);\r\n        bool res = (files[i].digests[files[i].digests.length - 1] == FileDigestOracle(oracle).DigestRetrieve(files[i].url));  \r\n        emit CorruptedFileChecked(msg.sender, filepath, res);\r\n    }\r\n    \r\n    /*\r\n    function UndeletedFileCheck(string calldata filepath) external returns(bool){\r\n        bytes32 i = Hash(filepath);\r\n        bool res = false;\r\n        if(OperationAfterUpload(i, \"deleted\")){\r\n            //TODO Compensate();\r\n            res = true;\r\n        }\r\n        return(res);   \r\n    }*/\r\n    \r\n    //check if there is an operation after last upload\r\n    function OperationAfterUpload(bytes32 ID, State operation) internal view returns(bool){\r\n        //get index of last uploaded state and last deleted state if present\r\n        uint uploadedTime;\r\n        uint operationTime;\r\n        bool uploadedFound = false;\r\n        bool operationFound = false;\r\n        for (uint j = files[ID].states.length; j > 0; j--) {\r\n            if(!operationFound && files[ID].states[j-1] == operation){\r\n                operationTime = j-1;   \r\n                operationFound = true;\r\n            }\r\n            else if(!uploadedFound && files[ID].states[j-1] == State.uploaded){\r\n                uploadedTime= j-1;\r\n                uploadedFound = true;\r\n            }\r\n            //early exit\r\n            if(operationFound && uploadedFound)\r\n                break;\r\n        }\r\n        return(operationFound && operationTime > uploadedTime);\r\n    }\r\n    \r\n}\r\n\r\ninterface FileDigestOracle {\r\n    function DigestRequest(string calldata url) external;\r\n    function DigestRetrieve(string calldata url) external view returns(bytes32);\r\n}",
  "sourcePath": "C:\\Users\\paola\\Desktop\\cloud-chain\\contracts\\CloudSLA.sol",
  "compiler": {
    "name": "solc",
    "version": "0.8.9+commit.e5eed63a.Emscripten.clang"
  },
  "schemaVersion": "3.4.3",
  "updatedAt": "2021-10-21T11:01:15.072Z",
  "networkType": "ethereum",
  "devdoc": {
    "kind": "dev",
    "methods": {},
    "title": "CloudSLA",
    "version": 1
  },
  "userdoc": {
    "kind": "user",
    "methods": {},
    "version": 1
  }
}