{
  "contractName": "CloudSLA",
  "abi": [
    {
      "inputs": [],
      "stateMutability": "nonpayable",
      "type": "constructor"
    },
    {
      "anonymous": false,
      "inputs": [
        {
          "indexed": true,
          "internalType": "address",
          "name": "_from",
          "type": "address"
        },
        {
          "indexed": false,
          "internalType": "string",
          "name": "filepath",
          "type": "string"
        }
      ],
      "name": "DeleteRequested",
      "type": "event"
    },
    {
      "anonymous": false,
      "inputs": [
        {
          "indexed": true,
          "internalType": "address",
          "name": "_from",
          "type": "address"
        },
        {
          "indexed": false,
          "internalType": "string",
          "name": "filepath",
          "type": "string"
        }
      ],
      "name": "Deleted",
      "type": "event"
    },
    {
      "anonymous": false,
      "inputs": [
        {
          "indexed": true,
          "internalType": "address",
          "name": "_from",
          "type": "address"
        },
        {
          "indexed": false,
          "internalType": "string",
          "name": "filepath",
          "type": "string"
        },
        {
          "indexed": false,
          "internalType": "string",
          "name": "url",
          "type": "string"
        }
      ],
      "name": "ReadRequestAcked",
      "type": "event"
    },
    {
      "anonymous": false,
      "inputs": [
        {
          "indexed": true,
          "internalType": "address",
          "name": "_from",
          "type": "address"
        },
        {
          "indexed": false,
          "internalType": "string",
          "name": "filepath",
          "type": "string"
        },
        {
          "indexed": false,
          "internalType": "bool",
          "name": "lostFile",
          "type": "bool"
        }
      ],
      "name": "ReadRequestDenied",
      "type": "event"
    },
    {
      "anonymous": false,
      "inputs": [
        {
          "indexed": true,
          "internalType": "address",
          "name": "_from",
          "type": "address"
        },
        {
          "indexed": false,
          "internalType": "string",
          "name": "filepath",
          "type": "string"
        }
      ],
      "name": "ReadRequested",
      "type": "event"
    },
    {
      "anonymous": false,
      "inputs": [
        {
          "indexed": true,
          "internalType": "address",
          "name": "_from",
          "type": "address"
        },
        {
          "indexed": false,
          "internalType": "string",
          "name": "filepath",
          "type": "string"
        }
      ],
      "name": "UploadRequestAcked",
      "type": "event"
    },
    {
      "anonymous": false,
      "inputs": [
        {
          "indexed": true,
          "internalType": "address",
          "name": "_from",
          "type": "address"
        },
        {
          "indexed": false,
          "internalType": "string",
          "name": "filepath",
          "type": "string"
        }
      ],
      "name": "UploadRequested",
      "type": "event"
    },
    {
      "anonymous": false,
      "inputs": [
        {
          "indexed": true,
          "internalType": "address",
          "name": "_from",
          "type": "address"
        },
        {
          "indexed": false,
          "internalType": "string",
          "name": "filepath",
          "type": "string"
        },
        {
          "indexed": false,
          "internalType": "bytes32",
          "name": "digest",
          "type": "bytes32"
        }
      ],
      "name": "UploadTransferAcked",
      "type": "event"
    },
    {
      "inputs": [
        {
          "internalType": "address",
          "name": "_user",
          "type": "address"
        }
      ],
      "name": "SetUser",
      "outputs": [],
      "stateMutability": "nonpayable",
      "type": "function"
    },
    {
      "inputs": [
        {
          "internalType": "string",
          "name": "filepath",
          "type": "string"
        }
      ],
      "name": "UploadRequest",
      "outputs": [],
      "stateMutability": "nonpayable",
      "type": "function"
    },
    {
      "inputs": [
        {
          "internalType": "string",
          "name": "filepath",
          "type": "string"
        }
      ],
      "name": "UploadRequestAck",
      "outputs": [],
      "stateMutability": "nonpayable",
      "type": "function"
    },
    {
      "inputs": [
        {
          "internalType": "string",
          "name": "filepath",
          "type": "string"
        },
        {
          "internalType": "bytes32",
          "name": "digest",
          "type": "bytes32"
        }
      ],
      "name": "UploadTransferAck",
      "outputs": [],
      "stateMutability": "nonpayable",
      "type": "function"
    },
    {
      "inputs": [
        {
          "internalType": "string",
          "name": "filepath",
          "type": "string"
        },
        {
          "internalType": "bool",
          "name": "ack",
          "type": "bool"
        }
      ],
      "name": "UploadConfirm",
      "outputs": [],
      "stateMutability": "nonpayable",
      "type": "function"
    },
    {
      "inputs": [
        {
          "internalType": "string",
          "name": "filepath",
          "type": "string"
        }
      ],
      "name": "DeleteRequest",
      "outputs": [],
      "stateMutability": "nonpayable",
      "type": "function"
    },
    {
      "inputs": [
        {
          "internalType": "string",
          "name": "filepath",
          "type": "string"
        }
      ],
      "name": "Delete",
      "outputs": [],
      "stateMutability": "nonpayable",
      "type": "function"
    },
    {
      "inputs": [
        {
          "internalType": "string",
          "name": "filepath",
          "type": "string"
        }
      ],
      "name": "ReadRequest",
      "outputs": [],
      "stateMutability": "nonpayable",
      "type": "function"
    },
    {
      "inputs": [
        {
          "internalType": "string",
          "name": "filepath",
          "type": "string"
        },
        {
          "internalType": "string",
          "name": "url",
          "type": "string"
        }
      ],
      "name": "ReadRequestAck",
      "outputs": [],
      "stateMutability": "nonpayable",
      "type": "function"
    },
    {
      "inputs": [
        {
          "internalType": "string",
          "name": "filepath",
          "type": "string"
        }
      ],
      "name": "ReadRequestDeny",
      "outputs": [],
      "stateMutability": "nonpayable",
      "type": "function"
    },
    {
      "inputs": [
        {
          "internalType": "string",
          "name": "filepath",
          "type": "string"
        }
      ],
      "name": "GetFile",
      "outputs": [
        {
          "internalType": "bytes32",
          "name": "",
          "type": "bytes32"
        },
        {
          "internalType": "enum CloudSLA.State[]",
          "name": "",
          "type": "uint8[]"
        },
        {
          "internalType": "bool",
          "name": "",
          "type": "bool"
        },
        {
          "internalType": "bytes32[]",
          "name": "",
          "type": "bytes32[]"
        },
        {
          "internalType": "string",
          "name": "",
          "type": "string"
        }
      ],
      "stateMutability": "view",
      "type": "function",
      "constant": true
    },
    {
      "inputs": [
        {
          "internalType": "string",
          "name": "filepath",
          "type": "string"
        }
      ],
      "name": "CorruptedFileCheck",
      "outputs": [
        {
          "internalType": "bool",
          "name": "",
          "type": "bool"
        }
      ],
      "stateMutability": "view",
      "type": "function",
      "constant": true
    }
  ],
  "bytecode": "0x608060405273627306090abab3a6e1400e9345bc60c78a8bef576000806101000a81548173ffffffffffffffffffffffffffffffffffffffff021916908373ffffffffffffffffffffffffffffffffffffffff16021790555034801561006457600080fd5b5033600160006101000a81548173ffffffffffffffffffffffffffffffffffffffff021916908373ffffffffffffffffffffffffffffffffffffffff16021790555061332b806100b56000396000f3fe608060405234801561001057600080fd5b50600436106100d1576000357c0100000000000000000000000000000000000000000000000000000000900480636d6cb6051161008e5780636d6cb605146101965780638991bdc9146101b257806394c4e34d146101ce57806399bdcf21146101fe578063cb95a5bb1461021a578063faef418214610236576100d1565b80630bc12553146100d657806315f18596146100f25780632d77e02c1461010e5780633f7f626e1461012a5780634f10916e1461015e57806369ad4c161461017a575b600080fd5b6100f060048036038101906100eb9190612645565b610252565b005b61010c60048036038101906101079190612645565b61055b565b005b610128600480360381019061012391906126ca565b61086e565b005b610144600480360381019061013f919061286b565b610c1a565b604051610155959493929190612b48565b60405180910390f35b61017860048036038101906101739190612645565b610ea3565b005b610194600480360381019061018f9190612c0e565b6111db565b005b6101b060048036038101906101ab9190612645565b6112ae565b005b6101cc60048036038101906101c79190612c67565b6115b9565b005b6101e860048036038101906101e39190612645565b611902565b6040516101f59190612cc7565b60405180910390f35b61021860048036038101906102139190612ce2565b611975565b005b610234600480360381019061022f9190612645565b611caa565b005b610250600480360381019061024b9190612645565b611fb5565b005b600160009054906101000a900473ffffffffffffffffffffffffffffffffffffffff1673ffffffffffffffffffffffffffffffffffffffff163373ffffffffffffffffffffffffffffffffffffffff16146102e2576040517f08c379a00000000000000000000000000000000000000000000000000000000081526004016102d990612daf565b60405180910390fd5b81818080601f016020809104026020016040519081016040528093929190818152602001838380828437600081840152601f19601f8201169050808301925050505050505060016000610334836122da565b9050600080600102600260008481526020019081526020016000206000015414159050600060026000848152602001908152602001600020600201600160026000868152602001908152602001600020600201805490506103959190612e08565b815481106103a6576103a5612e3c565b5b90600052602060002090602091828204019190069054906101000a900460ff169050600060010283141580156103d95750815b801561040857508360098111156103f3576103f26128f9565b5b816009811115610406576104056128f9565b5b145b610447576040517f08c379a000000000000000000000000000000000000000000000000000000000815260040161043e90612eb7565b60405180910390fd5b600061049688888080601f016020809104026020016040519081016040528093929190818152602001838380828437600081840152601f19601f820116905080830192505050505050506122da565b905060026000828152602001908152602001600020600201600290806001815401808255809150506001900390600052602060002090602091828204019190069091909190916101000a81548160ff021916908360098111156104fc576104fb6128f9565b5b02179055503373ffffffffffffffffffffffffffffffffffffffff167f0cdd49fa6677e6748e3e1adfa06f5190776179323cc7e22c98124b1a389b16398989604051610549929190612f04565b60405180910390a25050505050505050565b600160009054906101000a900473ffffffffffffffffffffffffffffffffffffffff1673ffffffffffffffffffffffffffffffffffffffff163373ffffffffffffffffffffffffffffffffffffffff16146105eb576040517f08c379a00000000000000000000000000000000000000000000000000000000081526004016105e290612daf565b60405180910390fd5b81818080601f016020809104026020016040519081016040528093929190818152602001838380828437600081840152601f19601f820116905080830192505050505050506007600061063d836122da565b90506000806001026002600084815260200190815260200160002060000154141590506000600260008481526020019081526020016000206002016001600260008681526020019081526020016000206002018054905061069e9190612e08565b815481106106af576106ae612e3c565b5b90600052602060002090602091828204019190069054906101000a900460ff169050600060010283141580156106e25750815b801561071157508360098111156106fc576106fb6128f9565b5b81600981111561070f5761070e6128f9565b5b145b610750576040517f08c379a000000000000000000000000000000000000000000000000000000000815260040161074790612eb7565b60405180910390fd5b600061079f88888080601f016020809104026020016040519081016040528093929190818152602001838380828437600081840152601f19601f820116905080830192505050505050506122da565b905060026000828152602001908152602001600020600201600990806001815401808255809150506001900390600052602060002090602091828204019190069091909190916101000a81548160ff02191690836009811115610805576108046128f9565b5b02179055503373ffffffffffffffffffffffffffffffffffffffff167f073de82d88156d14cc9f4fa2fc499d75691d723d77064ea1f941dfc434fdbfe8898961084d85612352565b60405161085c93929190612f28565b60405180910390a25050505050505050565b60008054906101000a900473ffffffffffffffffffffffffffffffffffffffff1673ffffffffffffffffffffffffffffffffffffffff163373ffffffffffffffffffffffffffffffffffffffff16146108fc576040517f08c379a00000000000000000000000000000000000000000000000000000000081526004016108f390612fa6565b60405180910390fd5b82828080601f016020809104026020016040519081016040528093929190818152602001838380828437600081840152601f19601f820116905080830192505050505050506003600061094e836122da565b9050600080600102600260008481526020019081526020016000206000015414159050600060026000848152602001908152602001600020600201600160026000868152602001908152602001600020600201805490506109af9190612e08565b815481106109c0576109bf612e3c565b5b90600052602060002090602091828204019190069054906101000a900460ff169050600060010283141580156109f35750815b8015610a225750836009811115610a0d57610a0c6128f9565b5b816009811115610a2057610a1f6128f9565b5b145b610a61576040517f08c379a0000000000000000000000000000000000000000000000000000000008152600401610a5890612eb7565b60405180910390fd5b6000610ab089898080601f016020809104026020016040519081016040528093929190818152602001838380828437600081840152601f19601f820116905080830192505050505050506122da565b90508615610b555760026000828152602001908152602001600020600201600490806001815401808255809150506001900390600052602060002090602091828204019190069091909190916101000a81548160ff02191690836009811115610b1c57610b1b6128f9565b5b021790555060016002600083815260200190815260200160002060010160006101000a81548160ff021916908315150217905550610c0f565b60026000828152602001908152602001600020600201600590806001815401808255809150506001900390600052602060002090602091828204019190069091909190916101000a81548160ff02191690836009811115610bb957610bb86128f9565b5b02179055503373ffffffffffffffffffffffffffffffffffffffff167fa361c37b9b9279fb76c5b2f6766e0c6329c08bcca7bd57140b98e24f8f9dc3698a8a604051610c06929190612f04565b60405180910390a25b505050505050505050565b600060606000606080856000610c2f826122da565b905060006001028114158015610c5f57506000600102600260008381526020019081526020016000206000015414155b610c9e576040517f08c379a0000000000000000000000000000000000000000000000000000000008152600401610c9590613012565b60405180910390fd5b6000610ca9896122da565b90506002600082815260200190815260200160002060000154600260008381526020019081526020016000206002016002600084815260200190815260200160002060010160009054906101000a900460ff16600260008581526020019081526020016000206003016002600086815260200190815260200160002060040183805480602002602001604051908101604052809291908181526020018280548015610da857602002820191906000526020600020906000905b82829054906101000a900460ff166009811115610d8257610d816128f9565b5b81526020019060010190602082600001049283019260010382029150808411610d625790505b5050505050935081805480602002602001604051908101604052809291908181526020018280548015610dfa57602002820191906000526020600020905b815481526020019060010190808311610de6575b50505050509150808054610e0d90613061565b80601f0160208091040260200160405190810160405280929190818152602001828054610e3990613061565b8015610e865780601f10610e5b57610100808354040283529160200191610e86565b820191906000526020600020905b815481529060010190602001808311610e6957829003601f168201915b505050505090509750975097509750975050505091939590929450565b600160009054906101000a900473ffffffffffffffffffffffffffffffffffffffff1673ffffffffffffffffffffffffffffffffffffffff163373ffffffffffffffffffffffffffffffffffffffff1614610f33576040517f08c379a0000000000000000000000000000000000000000000000000000000008152600401610f2a90612daf565b60405180910390fd5b81818080601f016020809104026020016040519081016040528093929190818152602001838380828437600081840152601f19601f8201169050808301925050505050505060056000610f85836122da565b905060008060010260026000848152602001908152602001600020600001541415905060006002600084815260200190815260200160002060020160016002600086815260200190815260200160002060020180549050610fe69190612e08565b81548110610ff757610ff6612e3c565b5b90600052602060002090602091828204019190069054906101000a900460ff1690506000600102831415801561102a5750815b80156110595750836009811115611044576110436128f9565b5b816009811115611057576110566128f9565b5b145b611098576040517f08c379a000000000000000000000000000000000000000000000000000000000815260040161108f90612eb7565b60405180910390fd5b60006110e788888080601f016020809104026020016040519081016040528093929190818152602001838380828437600081840152601f19601f820116905080830192505050505050506122da565b905060026000828152602001908152602001600020600201600690806001815401808255809150506001900390600052602060002090602091828204019190069091909190916101000a81548160ff0219169083600981111561114d5761114c6128f9565b5b021790555060006002600083815260200190815260200160002060010160006101000a81548160ff0219169083151502179055503373ffffffffffffffffffffffffffffffffffffffff167fcf23c84b97507296743c82bc5af85b760c38e0602755fb48fe72f009b0f30f4889896040516111c9929190612f04565b60405180910390a25050505050505050565b600160009054906101000a900473ffffffffffffffffffffffffffffffffffffffff1673ffffffffffffffffffffffffffffffffffffffff163373ffffffffffffffffffffffffffffffffffffffff161461126b576040517f08c379a000000000000000000000000000000000000000000000000000000000815260040161126290612daf565b60405180910390fd5b806000806101000a81548173ffffffffffffffffffffffffffffffffffffffff021916908373ffffffffffffffffffffffffffffffffffffffff16021790555050565b60008054906101000a900473ffffffffffffffffffffffffffffffffffffffff1673ffffffffffffffffffffffffffffffffffffffff163373ffffffffffffffffffffffffffffffffffffffff161461133c576040517f08c379a000000000000000000000000000000000000000000000000000000000815260040161133390612fa6565b60405180910390fd5b81818080601f016020809104026020016040519081016040528093929190818152602001838380828437600081840152601f19601f820116905080830192505050505050506001600061138e836122da565b9050600080600102600260008481526020019081526020016000206000015414159050821561143857600060010282141580156113c85750805b80156113f457506002600083815260200190815260200160002060010160009054906101000a900460ff165b611433576040517f08c379a000000000000000000000000000000000000000000000000000000000815260040161142a906130df565b60405180910390fd5b6114a6565b80158061146657506002600083815260200190815260200160002060010160009054906101000a900460ff16155b6114a5576040517f08c379a000000000000000000000000000000000000000000000000000000000815260040161149c9061314b565b60405180910390fd5b5b60006114f587878080601f016020809104026020016040519081016040528093929190818152602001838380828437600081840152601f19601f820116905080830192505050505050506122da565b905060026000828152602001908152602001600020600201600590806001815401808255809150506001900390600052602060002090602091828204019190069091909190916101000a81548160ff0219169083600981111561155b5761155a6128f9565b5b02179055503373ffffffffffffffffffffffffffffffffffffffff167fa361c37b9b9279fb76c5b2f6766e0c6329c08bcca7bd57140b98e24f8f9dc36988886040516115a8929190612f04565b60405180910390a250505050505050565b600160009054906101000a900473ffffffffffffffffffffffffffffffffffffffff1673ffffffffffffffffffffffffffffffffffffffff163373ffffffffffffffffffffffffffffffffffffffff1614611649576040517f08c379a000000000000000000000000000000000000000000000000000000000815260040161164090612daf565b60405180910390fd5b82828080601f016020809104026020016040519081016040528093929190818152602001838380828437600081840152601f19601f820116905080830192505050505050506002600061169b836122da565b9050600080600102600260008481526020019081526020016000206000015414159050600060026000848152602001908152602001600020600201600160026000868152602001908152602001600020600201805490506116fc9190612e08565b8154811061170d5761170c612e3c565b5b90600052602060002090602091828204019190069054906101000a900460ff169050600060010283141580156117405750815b801561176f575083600981111561175a576117596128f9565b5b81600981111561176d5761176c6128f9565b5b145b6117ae576040517f08c379a00000000000000000000000000000000000000000000000000000000081526004016117a590612eb7565b60405180910390fd5b60006117fd89898080601f016020809104026020016040519081016040528093929190818152602001838380828437600081840152601f19601f820116905080830192505050505050506122da565b905060026000828152602001908152602001600020600201600390806001815401808255809150506001900390600052602060002090602091828204019190069091909190916101000a81548160ff02191690836009811115611863576118626128f9565b5b0217905550600260008281526020019081526020016000206003018790806001815401808255809150506001900390600052602060002001600090919091909150553373ffffffffffffffffffffffffffffffffffffffff167fd584ede0e1da1abff4dac6b0e56f891f2b01d81083c9d9699beacac28f446b148a8a8a6040516118ef9392919061316b565b60405180910390a2505050505050505050565b60008061195284848080601f016020809104026020016040519081016040528093929190818152602001838380828437600081840152601f19601f820116905080830192505050505050506122da565b90506000611961826005612376565b61196a57600190505b809250505092915050565b600160009054906101000a900473ffffffffffffffffffffffffffffffffffffffff1673ffffffffffffffffffffffffffffffffffffffff163373ffffffffffffffffffffffffffffffffffffffff1614611a05576040517f08c379a00000000000000000000000000000000000000000000000000000000081526004016119fc90612daf565b60405180910390fd5b83838080601f016020809104026020016040519081016040528093929190818152602001838380828437600081840152601f19601f8201169050808301925050505050505060076000611a57836122da565b905060008060010260026000848152602001908152602001600020600001541415905060006002600084815260200190815260200160002060020160016002600086815260200190815260200160002060020180549050611ab89190612e08565b81548110611ac957611ac8612e3c565b5b90600052602060002090602091828204019190069054906101000a900460ff16905060006001028314158015611afc5750815b8015611b2b5750836009811115611b1657611b156128f9565b5b816009811115611b2957611b286128f9565b5b145b611b6a576040517f08c379a0000000000000000000000000000000000000000000000000000000008152600401611b6190612eb7565b60405180910390fd5b6000611bb98a8a8080601f016020809104026020016040519081016040528093929190818152602001838380828437600081840152601f19601f820116905080830192505050505050506122da565b905060026000828152602001908152602001600020600201600890806001815401808255809150506001900390600052602060002090602091828204019190069091909190916101000a81548160ff02191690836009811115611c1f57611c1e6128f9565b5b02179055508787600260008481526020019081526020016000206004019190611c49929190612529565b503373ffffffffffffffffffffffffffffffffffffffff167f287a137e6d755097d78d1cb8fd52fec9af76644de921def1f86c108a4e6b18f28b8b8b8b604051611c96949392919061319d565b60405180910390a250505050505050505050565b60008054906101000a900473ffffffffffffffffffffffffffffffffffffffff1673ffffffffffffffffffffffffffffffffffffffff163373ffffffffffffffffffffffffffffffffffffffff1614611d38576040517f08c379a0000000000000000000000000000000000000000000000000000000008152600401611d2f90612fa6565b60405180910390fd5b81818080601f016020809104026020016040519081016040528093929190818152602001838380828437600081840152601f19601f8201169050808301925050505050505060016000611d8a836122da565b90506000806001026002600084815260200190815260200160002060000154141590508215611e345760006001028214158015611dc45750805b8015611df057506002600083815260200190815260200160002060010160009054906101000a900460ff165b611e2f576040517f08c379a0000000000000000000000000000000000000000000000000000000008152600401611e26906130df565b60405180910390fd5b611ea2565b801580611e6257506002600083815260200190815260200160002060010160009054906101000a900460ff16155b611ea1576040517f08c379a0000000000000000000000000000000000000000000000000000000008152600401611e989061314b565b60405180910390fd5b5b6000611ef187878080601f016020809104026020016040519081016040528093929190818152602001838380828437600081840152601f19601f820116905080830192505050505050506122da565b905060026000828152602001908152602001600020600201600790806001815401808255809150506001900390600052602060002090602091828204019190069091909190916101000a81548160ff02191690836009811115611f5757611f566128f9565b5b02179055503373ffffffffffffffffffffffffffffffffffffffff167faae6d576c29601c16cbc3bced4dafc70f0abfef5177650d5853efbec130759dd8888604051611fa4929190612f04565b60405180910390a250505050505050565b60008054906101000a900473ffffffffffffffffffffffffffffffffffffffff1673ffffffffffffffffffffffffffffffffffffffff163373ffffffffffffffffffffffffffffffffffffffff1614612043576040517f08c379a000000000000000000000000000000000000000000000000000000000815260040161203a90612fa6565b60405180910390fd5b81818080601f016020809104026020016040519081016040528093929190818152602001838380828437600081840152601f19601f82011690508083019250505050505050600080612094836122da565b9050600080600102600260008481526020019081526020016000206000015414159050821561213e57600060010282141580156120ce5750805b80156120fa57506002600083815260200190815260200160002060010160009054906101000a900460ff165b612139576040517f08c379a0000000000000000000000000000000000000000000000000000000008152600401612130906130df565b60405180910390fd5b6121ac565b80158061216c57506002600083815260200190815260200160002060010160009054906101000a900460ff16155b6121ab576040517f08c379a00000000000000000000000000000000000000000000000000000000081526004016121a29061314b565b60405180910390fd5b5b60006121fb87878080601f016020809104026020016040519081016040528093929190818152602001838380828437600081840152601f19601f820116905080830192505050505050506122da565b905080600260008381526020019081526020016000206000018190555060026000828152602001908152602001600020600201600190806001815401808255809150506001900390600052602060002090602091828204019190069091909190916101000a81548160ff0219169083600981111561227c5761227b6128f9565b5b02179055503373ffffffffffffffffffffffffffffffffffffffff167f0a338d53f2364c56ade57292015e6d691e408e69261b6f1106d2dd2b5c8e92ac88886040516122c9929190612f04565b60405180910390a250505050505050565b60006002826040516020016122ef9190613214565b60405160208183030381529060405260405161230b9190613272565b602060405180830381855afa158015612328573d6000803e3d6000fd5b5050506040513d601f19601f8201168201806040525081019061234b919061329e565b9050919050565b60008060009050612364836005612376565b61236d57600190505b80915050919050565b60008060008060009050600080600260008981526020019081526020016000206002018054905090505b6000811115612510578115801561242d57508660098111156123c5576123c46128f9565b5b600260008a81526020019081526020016000206002016001836123e89190612e08565b815481106123f9576123f8612e3c565b5b90600052602060002090602091828204019190069054906101000a900460ff16600981111561242b5761242a6128f9565b5b145b1561244a5760018161243f9190612e08565b9350600191506124e9565b821580156124cf575060046009811115612467576124666128f9565b5b600260008a815260200190815260200160002060020160018361248a9190612e08565b8154811061249b5761249a612e3c565b5b90600052602060002090602091828204019190069054906101000a900460ff1660098111156124cd576124cc6128f9565b5b145b156124e8576001816124e19190612e08565b9450600192505b5b8180156124f35750825b156124fd57612510565b8080612508906132cb565b9150506123a0565b5080801561251d57508383115b94505050505092915050565b82805461253590613061565b90600052602060002090601f016020900481019282612557576000855561259e565b82601f1061257057803560ff191683800117855561259e565b8280016001018555821561259e579182015b8281111561259d578235825591602001919060010190612582565b5b5090506125ab91906125af565b5090565b5b808211156125c85760008160009055506001016125b0565b5090565b6000604051905090565b600080fd5b600080fd5b600080fd5b600080fd5b600080fd5b60008083601f840112612605576126046125e0565b5b8235905067ffffffffffffffff811115612622576126216125e5565b5b60208301915083600182028301111561263e5761263d6125ea565b5b9250929050565b6000806020838503121561265c5761265b6125d6565b5b600083013567ffffffffffffffff81111561267a576126796125db565b5b612686858286016125ef565b92509250509250929050565b60008115159050919050565b6126a781612692565b81146126b257600080fd5b50565b6000813590506126c48161269e565b92915050565b6000806000604084860312156126e3576126e26125d6565b5b600084013567ffffffffffffffff811115612701576127006125db565b5b61270d868287016125ef565b93509350506020612720868287016126b5565b9150509250925092565b600080fd5b6000601f19601f8301169050919050565b7f4e487b7100000000000000000000000000000000000000000000000000000000600052604160045260246000fd5b6127788261272f565b810181811067ffffffffffffffff8211171561279757612796612740565b5b80604052505050565b60006127aa6125cc565b90506127b6828261276f565b919050565b600067ffffffffffffffff8211156127d6576127d5612740565b5b6127df8261272f565b9050602081019050919050565b82818337600083830152505050565b600061280e612809846127bb565b6127a0565b90508281526020810184848401111561282a5761282961272a565b5b6128358482856127ec565b509392505050565b600082601f830112612852576128516125e0565b5b81356128628482602086016127fb565b91505092915050565b600060208284031215612881576128806125d6565b5b600082013567ffffffffffffffff81111561289f5761289e6125db565b5b6128ab8482850161283d565b91505092915050565b6000819050919050565b6128c7816128b4565b82525050565b600081519050919050565b600082825260208201905092915050565b6000819050602082019050919050565b7f4e487b7100000000000000000000000000000000000000000000000000000000600052602160045260246000fd5b600a8110612939576129386128f9565b5b50565b600081905061294a82612928565b919050565b600061295a8261293c565b9050919050565b61296a8161294f565b82525050565b600061297c8383612961565b60208301905092915050565b6000602082019050919050565b60006129a0826128cd565b6129aa81856128d8565b93506129b5836128e9565b8060005b838110156129e65781516129cd8882612970565b97506129d883612988565b9250506001810190506129b9565b5085935050505092915050565b6129fc81612692565b82525050565b600081519050919050565b600082825260208201905092915050565b6000819050602082019050919050565b612a37816128b4565b82525050565b6000612a498383612a2e565b60208301905092915050565b6000602082019050919050565b6000612a6d82612a02565b612a778185612a0d565b9350612a8283612a1e565b8060005b83811015612ab3578151612a9a8882612a3d565b9750612aa583612a55565b925050600181019050612a86565b5085935050505092915050565b600081519050919050565b600082825260208201905092915050565b60005b83811015612afa578082015181840152602081019050612adf565b83811115612b09576000848401525b50505050565b6000612b1a82612ac0565b612b248185612acb565b9350612b34818560208601612adc565b612b3d8161272f565b840191505092915050565b600060a082019050612b5d60008301886128be565b8181036020830152612b6f8187612995565b9050612b7e60408301866129f3565b8181036060830152612b908185612a62565b90508181036080830152612ba48184612b0f565b90509695505050505050565b600073ffffffffffffffffffffffffffffffffffffffff82169050919050565b6000612bdb82612bb0565b9050919050565b612beb81612bd0565b8114612bf657600080fd5b50565b600081359050612c0881612be2565b92915050565b600060208284031215612c2457612c236125d6565b5b6000612c3284828501612bf9565b91505092915050565b612c44816128b4565b8114612c4f57600080fd5b50565b600081359050612c6181612c3b565b92915050565b600080600060408486031215612c8057612c7f6125d6565b5b600084013567ffffffffffffffff811115612c9e57612c9d6125db565b5b612caa868287016125ef565b93509350506020612cbd86828701612c52565b9150509250925092565b6000602082019050612cdc60008301846129f3565b92915050565b60008060008060408587031215612cfc57612cfb6125d6565b5b600085013567ffffffffffffffff811115612d1a57612d196125db565b5b612d26878288016125ef565b9450945050602085013567ffffffffffffffff811115612d4957612d486125db565b5b612d55878288016125ef565b925092505092959194509250565b7f4f6e6c79436c6f75640000000000000000000000000000000000000000000000600082015250565b6000612d99600983612acb565b9150612da482612d63565b602082019050919050565b60006020820190508181036000830152612dc881612d8c565b9050919050565b6000819050919050565b7f4e487b7100000000000000000000000000000000000000000000000000000000600052601160045260246000fd5b6000612e1382612dcf565b9150612e1e83612dcf565b925082821015612e3157612e30612dd9565b5b828203905092915050565b7f4e487b7100000000000000000000000000000000000000000000000000000000600052603260045260246000fd5b7f46696c6553746174650000000000000000000000000000000000000000000000600082015250565b6000612ea1600983612acb565b9150612eac82612e6b565b602082019050919050565b60006020820190508181036000830152612ed081612e94565b9050919050565b6000612ee38385612acb565b9350612ef08385846127ec565b612ef98361272f565b840190509392505050565b60006020820190508181036000830152612f1f818486612ed7565b90509392505050565b60006040820190508181036000830152612f43818587612ed7565b9050612f5260208301846129f3565b949350505050565b7f4f6e6c7955736572000000000000000000000000000000000000000000000000600082015250565b6000612f90600883612acb565b9150612f9b82612f5a565b602082019050919050565b60006020820190508181036000830152612fbf81612f83565b9050919050565b7f46696c65496e4243000000000000000000000000000000000000000000000000600082015250565b6000612ffc600883612acb565b915061300782612fc6565b602082019050919050565b6000602082019050818103600083015261302b81612fef565b9050919050565b7f4e487b7100000000000000000000000000000000000000000000000000000000600052602260045260246000fd5b6000600282049050600182168061307957607f821691505b6020821081141561308d5761308c613032565b5b50919050565b7f46696c654f6e436c6f7564000000000000000000000000000000000000000000600082015250565b60006130c9600b83612acb565b91506130d482613093565b602082019050919050565b600060208201905081810360008301526130f8816130bc565b9050919050565b7f46696c654e6f744f6e436c6f7564000000000000000000000000000000000000600082015250565b6000613135600e83612acb565b9150613140826130ff565b602082019050919050565b6000602082019050818103600083015261316481613128565b9050919050565b60006040820190508181036000830152613186818587612ed7565b905061319560208301846128be565b949350505050565b600060408201905081810360008301526131b8818688612ed7565b905081810360208301526131cd818486612ed7565b905095945050505050565b600081905092915050565b60006131ee82612ac0565b6131f881856131d8565b9350613208818560208601612adc565b80840191505092915050565b600061322082846131e3565b915081905092915050565b600081519050919050565b600081905092915050565b600061324c8261322b565b6132568185613236565b9350613266818560208601612adc565b80840191505092915050565b600061327e8284613241565b915081905092915050565b60008151905061329881612c3b565b92915050565b6000602082840312156132b4576132b36125d6565b5b60006132c284828501613289565b91505092915050565b60006132d682612dcf565b915060008214156132ea576132e9612dd9565b5b60018203905091905056fea26469706673582212203d44e8f154ef71d00dcf7dca60e02eda29d6b922306fe4a08ccc6a23c41bf7e364736f6c63430008090033",
  "immutableReferences": {},
  "source": "// SPDX-License-Identifier: MIT\r\npragma solidity ^0.8.0;\r\npragma experimental ABIEncoderV2;\r\n\r\n/**\r\n * @title CloudSLA\r\n * @dev \r\n */\r\ncontract CloudSLA {\r\n    address private user = 0x627306090abaB3A6e1400e9345bC60c78a8BEf57;\r\n    address private cloud;\r\n    \r\n    /*struct Sla{\r\n        uint price;\r\n        bool paid;\r\n        uint violationCount;\r\n        uint monitoringPeriod;\r\n    }*/\r\n    \r\n    enum State {defaultValue, uploadRequested, uploadRequestAck, uploadTransferAck, uploaded, \r\n                deleteRequested, deleted, readRequested, readRequestAck, readDeny }\r\n\r\n    struct File {\r\n        bytes32 ID;         //hash of filepath\r\n        bool onCloud;\r\n        State[] states;   \r\n        bytes32[] digests;     //hash of last content\r\n        string url;         //hash of last url\r\n    }\r\n    \r\n    //Sla private sla;\r\n    mapping ( bytes32 => File ) private files;\r\n    \r\n    \r\n    function Hash(string memory str) private pure returns(bytes32){\r\n        return (sha256(abi.encodePacked(str)));\r\n    }\r\n    \r\n    modifier OnlyUser {require (msg.sender == user, \"OnlyUser\"); _;}\r\n    modifier OnlyCloud {require (msg.sender == cloud, \"OnlyCloud\"); _;}\r\n    modifier FileInBC (string memory filepath) {\r\n        bytes32 i = Hash(filepath);\r\n        require (i != 0x0 && files[i].ID != 0x0, \"FileInBC\");\r\n        _;\r\n    }\r\n    modifier FileOnCloud (string memory filepath, bool onCloud) {\r\n        bytes32 i = Hash(filepath);\r\n        bool inBC = files[i].ID != 0x0;\r\n        if (onCloud)\r\n            require (i != 0x0 && inBC && files[i].onCloud, \"FileOnCloud\");\r\n        else\r\n            require (! inBC ||  ! files[i].onCloud, \"FileNotOnCloud\");\r\n        _;\r\n    }\r\n    modifier FileState (string memory filepath, State prevState) {\r\n        bytes32 i = Hash(filepath);\r\n        bool inBC = files[i].ID != 0x0;\r\n        State lastState = files[i].states[files[i].states.length - 1];\r\n        require (i != 0x0 && inBC && lastState == prevState, \"FileState\");\r\n        _;\r\n    }\r\n    \r\n    event UploadRequested(address indexed _from, string filepath);\r\n    event UploadRequestAcked(address indexed _from, string filepath);\r\n    event UploadTransferAcked(address indexed _from, string filepath, bytes32 digest);\r\n    event DeleteRequested(address indexed _from, string filepath);\r\n    event Deleted(address indexed _from, string filepath);\r\n    event ReadRequested(address indexed _from, string filepath);\r\n    event ReadRequestAcked(address indexed _from, string filepath, string url);\r\n    event ReadRequestDenied(address indexed _from, string filepath, bool lostFile);\r\n\r\n    constructor() {\r\n        cloud = msg.sender;\r\n    }\r\n    \r\n    function SetUser(address _user) external OnlyCloud{\r\n        user = _user;\r\n    }\r\n    \r\n    function UploadRequest(string calldata filepath) external OnlyUser FileOnCloud(filepath, false){\r\n        bytes32 i = Hash(filepath);\r\n        files[i].ID = i;\r\n        files[i].states.push(State.uploadRequested);\r\n        emit UploadRequested(msg.sender, filepath);\r\n    }\r\n    \r\n    function UploadRequestAck(string calldata filepath) external OnlyCloud FileState(filepath, State.uploadRequested){\r\n        bytes32 i = Hash(filepath);\r\n        files[i].states.push(State.uploadRequestAck);\r\n        emit UploadRequestAcked(msg.sender, filepath);\r\n    }\r\n    \r\n    function UploadTransferAck(string calldata filepath, bytes32 digest) external OnlyCloud FileState(filepath, State.uploadRequestAck){\r\n        bytes32 i = Hash(filepath);\r\n        files[i].states.push(State.uploadTransferAck);\r\n        files[i].digests.push(digest);\r\n        emit UploadTransferAcked(msg.sender, filepath, digest);\r\n    }\r\n    \r\n    function UploadConfirm(string calldata filepath, bool ack) external OnlyUser FileState(filepath, State.uploadTransferAck){\r\n        bytes32 i = Hash(filepath);\r\n        if(ack){\r\n            files[i].states.push(State.uploaded); \r\n            files[i].onCloud = true;\r\n        }\r\n        else{\r\n            files[i].states.push(State.deleteRequested);\r\n            emit DeleteRequested(msg.sender, filepath);\r\n        }\r\n    }\r\n    \r\n    function DeleteRequest(string calldata filepath) external OnlyUser FileOnCloud(filepath, true){\r\n        bytes32 i = Hash(filepath);\r\n        files[i].states.push(State.deleteRequested);\r\n        emit DeleteRequested(msg.sender, filepath);\r\n    }\r\n    \r\n    function Delete(string calldata filepath) external OnlyCloud FileState(filepath, State.deleteRequested){\r\n        bytes32 i = Hash(filepath);\r\n        files[i].states.push(State.deleted);\r\n        files[i].onCloud = false;\r\n        emit Deleted(msg.sender, filepath);\r\n    }\r\n    \r\n    function ReadRequest(string calldata filepath) external OnlyUser FileOnCloud(filepath, true){\r\n        bytes32 i = Hash(filepath);\r\n        files[i].states.push(State.readRequested);\r\n        emit ReadRequested(msg.sender, filepath);\r\n    }\r\n    \r\n    function ReadRequestAck(string calldata filepath, string calldata url) external OnlyCloud FileState(filepath, State.readRequested){\r\n        bytes32 i = Hash(filepath);\r\n        files[i].states.push(State.readRequestAck);\r\n        files[i].url = url;\r\n        emit ReadRequestAcked(msg.sender, filepath, url);\r\n    }\r\n    \r\n    function ReadRequestDeny(string calldata filepath) external OnlyCloud FileState(filepath, State.readRequested){\r\n        bytes32 i = Hash(filepath);\r\n        files[i].states.push(State.readDeny);\r\n        emit ReadRequestDenied(msg.sender, filepath, LostFileCheck(i));\r\n    }\r\n    \r\n    //TODO ARBITRATOR\r\n    function GetFile(string memory filepath) public view FileInBC(filepath) returns(bytes32, State [] memory, bool, bytes32 [] memory, string memory){\r\n        bytes32 i = Hash(filepath);\r\n        return (files[i].ID, files[i].states, files[i].onCloud, files[i].digests, files[i].url);\r\n    }\r\n    \r\n    function LostFileCheck(bytes32 ID) internal view returns(bool){\r\n        bool res = false;\r\n        if(!OperationAfterUpload(ID, State.deleteRequested)){\r\n            //TODO Compensate();\r\n            res = true;\r\n        }\r\n        return(res);    \r\n    }\r\n    \r\n    function CorruptedFileCheck(string calldata filepath) external view returns(bool){\r\n        bytes32 i = Hash(filepath);\r\n        bool res = false;\r\n        if(!OperationAfterUpload(i, State.deleteRequested)){\r\n            //TODO Compensate();\r\n            res = true;\r\n        }\r\n        return(res);    \r\n    }\r\n    \r\n    /*\r\n    function UndeletedFileCheck(string calldata filepath) external returns(bool){\r\n        bytes32 i = Hash(filepath);\r\n        bool res = false;\r\n        if(OperationAfterUpload(i, \"deleted\")){\r\n            //TODO Compensate();\r\n            res = true;\r\n        }\r\n        return(res);   \r\n    }*/\r\n    \r\n    //check if there is an operation after last upload\r\n    function OperationAfterUpload(bytes32 ID, State operation) internal view returns(bool){\r\n        //get index of last uploaded state and last deleted state if present\r\n        uint uploadedTime;\r\n        uint operationTime;\r\n        bool uploadedFound = false;\r\n        bool operationFound = false;\r\n        for (uint j = files[ID].states.length; j > 0; j--) {\r\n            if(!operationFound && files[ID].states[j-1] == operation){\r\n                operationTime = j-1;   \r\n                operationFound = true;\r\n            }\r\n            else if(!uploadedFound && files[ID].states[j-1] == State.uploaded){\r\n                uploadedTime= j-1;\r\n                uploadedFound = true;\r\n            }\r\n            //early exit\r\n            if(operationFound && uploadedFound)\r\n                break;\r\n        }\r\n        return(operationFound && operationTime > uploadedTime);\r\n    }\r\n    \r\n}",
  "sourcePath": "C:\\Users\\paola\\Desktop\\cloud-chain\\contracts\\CloudSLA.sol",
  "compiler": {
    "name": "solc",
    "version": "0.8.9+commit.e5eed63a.Emscripten.clang"
  },
  "schemaVersion": "3.4.3",
  "updatedAt": "2021-10-12T16:05:28.454Z",
  "networkType": "ethereum",
  "devdoc": {
    "kind": "dev",
    "methods": {},
    "title": "CloudSLA",
    "version": 1
  },
  "userdoc": {
    "kind": "user",
    "methods": {},
    "version": 1
  }
}